:04000000020059326F
:01000B0032C2
:0100130032BA
:01001B0032B2
:0100230032AA
:01002B0032A2
:01003300329A
:01003B003292
:03004300023D007B
:01004B003282
:03005300023D006B
:0300CF00020056D6
:030056000200D2D3
:2000D20090E60BE4F0C201751200C200E4F510F51190E680E0440AF09005DC120ECA90E6D9
:2000F20080E054F7F090E600E0FF74E75F90E6004410F090E601E04440F090E100E4F5F085
:20011200120DDFD2E890E668E04408F090E65CE04401F090E65CE04402F090E65CE0442036
:20013200F090E65CE0FF4410F090E61274A2F00000000090E61474E2F00000000090E611E3
:20015200E0FF547FF00000000090E610E0FF547FF00000000090E613E0FF547FF000000098
:200172000090E615E0FF547FF00000000090E6917480F00000000090E6917480F0D2AF7475
:200192003EC0E07416C0E07480C0E0120F45158115811581759290E230011A7457C0E074E6
:2001B20016C0E07480C0E0120F4515811581158112099BC201E5AA20E0DE7469C0E07416CE
:2001D200C0E07480C0E0120F45158115811581E5AA20E5C47480C0E07416C0E07480C0E007
:2001F200120F4515811581158190E690E0FE7F0090E691E0FD7C004FF510EC4EF5117E00F0
:200212007F00C3EE9510EF9511501B8E0474F82FFD8E8274F02FF583E0FB8C828D83F00EBB
:20023200BE00DF0F80DCAF1190E698EFF000000000AE10E5117F0090E699EEF090E691745C
:2002520080F00201AA75820022AF82BFB15290E6BAE0F582C007120ABDAD82AE83E0FC7B85
:2002720000C006C005C004C0037498C0E07416C0E07480C0E0120F45E58124FBF581D005BA
:20029200D006D007ED4E60188D828E83E090E740F090E68AE4F090E68B7401F075820122F1
:2002B2007E00C007C00674A1C0E07416C0E07480C0E0120F45E58124FBF58175820022AF85
:2002D20082C00774C9C0E07416C0E07480C0E0120F45158115811581D007EF7014AD17AE44
:2002F20018AF198D828E838FF0E4120DAD7582012275820022AF82AD1A7E008F037C00C046
:2003120007C005C006C003C00474D8C0E07416C0E07480C0E0120F45E58124F9F581D007D2
:20033200EF7065E51A706190E6837402F07422F07416F07436F090E6047480F000000000C0
:2003520090E6047482F00000000090E604E4F00000000090E6917480F00000000090E691EB
:200372007480F00000000090E6047480F00000000090E6047486F00000000090E604E4F077
:2003920000000000758201227582002275820122AF82BF01047F0180027F008F8222C0E0B5
:2003B200C082C083C007C0D075D000D201AF9174EF5FF59190E65D7401F0D0D0D007D083AD
:2003D200D082D0E032C0E0C082C083C0D075D008900000E02401F0A3E03400F0900000E039
:2003F200FEA3E0FFBE401ABF1F17B2033003067592B8E280047592B0E2900000E4F0E4A3C7
:20041200F0AF9174EF5FF59190E65D7402F0D0D0D083D082D0E032C022C0E0C0F0C082C0BE
:2004320083C007C006C005C004C003C002C001C000C0D075D000758200120C97AF9174EFE7
:200452005FF59190E65D7410F0D0D0D000D001D002D003D004D005D006D007D083D082D0AD
:20047200F0D0E0D02232C022C0E0C0F0C082C083C007C006C005C004C003C002C001C000D3
:20049200C0D075D000758201120C97AF9174EF5FF59190E65D7420F0D0D0D000D001D002D6
:1504B200D003D004D005D006D007D083D082D0F0D0E0D02232D3
:20163E00446F6E6520696E697469616C697A696E672073747566660A0048616E646C65201D
:20165E007365747570646174610A00657032206F75742072656365697665642064617461F7
:20167E000A0053656E64696E67206461746120746F2065703620696E0A0065702025303215
:20169E00780A004E65656420746F20696D706C656D656E742076656E646F7220636F6D6DC6
:2016BE00616E643A20253032780A0047657420496E746572666163650A0053657420696E78
:1716DE007465726661636520256420746F20616C743A2025640A0021
:021700000000E7
:2004C700AD82AE83AFF074022DFDE43EFE8D828E838FF012153EFD53050F7F007E007C0075
:2004E7008D828F838EF0EC22AD82AE83AFF074032DFDE43EFE8D828E838FF012153EFD5334
:2005070005037F007E007C008D828F838EF0EC22AD82AE83AFF074022DFDE43EFE8D828E4A
:20052700838FF012153EFD530580E4BD800104FD3395E08D82F58322AD82AE83AFF074028F
:200547002DFDE43EFE8D828E838FF012153EFD530580E4BD000104FD3395E08D82F583227D
:20056700AD82AE83AFF074032DFDE43EFE8D828E838FF012153EFD530503E4BD020104FDB3
:200587003395E08D82F58322AD82AE83AFF074032DFDE43EFE8D828E838FF012153EFD53EF
:2005A7000503E4BD000104FD3395E08D82F58322AD82AE83AFF074032DFDE43EFE8D828EDB
:2005C700838FF012153EFD530503E4BD030104FD3395E08D82F58322AD82AE83AFF07403E8
:2005E7002DFDE43EFE8D828E838FF012153EFD530503E4BD010104FD3395E08D82F5832259
:20060700AD82AE83AFF0C007C006C005120567E5828583F0D005D006D00745F060128D826D
:200627008E838FF0120517E5828583F045F070047F0080027F01EF3395E08F82F58322AD7D
:2006470082AE83AFF0C007C006C005120567E5828583F0D005D006D00745F060128D828E4C
:20066700838FF012053FE5828583F045F070047F0080027F01EF3395E08F82F58322AD8221
:20068700AE83AFF0C007C006C0051205B7E5828583F0D005D006D00745F060128D828E83BB
:2006A7008FF0120517E5828583F045F070047F0080027F01EF3395E08F82F58322AD82AEDE
:2006C70083AFF0C007C006C0051205B7E5828583F0D005D006D00745F060128D828E838F9A
:2006E700F012053FE5828583F045F070047F0080027F01EF3395E08F82F58322AD82AE8382
:20070700AFF0C007C006C0051205DFE5828583F0D005D006D00745F060128D828E838FF0C4
:20072700120517E5828583F045F070047F0080027F01EF3395E08F82F58322AD82AE83AFAA
:20074700F0C007C006C0051205DFE5828583F0D005D006D00745F060128D828E838FF01221
:20076700053FE5828583F045F070047F0080027F01EF3395E08F82F58322AD82AE83AFF064
:2007870074042DFDE43EFE8D828E838FF012153EFDA312153E8D82F58322AD82AE83AFF0DF
:2007A70074032DFDE43EFE8D828E838FF012153EFD5305307F008D828F8322AD82AE83AF17
:2007C700F0ED4E70049000002274032DFDE43EFE8D828E838FF012153EFD53051F7F00ED1C
:1F07E7004F7004900000228DF005F07D017F008006ED2DFDEF33FFD5F0F78D828F832252
:203E000012010002FFFFFF40501DB7600100010200010A060002FFFFFF400100090220004C
:203E200001010080320904000002FFFFFF03070502020002000705860200020009022000EC
:203E400001010080320904000002FFFFFF0307050202400000070586024000000403090467
:203E60000603480069000C03540068006500720065000E0369004600720061006D0065001C
:0B00B200E4F51BF51C751D40751E9C3D
:20080600AF8874CF5FF58890E7C07431F090E7C17401F000000000AF1B90E68F74022FF0AF
:20082600E4F51BF51C22AF82E51B24C0FDE51C34E7FE74022DFDE43EFE90E6A2E0FC20E1AA
:20084600F88D828E83EFF0051BE4B51B02051CC3E51B943EE51C94004003120806E51B45D2
:200866001C6019E58820E41474FFC3951DFE74FF951EFD8D8C7F008E8A438810222290E60A
:200886000174C0F00000000090E60B7403F00000000090E61074A0F00000000090E61174C0
:2008A600A0F00000000090E612E4F00000000090E613E4F00000000090E614E4F00000008B
:2008C6000090E615E4F00000000090E68D74FFF090E6B57401F075A88075E80190E65C747C
:2008E60001F02290E680E04408F012088490E680E04402F0E054F7F0AF8E74F75FF58E7509
:200906008901AF8874CF5FF5882290E68DE0FE7F0074012480FCE434E7FD1EBEFF011F7AE9
:20092600007B00C3EA9EEB9F50608C828D83E0F9B961004027E92485402274E029F582C091
:2009460007C006C005C004C003C00212082CD002D003D004D005D006D00780228C828D83B5
:20096600E0F582C007C006C005C004C003C00212082CD002D003D004D005D006D0070ABA7A
:1509860000010B0CBC009C0D809990E68D74FFF000000000223E
:06008800E478FFF6D8FD4C
:1200BD0075240075250075263C75273E75281C75293EB8
:20099B0090E6B9E0FF24F45003020AA0EF240A83F582EF241083F583E473CDE2A0F7A0A005
:2009BB000CA01C344E8209090A090A0A0A0A0A0A0A0A120B17E5826003020AB590E6A0E026
:2009DB00FF4401F0020AB5120BA0E5826003020AB590E6A0E0FF4401F0020AB5120C0FE5C2
:2009FB00826003020AB590E6A0E0FF4401F0020AB5120257E5826003020AB5120CC2020A69
:200A1B00B512039EAF8290E740EFF090E68AE4F090E68B7401F0020AB590E6BAE0F58212F8
:200A3B0003A2E5826003020AB590E6A0E0FF4401F0806790E6BCE0FF75172375180075197F
:200A5B00408F821202D1E582700A90E6A0E0FF4401F0804690E740E523F090E68AE4F09061
:200A7B00E68B7401F0803390E6BCE0FF90E6BAE0F51A8F82120307E582701F90E6A0E0FF8A
:200A9B004401F0801590E6B9E0F58212025BE582700890E6A0E0FF4401F090E6A0E04480B9
:200ABB00F022AF828F0653067FEE24F75003020B13EE240A83F582EE240D83F583E473EC7C
:200ADB00F0031307130B130F0A0A0B0B0B0B0B0B0B90E6A022EF30E7067EA27FE680047E82
:200AFB00A17FE68E828F832290E6A32290E6A42290E6A52290E6A6229000002290E6B8E0DF
:200B1B00FFBF8002801FBF81028005BF826F803490E740E4F090E741F090E68AF090E68B8C
:200B3B007402F0805CE52525E0FFE524420790E740EFF090E741E4F090E68AF090E68B7471
:200B5B0002F0803D90E6BCE0F582120ABDAE82AF83EE4F7003F582228E828F83E0FE30E0AE
:200B7B00047F0180027F0090E740EFF090E741E4F090E68AF090E68B7402F08004758200E1
:200B9B00227582012290E6B8E0FF6005BF0258801B90E6BAE0FFBF0105752500805290E622
:200BBB00BAE0FFBF060280487582002290E6BAE0703190E6BCE0F582120ABDAE82AF83E084
:200BDB00FD5305FE8E828F83EDF090E6BCE0FF30E70343071053071F90E683EFF074204FEF
:200BFB00F0800D7582002290E6B9E0F58202025B7582012290E6B8E0FF6008BF0202802964
:200C1B00020C8A90E6BAE0FFBF0203020C9390E6BAE0FFBF0105752501805D90E6BAE0FF52
:200C3B00BF060280537582002290E6BAE0703C90E6BCE0F582120ABDAE82AF83EE4F7003B6
:200C5B00F582228E828F83E0FD4305018E828F83EDF090E6BCE0FF30E70343071053071F9B
:200C7B0090E683EFF074204FF0800D7582002290E6B9E0F58202025B75820122D310AF0176
:200C9B00C3C0D0E582FF600E75261C75273E75283C75293E800C75263C75273E75281C7561
:200CBB00293ED0D092AF2290E6B57401F090E6BBE0FFBF01028019BF02028029BF03028004
:200CDB0033BF0603020D81BF0703020D96020DA57E007F3E8F0690E6B3EEF07E007F3E90AA
:200CFB00E6B4EEF022AF2790E6B3EFF0AE2690E6B4EEF0227E5C7D3E7F8090E6BAE0F54981
:200D1B007B008B020BEAB5490280428E008D018F028E828D838FF012153E28F8E439F9888A
:200D3B000689058A0774012EF9E43DFA8F0489828A838CF012153EF9B9030280067E007DF8
:200D5B00007F00EE4D6006C3E5499B50B5EE4D600D8D0790E6B3EFF090E6B4EEF02290E6E3
:200D7B00A0E04401F0227E127F3E8F0690E6B3EEF07E127F3E90E6B4EEF022AF2990E6B320
:120D9B00EFF0AE2890E6B4EEF02290E6A0E04401F0221A
:200066007902E94400601B7A019017007800759200E493F2A308B800020592D9F4DAF27543
:0200860092FFE7
:1B0DAD0020F71130F6138883A88220F509F6A8837583002280FEF280F5F02245
:203D00000203B0000203D7000215CC000216360002042900020478000215C900020DD30072
:203D2000020DD500020DD600020DD700020DDA0002163C0002163D00020DC800020DCA0092
:203D40000215CE00020DD3000215C8000215CA000215CB000215CD000215CF0002163500E3
:203D600002152500020DD300020DD300020DD300020DD400020DD800020DDB00020DDD00C1
:203D8000020DD900020DDC00020DDE00020F2000020DCB00020DCD00020DCF00020DD100BE
:183DA000020DCC00020DCE00020DD000020DD200020DC90002163B0068
:010DC80032F8
:010DC90032F7
:010DCA0032F6
:010DCB0032F5
:010DCC0032F4
:20008E007800E84400600A7900759200E4F309D8FC7800E84400600C7900900000E4F0A380
:0400AE00D8FCD9FAA7
:010DCD0032F3
:010DCE0032F2
:010DCF0032F1
:010DD00032F0
:010DD10032EF
:010DD20032EE
:010DD30032ED
:010DD40032EC
:010DD50032EB
:010DD60032EA
:010DD70032E9
:010DD80032E8
:010DD90032E7
:010DDA0032E6
:010DDB0032E5
:010DDC0032E4
:010DDD0032E3
:010DDE0032E2
:200DDF00D310AF01C3C0D085822A85832B85F02CF52D90E600E05418C423541FFBB401001B
:200DFF00E433FB60047B01801690E600E05418C423541FFABA01047A0280027A048A03D29C
:200E1F00CDD2CC8B49754A00754B00754C009071B075F00BE4C00312155A852A49852B4AF9
:200E3F00852C4B852D4C1215D0A882A983AAF0FFD00308B8000909B900050ABA00010FEF8D
:200E5F00C313EA13FAE913F9E813F874FFC398F874FF99FF8FCB7900EB60027401FFEF2842
:200E7F00F5CAD2CAC29FD29EC29DD29C438780D299D0D092AF223098FD859982C29822AF12
:200E9F008210990280FB8F9922AF82BF0A0A75820DC007120E9ED0078F82C007120E9ED077
:0B0EBF0007BF0D0675820A020E9E227E
:200ECA00AE82AF8390E600E05418C423541FFDB40100E433FD60067CB17D00801C90E600A2
:200EEA00E05418C423541FFBBB01067A617B0180047AC27B028A048B058C498D4A15497455
:160F0A00FFB54902154AE549454A70F11EBEFF011FEE4F70E422A7
:010F2000329E
:200F2100C048858148120EA8D0482285823D85833E85F03FE4F53AF53BF53C851F40900F23
:200F410021021017C048858148E54824FBFF8F40E4F53AF53BF53CE54824FBF8863D0886CD
:0D0F61003E08863F900F21121017D0482245
:200F6E00AF82C030C031C032120F7B8007C02EC02F8F82221581158115810538E4B538025A
:200F8E00053922AF8274302FFF24C6500A74072FFF3004034307208F82020F6EE582FFC498
:200FAE00540FF582C007120F91D007740F5FF582020F9185824985334A85344B85354C851D
:200FCE00364DAA37754E20EA2AFAE54D235401FF8A064EFAE54A254AF54AE54B33F54BE5C8
:200FEE004C33F54CE54D33F54DC3EA95494008EAC39549FA434A01D54ECD854A33854B34A0
:20100E00854C35854D368A372285822E85832F853A30853B31853C32E4F538F539AD3DAEBB
:20102E003EAF3F8D828E838FF012153EFC74012DF53DE43EF53E8F3FECFF700302151EBF2D
:20104E0025028003021516C205C206C207C208C209C20AC20BC20C7541007542007CFFAAC5
:20106E003DAB3EAE3F8A828B838EF012153EFFA3AA82AB838A3D8B3E8E3FBF25078F8212EB
:20108E000F6E80998F4474D025445026E54424C64020BCFF12E54275F00AA4FD2F24D0F527
:2010AE004270C2D20680BEEC75F00AA42F24D0FC80B3BF2E07BCFFAD7C0080A98F05BD6194
:2010CE0000400CED248540075307DFD2048002C204BF2002806DBF2B028063BF2D0280591E
:2010EE00BF42028063BF43028068BF44030212BDBF46030212D3BF4803021073BF490302AE
:20110E0012BDBF4A03021073BF4C028040BF4F030212C4BF5003021252BF5302805CBF5430
:20112E0003021073BF55030212C9BF58030212CEBF5A030210730212D7D205021073D20768
:20114E00021073D208021073D20A021073D20B021073300A0CE54014FE8E408E01870780F2
:20116E0011E54024FEFE8E408E018705098706198D078F82120F6E0212E0E54024FDFE8E79
:20118E00408E01870309870509870619198B338D348E358B828D838EF0C004121526AD826E
:2011AE00AE83D004BCFF028D0420052AC3ED95425024E542C39DF542AE428E031EEB6014C8
:2011CE00758220C006C005C004120F6ED004D005D00680E68E428C06853382853483853595
:2011EE00F012153EFCFF60308E041EC3E464808CF063F08095F050208F82C006C005120FC5
:20120E006ED005D006AA33AB34AC350ABA00010B8A338B348C3580C02005030212E0C3EDF1
:20122E00954240030212E0E542C39DF542AE428E041EEC70030212DE758220C006120F6E77
:20124E00D00680EBE54024FDFC8C408C01870209870309870419198A338B348C35AC35BCE8
:20126E00800040047F438014BC600040047F50800BBC400040047F4980027F588F82C00753
:20128E00120F6E75823A120F6E758230120F6E758278120F6ED007BF4902800BBF50028040
:2012AE0006853482120FAA853382120FAA8023D20975410A801C754108801775410A80128E
:2012CE00754110800DD20C80098F82120F6E80028E42300C5CE54024FCFE8E408E01870293
:2012EE000987030987040987061919198A338B348C358E367533F575341675358085334554
:20130E0085344685354774012545FAE43546FCAE478A338C348E358545828546838547F000
:20132E0012153EFEFF700302102B8F82120F6E80CCE541700302102B754354300A2DE54033
:20134E0014FC8C408C01E7FA3395E0FBFCFE8A338B348C358E36200966AA337B007C007EB6
:20136E00008A338B348C358E368054300B21E54024FCFE8E408E01870209870309870409D5
:20138E0087061919198A338B348C358E368030E54024FEFE8E408E01870409870619EE33B9
:2013AE0095E0FBFA8C338E348B358A36200910AA33AB347C007E008A338B348C358E363094
:2013CE000925AA33AB34AC35E536FE30E717C3E49AFAE49BFBE49CFCE49EFE8A338B348C34
:2013EE00358E368002C209D20DA9437E00753700854182C006C001120FC1D001D006200D1F
:20140E000BE537C4FCE7FB4CF7198002A7370EB20DE53345344535453670D289438E05E560
:20142E00427003754201200624200521ED04FEAC42C3EE9C5015758220C006C005C004129A
:20144E000F6ED004D005D0061C80E68C4230090E75822DC005120F6ED00515428023ED6057
:20146E002030070E75822BC005120F6ED0051542800F30080C758220C005120F6ED005152F
:20148E0042200522AE428E041EC3ED9C502B3006047C3080027C208C82C006C005120F6E22
:2014AE00D005D00680E0C3ED95425008E542C39DF542800775420080028E42A9438D068ED9
:2014CE00051EED6026B20D200D0A09E7C4540FFD8D3780078705740F5DF537853782C00677
:2014EE00C001120F91D001D00680D420050302102BAE428E051EED700302102B758220C0F6
:17150E0006120F6ED00680EB8F82120F6E02102B8538828539832271
:0B16F5003C4E4F20464C4F41543E003D
:011525003293
:18152600AA82AB8312153E6003A380F8C3E5829AF582E5839BF5832298
:0D005900758154121637E5826003020056CF
:1C153E0020F71430F6148883A88220F507E6A88375830022E280F7E49322E022BC
:20155A00AAF0FBE5828549F0A4FCADF0E5838549F0A42DFDE435F0FEE582854AF0A42DFD8B
:20157A00E5F03EFEE433FFEA8549F0A42EFEE5F03FFFE583854AF0A42EFEE5F03FFFE5822E
:20159A00854BF0A42EFEE5F03FFFEB8549F0A42FFFEA854AF0A42FFFE583854BF0A42FFF9E
:0E15BA00E582854CF0A42F8EF08D838C82226A
:0115C80032F0
:0115C90032EF
:0115CA0032EE
:0115CB0032ED
:0115CC0032EC
:0115CD0032EB
:0115CE0032EA
:0115CF0032E9
:2015D000FB7A20E4FCFDFEFFE5822582F582E58333F583E5F033F5F0EB33FB4017DAE98054
:2015F00042E5822582F582E58333F583E5F033F5F0EB33FBEC33FCED33FDEE33FEEF33FF83
:20161000EC9549ED954AEE954BEF954C4013EC9549FCED954AFDEE954BFEEF954CFF438244
:0516300001DABEEB220F
:011635003282
:011636003281
:041637007582002296
:01163B00327C
:01163C00327B
:01163D00327A
:00000001FF
