:04000000020059326F
:01000B0032C2
:0100130032BA
:01001B0032B2
:0100230032AA
:01002B0032A2
:01003300329A
:01003B003292
:03004300023D007B
:01004B003282
:03005300023D006B
:0300C400020056E1
:030056000200C7DE
:2000C70090E60BE4F0759280E2C202E4F513F514F515F516C201751200C200E4F510F51192
:2000E70090E680E0440AF09005DC120D3990E680E054F7F090E600E0FF74E75F90E6004442
:2001070010F090E601E04440F090E100E4F5F0120C4ED2E890E668E04408F090E65CE044BD
:2001270001F090E65CE04402F090E65CE04420F090E65CE0FF4410F090E61274A2F0000056
:20014700000090E61474E2F00000000090E611E0FF547FF00000000090E610E0FF547FF077
:200167000000000090E613E0FF547FF00000000090E615E0FF547FF00000000090E69174A5
:2001870080F00000000090E6917480F0D2AF74ADC0E07414C0E07480C0E0120DB415811581
:2001A700811581759290E230011A74C6C0E07414C0E07480C0E0120DB41581158115811220
:2001C700080AC201E5AA20E0DE74D8C0E07414C0E07480C0E0120DB4158115811581E5AA0A
:2001E70020E5C474EFC0E07414C0E07480C0E0120DB415811581158190E690E0FE7F0090E8
:20020700E691E0FD7C004FF510EC4EF5117E007F00C3EE9510EF9511501B8E0474F82FFDF6
:200227008E8274F02FF583E0FB8C828D83F00EBE00DF0F80DCAF1190E698EFF000000000F0
:20024700AE10E5117F0090E699EEF090E6917480F00201AE75820022AF82BFB15290E6BA9F
:20026700E0F582C00712092CAD82AE83E0FC7B00C006C005C004C0037407C0E07415C0E005
:200287007480C0E0120DB4E58124FBF581D005D006D007ED4E60188D828E83E090E740F019
:2002A70090E68AE4F090E68B7401F0758201227E00C007C0067410C0E07415C0E07480C0D7
:2002C700E0120DB4E58124FBF58175820022AF82C0077438C0E07415C0E07480C0E0120D30
:2002E700B4158115811581D007EF7014AD17AE18AF198D828E838FF0E4120C1C758201220E
:2003070075820022AF82AD1A7E008F037C00C007C005C006C003C0047447C0E07415C0E0DC
:200327007480C0E0120DB4E58124F9F581D007EF7065E51A706190E6837402F07422F07492
:2003470016F07436F090E6047480F00000000090E6047482F00000000090E604E4F00000EA
:20036700000090E6917480F00000000090E6917480F00000000090E6047480F00000000042
:2003870090E6047486F00000000090E604E4F000000000758201227582002275820122AFA8
:2003A70082BF01047F0180027F008F8222C0E0C082C083C007C0D075D000D201AF9174EF05
:2003C7005FF59190E65D7401F0D0D0D007D083D082D0E032C0E0C082C083C0D075D0089069
:2003E7000000E02401F0A3E03400F0900000E0FEA3E0FFBE401ABF1F17B203300306759268
:20040700B8E280047592B0E2900000E4F0E4A3F0AF9174EF5FF59190E65D7402F0D0D0D012
:2004270083D082D0E032C022C0E0C0F0C082C083C007C006C005C004C003C002C001C0002B
:20044700C0D075D000758200120B06AF9174EF5FF59190E65D7410F0D0D0D000D001D002C4
:20046700D003D004D005D006D007D083D082D0F0D0E0D02232C022C0E0C0F0C082C083C09C
:2004870007C006C005C004C003C002C001C000C0D075D000758201120B06AF9174EF5FF512
:2004A7009190E65D7420F0D0D0D000D001D002D003D004D005D006D007D083D082D0F0D0DC
:0404C700E0D022322D
:2014AD00446F6E6520696E697469616C697A696E672073747566660A0048616E646C6520B0
:2014CD007365747570646174610A00657032206F757420726563656976656420646174618A
:2014ED000A0053656E64696E67206461746120746F2065703620696E0A00657020253032A8
:20150D00780A004E65656420746F20696D706C656D656E742076656E646F7220636F6D6D58
:20152D00616E643A20253032780A0047657420496E746572666163650A0053657420696E0A
:17154D007465726661636520256420746F20616C743A2025640A00B3
:02156F0000007A
:2004CB00AD82AE83AFF074022DFDE43EFE8D828E838FF01213ADFD53050F7F007E007C0004
:2004EB008D828F838EF0EC22AD82AE83AFF074032DFDE43EFE8D828E838FF01213ADFD53C3
:20050B0005037F007E007C008D828F838EF0EC22AD82AE83AFF074022DFDE43EFE8D828E46
:20052B00838FF01213ADFD530580E4BD800104FD3395E08D82F58322AD82AE83AFF074021E
:20054B002DFDE43EFE8D828E838FF01213ADFD530580E4BD000104FD3395E08D82F583220C
:20056B00AD82AE83AFF074032DFDE43EFE8D828E838FF01213ADFD530503E4BD020104FD42
:20058B003395E08D82F58322AD82AE83AFF074032DFDE43EFE8D828E838FF01213ADFD537E
:2005AB000503E4BD000104FD3395E08D82F58322AD82AE83AFF074032DFDE43EFE8D828ED7
:2005CB00838FF01213ADFD530503E4BD030104FD3395E08D82F58322AD82AE83AFF0740377
:2005EB002DFDE43EFE8D828E838FF01213ADFD530503E4BD010104FD3395E08D82F58322E8
:20060B00AD82AE83AFF0C007C006C00512056BE5828583F0D005D006D00745F060128D8265
:20062B008E838FF012051BE5828583F045F070047F0080027F01EF3395E08F82F58322AD75
:20064B0082AE83AFF0C007C006C00512056BE5828583F0D005D006D00745F060128D828E44
:20066B00838FF0120543E5828583F045F070047F0080027F01EF3395E08F82F58322AD8219
:20068B00AE83AFF0C007C006C0051205BBE5828583F0D005D006D00745F060128D828E83B3
:2006AB008FF012051BE5828583F045F070047F0080027F01EF3395E08F82F58322AD82AED6
:2006CB0083AFF0C007C006C0051205BBE5828583F0D005D006D00745F060128D828E838F92
:2006EB00F0120543E5828583F045F070047F0080027F01EF3395E08F82F58322AD82AE837A
:20070B00AFF0C007C006C0051205E3E5828583F0D005D006D00745F060128D828E838FF0BC
:20072B0012051BE5828583F045F070047F0080027F01EF3395E08F82F58322AD82AE83AFA2
:20074B00F0C007C006C0051205E3E5828583F0D005D006D00745F060128D828E838FF01219
:20076B000543E5828583F045F070047F0080027F01EF3395E08F82F58322AD82AE83AFF05C
:20078B0074042DFDE43EFE8D828E838FF01213ADFDA31213AD8D82F58322AD82AE83AFF001
:2007AB0074032DFDE43EFE8D828E838FF01213ADFD5305307F008D828F8322AD82AE83AFA6
:2007CB00F0ED4E70049000002274032DFDE43EFE8D828E838FF01213ADFD53051F7F00EDAB
:1F07EB004F7004900000228DF005F07D017F008006ED2DFDEF33FFD5F0F78D828F83224E
:203E000012010002FFFFFF40501DB7600100010200010A060002FFFFFF400100090220004C
:203E200001010080320904000002FFFFFF03070502020002000705860200020009022000EC
:203E400001010080320904000002FFFFFF0307050202400000070586024000000403090467
:203E60000603480069000C03540068006500720065000E0369004600720061006D0065001C
:06008800E478FFF6D8FD4C
:1200B20075240075250075263C75273E75281C75293EC3
:20080A0090E6B9E0FF24F4500302090FEF240A83F582EF241083F583E4733C510F660F0F8F
:20082A007B0F8BA3BDF1080809080909080908080808120986E582600302092490E6A0E054
:20084A00FF4401F0020924120A0FE582600302092490E6A0E0FF4401F0020924120A7EE52F
:20086A0082600302092490E6A0E0FF4401F002092412025BE5826003020924120B31020940
:20088A00241203A2AF8290E740EFF090E68AE4F090E68B7401F002092490E6BAE0F58212AA
:2008AA0003A6E582600302092490E6A0E0FF4401F0806790E6BCE0FF7517237518007519A0
:2008CA00408F821202D5E582700A90E6A0E0FF4401F0804690E740E523F090E68AE4F090F0
:2008EA00E68B7401F0803390E6BCE0FF90E6BAE0F51A8F8212030BE582701F90E6A0E0FF19
:20090A004401F0801590E6B9E0F58212025FE582700890E6A0E0FF4401F090E6A0E0448047
:20092A00F022AF828F0653067FEE24F75003020982EE240A83F582EE240D83F583E4735B32
:20094A005F728276827A827E09090909090909090990E6A022EF30E7067EA27FE680047EAC
:20096A00A17FE68E828F832290E6A32290E6A42290E6A52290E6A6229000002290E6B8E071
:20098A00FFBF8002801FBF81028005BF826F803490E740E4F090E741F090E68AF090E68B1F
:2009AA007402F0805CE52525E0FFE524420790E740EFF090E741E4F090E68AF090E68B7404
:2009CA0002F0803D90E6BCE0F58212092CAE82AF83EE4F7003F582228E828F83E0FE30E0D3
:2009EA00047F0180027F0090E740EFF090E741E4F090E68AF090E68B7402F0800475820074
:200A0A00227582012290E6B8E0FF6005BF0258801B90E6BAE0FFBF0105752500805290E6B4
:200A2A00BAE0FFBF060280487582002290E6BAE0703190E6BCE0F58212092CAE82AF83E0A8
:200A4A00FD5305FE8E828F83EDF090E6BCE0FF30E70343071053071F90E683EFF074204F81
:200A6A00F0800D7582002290E6B9E0F58202025F7582012290E6B8E0FF6008BF02028029F2
:200A8A00020AF990E6BAE0FFBF0203020B0290E6BAE0FFBF0105752501805D90E6BAE0FF0A
:200AAA00BF060280537582002290E6BAE0703C90E6BCE0F58212092CAE82AF83EE4F7003DB
:200ACA00F582228E828F83E0FD4305018E828F83EDF090E6BCE0FF30E70343071053071F2E
:200AEA0090E683EFF074204FF0800D7582002290E6B9E0F58202025F75820122D310AF0105
:200B0A00C3C0D0E582FF600E75261C75273E75283C75293E800C75263C75273E75281C75F3
:200B2A00293ED0D092AF2290E6B57401F090E6BBE0FFBF01028019BF02028029BF03028096
:200B4A0033BF0603020BF0BF0703020C05020C147E007F3E8F0690E6B3EEF07E007F3E90F3
:200B6A00E6B4EEF022AF2790E6B3EFF0AE2690E6B4EEF0227E5C7D3E7F8090E6BAE0F54517
:200B8A007B008B020BEAB5450280428E008D018F028E828D838FF01213AD28F8E439F988B4
:200BAA000689058A0774012EF9E43DFA8F0489828A838CF01213ADF9B9030280067E007D1E
:200BCA00007F00EE4D6006C3E5459B50B5EE4D600D8D0790E6B3EFF090E6B4EEF02290E67A
:200BEA00A0E04401F0227E127F3E8F0690E6B3EEF07E127F3E90E6B4EEF022AF2990E6B3B3
:120C0A00EFF0AE2890E6B4EEF02290E6A0E04401F022AC
:200066007902E94400601B7A0190156F7800759200E493F2A308B800020592D9F4DAF275D6
:0200860092FFE7
:1B0C1C0020F71130F6138883A88220F509F6A8837583002280FEF280F5F022D7
:203D00000203B4000203DB0002143B000214A50002042D0002047C0002143800020C4200AB
:203D2000020C4400020C4500020C4600020C49000214AB000214AC00020C3700020C390024
:203D400002143D00020C4200021437000214390002143A0002143C0002143E000214A40074
:203D600002139400020C4200020C4200020C4200020C4300020C4700020C4A00020C4C0052
:203D8000020C4800020C4B00020C4D00020D8F00020C3A00020C3C00020C3E00020C40004F
:183DA000020C3B00020C3D00020C3F00020C4100020C38000214AA00D5
:010C3700328A
:010C38003289
:010C39003288
:010C3A003287
:010C3B003286
:20008E007800E84400600A7900759200E4F309D8FC7800E84400600C7900900000E4F0A380
:0400AE00D8FCD9FAA7
:010C3C003285
:010C3D003284
:010C3E003283
:010C3F003282
:010C40003281
:010C41003280
:010C4200327F
:010C4300327E
:010C4400327D
:010C4500327C
:010C4600327B
:010C4700327A
:010C48003279
:010C49003278
:010C4A003277
:010C4B003276
:010C4C003275
:010C4D003274
:200C4E00D310AF01C3C0D085821B85831C85F01DF51E90E600E05418C423541FFBB40100E9
:200C6E00E433FB60047B01801690E600E05418C423541FFABA01047A0280027A048A03D22E
:200C8E00CDD2CC8B457546007547007548009071B075F00BE4C0031213C9851B45851C4655
:200CAE00851D47851E4812143FA882A983AAF0FFD00308B8000909B900050ABA00010FEFD8
:200CCE00C313EA13FAE913F9E813F874FFC398F874FF99FF8FCB7900EB60027401FFEF28D5
:200CEE00F5CAD2CAC29FD29EC29DD29C438780D299D0D092AF223098FD859982C29822AFA5
:200D0E008210990280FB8F9922AF82BF0A0A75820DC007120D0DD0078F82C007120D0DD02D
:0B0D2E0007BF0D0675820A020D0D22A2
:200D3900AE82AF8390E600E05418C423541FFDB40100E433FD60067CB17D00801C90E60034
:200D5900E05418C423541FFBBB01067A617B0180047AC27B028A048B058C458D46154574F3
:160D7900FFB545021546E545454670F11EBEFF011FEE4F70E4224A
:010D8F003231
:200D9000C044858144120D17D0442285823985833A85F03BE4F536F537F538851F3C900D72
:200DB00090020E86C044858144E54424FBFF8F3CE4F536F537F538E54424FBF886390886A8
:0D0DD0003A08863B900D90120E86D044220A
:200DDD00AF82C02CC02DC02E120DEA8007C02AC02B8F82221581158115810534E4B534029C
:200DFD00053522AF8274302FFF24C6500A74072FFF3004034307208F82020DDDE582FFC4C2
:200E1D00540FF582C007120E00D007740F5FF582020E00858245852F4685304785314885EF
:200E3D003249AA33754A20EA2AFAE549235401FF8A064EFAE5462546F546E54733F547E582
:200E5D004833F548E54933F549C3EA95454008EAC39545FA434601D54ACD85462F85473062
:200E7D008548318549328A332285822A85832B85362C85372D85382EE4F534F535AD39AE8E
:200E9D003AAF3B8D828E838FF01213ADFC74012DF539E43EF53A8F3BECFF700302138DBFFA
:200EBD0025028003021385C205C206C207C208C209C20AC20BC20C753D00753E007CFFAAF3
:200EDD0039AB3AAE3B8A828B838EF01213ADFFA3AA82AB838A398B3A8E3BBF25078F821229
:200EFD000DDD80998F4074D025405026E54024C64020BCFF12E53E75F00AA4FD2F24D0F55D
:200F1D003E70C2D20680BEEC75F00AA42F24D0FC80B3BF2E07BCFFAD7C0080A98F05BD612A
:200F3D0000400CED248540075307DFD2048002C204BF2002806DBF2B028063BF2D028059B0
:200F5D00BF42028063BF43028068BF440302112CBF4603021142BF4803020EE2BF490302F7
:200F7D00112CBF4A03020EE2BF4C028040BF4F03021133BF50030210C1BF5302805CBF540D
:200F9D0003020EE2BF5503021138BF580302113DBF5A03020EE2021146D205020EE2D2076A
:200FBD00020EE2D208020EE2D20A020EE2D20B020EE2300A0CE53C14FE8E3C8E01870780D9
:200FDD0011E53C24FEFE8E3C8E018705098706198D078F82120DDD02114FE53C24FDFE8E3D
:200FFD003C8E01870309870509870619198B2F8D308E318B828D838EF0C004121395AD82A4
:20101D00AE83D004BCFF028D0420052AC3ED953E5024E53EC39DF53EAE3E8E031EEB60146A
:20103D00758220C006C005C004120DDDD004D005D00680E68E3E8C06852F828530838531CA
:20105D00F01213ADFCFF60308E041EC3E464808CF063F08095F050208F82C006C005120DEC
:20107D00DDD005D006AA2FAB30AC310ABA00010B8A2F8B308C3180C020050302114FC3EDBF
:20109D00953E400302114FE53EC39DF53EAE3E8E041EEC700302114D758220C006120DDDD1
:2010BD00D00680EBE53C24FDFC8C3C8C01870209870309870419198A2F8B308C31AC31BC93
:2010DD00800040047F438014BC600040047F50800BBC400040047F4980027F588F82C007E6
:2010FD00120DDD75823A120DDD758230120DDD758278120DDDD007BF4902800BBF5002801F
:20111D0006853082120E19852F82120E198023D209753D0A801C753D088017753D0A801258
:20113D00753D10800DD20C80098F82120DDD80028E3E300C5CE53C24FCFE8E3C8E018702C8
:20115D000987030987040987061919198A2F8B308C318E32752F64753015753180852F419C
:20117D0085304285314374012541FAE43542FCAE438A2F8C308E318541828542838543F0C7
:20119D001213ADFEFF7003020E9A8F82120DDD80CCE53D7003020E9A753F50300A2DE53C22
:2011BD0014FC8C3C8C01E7FA3395E0FBFCFE8A2F8B308C318E32200966AA2F7B007C007E61
:2011DD00008A2F8B308C318E328054300B21E53C24FCFE8E3C8E0187020987030987040980
:2011FD0087061919198A2F8B308C318E328030E53C24FEFE8E3C8E01870409870619EE3364
:20121D0095E0FBFA8C2F8E308B318A32200910AA2FAB307C007E008A2F8B308C318E32304E
:20123D000925AA2FAB30AC31E532FE30E717C3E49AFAE49BFBE49CFCE49EFE8A2F8B308CDE
:20125D00318E328002C209D20DA93F7E00753300853D82C006C001120E30D001D006200D57
:20127D000BE533C4FCE7FB4CF7198002A7330EB20DE52F45304531453270D2893F8E05E50F
:20129D003E7003753E01200624200521ED04FEAC3EC3EE9C5015758220C006C005C0041239
:2012BD000DDDD004D005D0061C80E68C3E30090E75822DC005120DDDD005153E8023ED6018
:2012DD002030070E75822BC005120DDDD005153E800F30080C758220C005120DDDD00515EC
:2012FD003E200522AE3E8E041EC3ED9C502B3006047C3080027C208C82C006C005120DDD50
:20131D00D005D00680E0C3ED953E5008E53EC39DF53E8007753E0080028E3EA93F8D068E83
:20133D00051EED6026B20D200D0A09E7C4540FFD8D3380078705740F5DF533853382C00615
:20135D00C001120E00D001D00680D4200503020E9AAE3E8E051EED7003020E9A758220C044
:17137D0006120DDDD00680EB8F82120DDD020E9A85348285358322C5
:0B1564003C4E4F20464C4F41543E00CF
:011394003226
:18139500AA82AB831213AD6003A380F8C3E5829AF582E5839BF58322BE
:0D0059007581501214A6E582600302005666
:1C13AD0020F71430F6148883A88220F507E6A88375830022E280F7E49322E0224F
:2013C900AAF0FBE5828545F0A4FCADF0E5838545F0A42DFDE435F0FEE5828546F0A42DFD2A
:2013E900E5F03EFEE433FFEA8545F0A42EFEE5F03FFFE5838546F0A42EFEE5F03FFFE582C9
:201409008547F0A42EFEE5F03FFFEB8545F0A42FFFEA8546F0A42FFFE5838547F0A42FFF40
:0E142900E5828548F0A42F8EF08D838C822200
:011437003282
:011438003281
:011439003280
:01143A00327F
:01143B00327E
:01143C00327D
:01143D00327C
:01143E00327B
:20143F00FB7A20E4FCFDFEFFE5822582F582E58333F583E5F033F5F0EB33FB4017DAE980E6
:20145F0042E5822582F582E58333F583E5F033F5F0EB33FBEC33FCED33FDEE33FEEF33FF15
:20147F00EC9545ED9546EE9547EF95484013EC9545FCED9546FDEE9547FEEF9548FF4382F7
:05149F0001DABEEB22A2
:0114A4003215
:0114A5003214
:0414A6007582002229
:0114AA00320F
:0114AB00320E
:0114AC00320D
:00000001FF
