:04000000020059326F
:01000B0032C2
:0100130032BA
:03001B000203C419
:0100230032AA
:01002B0032A2
:01003300329A
:01003B003292
:03004300023D007B
:01004B003282
:03005300023D006B
:0300B200752A00AC
:0300D500020056D0
:030056000200D8CD
:2000D800C201C200E4F523F52490E680E0440AF09005DC12117790E680E054F7F0120578AF
:2000F800120B79120B4BD2AB90E100E4F5F012108CD2E890E668E04408F090E65CE04401DA
:20011800F090E65CE04402F090E65CE04420F090E65CE0FF4410F0D2AF75823C120BDB3018
:200138000105120C48C20190E6A1E0FF20E10312059FE58830E5E212048B80DD758200224D
:20015800AF82BFB15290E6BAE0F582C007120D6AAD82AE83E0FC7B00C006C005C004C003F4
:2001780074EBC0E07418C0E07480C0E01211F2E58124FBF581D005D006D007ED4E60188DD6
:20019800828E83E090E740F090E68AE4F090E68B7401F0758201227E00C007C00674F4C0A6
:2001B800E07418C0E07480C0E01211F2E58124FBF58175820022AF82C007741CC0E07419A9
:2001D800C0E07480C0E01211F2158115811581D007EF7014AD31AE32AF338D828E838FF073
:2001F800E412105A7582012275820022AF82AD347E008F037C00C007C005C006C003C004DD
:20021800742BC0E07419C0E07480C0E01211F2E58124F9F581D007EF7065E534706190E6BD
:20023800837402F07422F07416F07436F090E6047480F00000000090E6047482F000000065
:200258000090E604E4F00000000090E6917480F00000000090E6917480F00000000090E6EC
:20027800047480F00000000090E6047486F00000000090E604E4F00000000075820122753D
:20029800820022C0E0C082C083C0D075D008900000E02401F0A3E03400F0900000E0FEA363
:2002B800E0FFBE401ABF1F17B2033003067592B8E280047592B0E2900000E4F0E4A3F0AF04
:2002D8009174EF5FF59190E65D7402F0D0D0D083D082D0E03275820122AF82BF01047F013E
:2002F80080027F008F8222C0E0C082C083C007C0D075D000D201AF9174EF5FF59190E65DC3
:200318007401F0D0D0D007D083D082D0E032C022C0E0C0F0C082C083C007C006C005C00495
:20033800C003C002C001C000C0D075D000758200120F44AF9174EF5FF59190E65D7410F09F
:20035800D0D0D000D001D002D003D004D005D006D007D083D082D0F0D0E0D02232C022C06E
:20037800E0C0F0C082C083C007C006C005C004C003C002C001C000C0D075D0007582011255
:200398000F44AF9174EF5FF59190E65D7420F0D0D0D000D001D002D003D004D005D006D0DE
:2003B80007D083D082D0F0D0E0D02232C022C0E0C0F0C082C083C007C006C005C004C00355
:2003D800C002C001C000C0D075D0007401B54929154AE54A7023E54C30E005120C32800317
:2003F800120C3AE54DC313C54C13C54CF54D754A03154BE54B7002F549E5477059E52A60A8
:200418001CD52C52E4F52AF548E5452435F8A62E054574F02545503E7545008039E5487010
:2004380019120C2BE582F52F702C754801F52E752C04752D08752B01801CD52C19120C2B4B
:20045800E582F5306004E52B422EE52B252BF52BD52D03752A01D0D0D000D001D002D00309
:13047800D004D005D006D007D083D082D0F0D0E0D02232E2
:2018EB00657020253032780A004E65656420746F20696D706C656D656E742076656E646F39
:20190B007220636F6D6D616E643A20253032780A0047657420496E746572666163650A000D
:1D192B0053657420696E7465726661636520256420746F20616C743A2025640A00A8
:02195300000092
:0B00B500E4F510F51175124075139C66
:20048B00AF8874CF5FF58890E7C07431F090E7C17401F000000000AF1090E68F74022FF039
:2004AB00E4F510F51122AF82E51024C0FDE51134E7FE74022DFDE43EFE90E6A2E0FC20E155
:2004CB00F88D828E83EFF00510E4B510020511C3E510943EE5119400400312048BE5104512
:2004EB00116019E58820E41474FFC39512FE74FF9513FD8D8C7F008E8A438810222290E6AA
:20050B00007410F00000000090E60174C0F00000000090E60B7403F00000000090E61074DF
:20052B00A0F00000000090E61174A0F00000000090E612E4F00000000090E613E4F00000DC
:20054B00000090E614E4F00000000090E615E4F00000000090E68D74FFF090E6B57401F0DD
:20056B0075A88075E80190E65C7401F02290E680E04408F012050990E680E04402F0E054AA
:20058B00F7F0AF8E74F75FF58E438901AF8874CF5FF5882290E68DE0FE7F0074012480FC25
:2005AB00E434E7FD1EBEFF011F7A007B00C3EA9EEB9F50608C828D83E0F9B961004027E95E
:2005CB002485402274E029F582C007C006C005C004C003C0021204B1D002D003D004D00561
:2005EB00D006D00780228C828D83E0F582C007C006C005C004C003C0021204B1D002D00325
:20060B00D004D005D006D0070ABA00010B0CBC009C0D809990E68D74FFF000000000227522
:0D062B00B20100000000B2800000000022BB
:20063800AD82AE83AFF074022DFDE43EFE8D828E838FF01217EBFD53050F7F007E007C0053
:200658008D828F838EF0EC22AD82AE83AFF074032DFDE43EFE8D828E838FF01217EBFD5312
:2006780005037F007E007C008D828F838EF0EC22AD82AE83AFF074022DFDE43EFE8D828ED8
:20069800838FF01217EBFD530580E4BD800104FD3395E08D82F58322AD82AE83AFF074026E
:2006B8002DFDE43EFE8D828E838FF01217EBFD530580E4BD000104FD3395E08D82F583225C
:2006D800AD82AE83AFF074032DFDE43EFE8D828E838FF01217EBFD530503E4BD020104FD92
:2006F8003395E08D82F58322AD82AE83AFF074032DFDE43EFE8D828E838FF01217EBFD53CE
:200718000503E4BD000104FD3395E08D82F58322AD82AE83AFF074032DFDE43EFE8D828E68
:20073800838FF01217EBFD530503E4BD030104FD3395E08D82F58322AD82AE83AFF07403C6
:200758002DFDE43EFE8D828E838FF01217EBFD530503E4BD010104FD3395E08D82F5832237
:20077800AD82AE83AFF0C007C006C0051206D8E5828583F0D005D006D00745F060128D8289
:200798008E838FF0120688E5828583F045F070047F0080027F01EF3395E08F82F58322AD99
:2007B80082AE83AFF0C007C006C0051206D8E5828583F0D005D006D00745F060128D828E68
:2007D800838FF01206B0E5828583F045F070047F0080027F01EF3395E08F82F58322AD823D
:2007F800AE83AFF0C007C006C005120728E5828583F0D005D006D00745F060128D828E83D6
:200818008FF0120688E5828583F045F070047F0080027F01EF3395E08F82F58322AD82AEF9
:2008380083AFF0C007C006C005120728E5828583F0D005D006D00745F060128D828E838FB4
:20085800F01206B0E5828583F045F070047F0080027F01EF3395E08F82F58322AD82AE839D
:20087800AFF0C007C006C005120750E5828583F0D005D006D00745F060128D828E838FF0DF
:20089800120688E5828583F045F070047F0080027F01EF3395E08F82F58322AD82AE83AFC6
:2008B800F0C007C006C005120750E5828583F0D005D006D00745F060128D828E838FF0123C
:2008D80006B0E5828583F045F070047F0080027F01EF3395E08F82F58322AD82AE83AFF080
:2008F80074042DFDE43EFE8D828E838FF01217EBFDA31217EB8D82F58322AD82AE83AFF00F
:2009180074032DFDE43EFE8D828E838FF01217EBFD5305307F008D828F8322AD82AE83AFF5
:20093800F0ED4E70049000002274032DFDE43EFE8D828E838FF01217EBFD53051F7F00EDFA
:1F0958004F7004900000228DF005F07D017F008006ED2DFDEF33FFD5F0F78D828F8322DF
:203E000012010002FFFFFF40030472830100010200010A060002FFFFFF40010009022000D4
:203E200001010080320904000002FFFFFF03070501020002000705810200020009022000F2
:203E400001010080320904000002FFFFFF0307050202400000070586024000000403090467
:203E60000603480069000C03540068006500720065000E0369004600720061006D0065001C
:0300C000751400B4
:20097700AC82AD83AEF0FFE4B56A0280117401B56A03020A1C7402B56A03020AA322BC608B
:200997000CBD0909BE0006BF0003020A14BCC00BBD1208BE0005BF0002805DBC800BBD25D7
:2009B70008BE0005BF0002804ABC000BBD4B08BE0005BF00028037BC800BBD7008BE000579
:2009D700BF00028024BC000BBD9608BE0005BF00028011BC002CBDE129BE0026BF0023757A
:2009F70014FD80217514FB801C7514F980177514F680127514EC800D7514D980087514B2BD
:200A17008003751400BC600CBD0909BE0006BF0003020A9BBCC00BBD1208BE0005BF0002AD
:200A3700805DBC800BBD2508BE0005BF0002804ABC000BBD4B08BE0005BF00028037BC80F5
:200A57000BBD7008BE0005BF00028024BC000BBD9608BE0005BF00028011BC002CBDE12931
:200A7700BE0026BF00237514F980217514F6801C7514F380177514EC80127514D9800D75DD
:200A970014B280087514648003751400BC600CBD0909BE0006BF0003020B1CBCC00BBD12FC
:200AB70008BE0005BF00028058BC800BBD2508BE0005BF00028046BC000BBD4B08BE0005A6
:200AD700BF00028034BC800BBD7008BE0005BF00028022BC000BBD9608BE0005BF000280C2
:200AF70010BC0025BDE122BE001FBF001C7514F3227514EC227514E6227514D9227514B2F1
:200B170022751464227514002275140022D310AF01C3C0D043892000000000C28E00000015
:1B0B37000085148D00000000758B2300000000D0D092AF22D28E0000000022D5
:200B520043B202AFB274FB5FF5B22243892000000000C28E00000000758D7700000000756A
:200B72008B770000000022754900754800754700120C32120B52020B5D2275470022754723
:200B92000122E545B54605120B8B80F6E5462435F98707054674F0254650037546008F8294
:200BB20022E546B5450474018001E4FFB40100E433F58222754500754600227401B549048C
:200BD2007F0180027F008F8222AF827401B5490280F9754A03754B0AEF3395E0CF25E0CF6A
:200BF20033FE8F4C74024EF54D75490122AD82AE83AFF08D828E838FF01217EBFC60188C3E
:200C1200820DBD00010EC007C006C005120BDBD005D006D00780DC2222A281E433F5822228
:160C3200758001000000002275800075B201758000000000002260
:06008800E478FFF6D8FD4C
:1200C30075160075170075183C75193E751A1C751B3E06
:200C480090E6B9E0FF24F45003020D4DEF240A83F582EF241083F583E4737A8F4DA44D4D97
:200C6800B94DC9E1FB2F0C0C0D0C0D0D0C0D0C0C0C0D120DC4E5826003020D6290E6A0E0E9
:200C8800FF4401F0020D62120E4DE5826003020D6290E6A0E0FF4401F0020D62120EBCE5A3
:200CA800826003020D6290E6A0E0FF4401F0020D62120154E5826003020D62120F6F020DFA
:200CC800621202EDAF8290E740EFF090E68AE4F090E68B7401F0020D6290E6BAE0F582129E
:200CE80002F1E5826003020D6290E6A0E0FF4401F0806790E6BCE0FF753115753200753392
:200D0800408F821201CEE582700A90E6A0E0FF4401F0804690E740E515F090E68AE4F090C3
:200D2800E68B7401F0803390E6BCE0FF90E6BAE0F5348F82120204E582701F90E6A0E0FFC4
:200D48004401F0801590E6B9E0F582120158E582700890E6A0E0FF4401F090E6A0E044800D
:200D6800F022AF828F0653067FEE24F75003020DC0EE240A83F582EE240D83F583E4739970
:200D88009DB0C0B4C0B8C0BC0D0D0D0D0D0D0D0D0D90E6A022EF30E7067EA27FE680047E56
:200DA800A17FE68E828F832290E6A32290E6A42290E6A52290E6A6229000002290E6B8E02F
:200DC800FFBF8002801FBF81028005BF826F803490E740E4F090E741F090E68AF090E68BDD
:200DE8007402F0805CE51725E0FFE516420790E740EFF090E741E4F090E68AF090E68B74DE
:200E080002F0803D90E6BCE0F582120D6AAE82AF83EE4F7003F582228E828F83E0FE30E04E
:200E2800047F0180027F0090E740EFF090E741E4F090E68AF090E68B7402F0800475820031
:200E4800227582012290E6B8E0FF6005BF0258801B90E6BAE0FFBF0105751700805290E680
:200E6800BAE0FFBF060280487582002290E6BAE0703190E6BCE0F582120D6AAE82AF83E024
:200E8800FD5305FE8E828F83EDF090E6BCE0FF30E70343071053071F90E683EFF074204F3F
:200EA800F0800D7582002290E6B9E0F5820201587582012290E6B8E0FF6008BF02028029B8
:200EC800020F3790E6BAE0FFBF0203020F4090E6BAE0FFBF0105751701805D90E6BAE0FF51
:200EE800BF060280537582002290E6BAE0703C90E6BCE0F582120D6AAE82AF83EE4F700357
:200F0800F582228E828F83E0FD4305018E828F83EDF090E6BCE0FF30E70343071053071FEB
:200F280090E683EFF074204FF0800D7582002290E6B9E0F58202015875820122D310AF01CA
:200F4800C3C0D0E582FF600E75181C75193E751A3C751B3E800C75183C75193E751A1C7513
:200F68001B3ED0D092AF2290E6B57401F090E6BBE0FFBF01028019BF02028029BF03028062
:200F880033BF060302102EBF07030210430210527E007F3E8F0690E6B3EEF07E007F3E90EA
:200FA800E6B4EEF022AF1990E6B3EFF0AE1890E6B4EEF0227E5C7D3E7F8090E6BAE0F56ACC
:200FC8007B008B020BEAB56A0280428E008D018F028E828D838FF01217EB28F8E439F9880B
:200FE8000689058A0774012EF9E43DFA8F0489828A838CF01217EBF9B9030280067E007D9A
:20100800007F00EE4D6006C3E56A9B50B5EE4D600D8D0790E6B3EFF090E6B4EEF02290E612
:20102800A0E04401F0227E127F3E8F0690E6B3EEF07E127F3E90E6B4EEF022AF1B90E6B37E
:12104800EFF0AE1A90E6B4EEF02290E6A0E04401F02278
:200066007902E94400601B7A019019537800759200E493F2A308B800020592D9F4DAF275EE
:0200860092FFE7
:1B105A0020F71130F6138883A88220F509F6A8837583002280FEF280F5F02295
:203D00000202FF0002029B00021879000218E30002032600020375000218760002108000AA
:203D2000021082000210830002108400021087000218E9000218EA00021075000210770014
:203D400002187B000210800002187500021877000218780002187A0002187C000218E20064
:203D60000217D20002108000021080000210800002108100021085000210880002108A0042
:203D8000021086000210890002108B000211CD000210780002107A0002107C0002107E003F
:183DA0000210790002107B0002107D0002107F00021076000218E80049
:011075003248
:011076003247
:011077003246
:011078003245
:011079003244
:20008E007800E84400600A7900759200E4F309D8FC7800E84400600C7900900000E4F0A380
:0400AE00D8FCD9FAA7
:01107A003243
:01107B003242
:01107C003241
:01107D003240
:01107E00323F
:01107F00323E
:01108000323D
:01108100323C
:01108200323B
:01108300323A
:011084003239
:011085003238
:011086003237
:011087003236
:011088003235
:011089003234
:01108A003233
:01108B003232
:20108C00D310AF01C3C0D085821C85831D85F01EF51F90E600E05418C423541FFBB40100A3
:2010AC00E433FB60047B01801690E600E05418C423541FFABA01047A0280027A048A03D2EC
:2010CC00CDD2CC8B6A756B00756C00756D009071B075F00BE4C003121807851C6A851D6BF0
:2010EC00851E6C851F6D12187DA882A983AAF0FFD00308B8000909B900050ABA00010FEF08
:20110C00C313EA13FAE913F9E813F874FFC398F874FF99FF8FCB7900EB60027401FFEF2892
:20112C00F5CAD2CAC29FD29EC29DD29C438780D299D0D092AF223098FD859982C29822AF62
:20114C008210990280FB8F9922AF82BF0A0A75820DC00712114BD0078F82C00712114BD067
:0B116C0007BF0D0675820A02114B221E
:20117700AE82AF8390E600E05418C423541FFDB40100E433FD60067CB17D00801C90E600F2
:20119700E05418C423541FFBBB01067A617B0180047AC27B028A048B058C6A8D6B156A7442
:1611B700FFB56A02156BE56A456B70F11EBEFF011FEE4F70E42274
:0111CD0032EF
:2011CE00C069858169121155D0692285825E85835F85F060E4F55BF55CF55D854E61901149
:2011EE00CE0212C4C069858169E56924FBFF8F61E4F55BF55CF55DE56924FBF8865E088699
:0D120E005F0886609011CE1212C4D06922D4
:20121B00AF82C051C052C0531212288007C04FC0508F82221581158115810559E4B5590213
:20123B00055A22AF8274302FFF24C6500A74072FFF3004034307208F8202121BE582FFC417
:20125B00540FF582C00712123ED007740F5FF58202123E85826A85546B85556C85566D8526
:20127B00576EAA58756F20EA2AFAE56E235401FF8A064EFAE56B256BF56BE56C33F56CE5CE
:20129B006D33F56DE56E33F56EC3EA956A4008EAC3956AFA436B01D56FCD856B54856C5564
:2012BB00856D56856E578A582285824F858350855B51855C52855D53E4F559F55AAD5EAEFC
:2012DB005FAF608D828E838FF01217EBFC74012DF55EE43EF55F8F60ECFF70030217CBBF7B
:2012FB00250280030217C3C205C206C207C208C209C20AC20BC20C7562007563007CFFAA25
:20131B005EAB5FAE608A828B838EF01217EBFFA3AA82AB838A5E8B5F8E60BF25078F8212C6
:20133B00121B80998F6574D025655026E56524C64020BCFF12E56375F00AA4FD2F24D0F543
:20135B006370C2D20680BEEC75F00AA42F24D0FC80B3BF2E07BCFFAD7C0080A98F05BD61C3
:20137B0000400CED248540075307DFD2048002C204BF2002806DBF2B028063BF2D0280596E
:20139B00BF42028063BF43028068BF440302156ABF4603021580BF4803021320BF490302EE
:2013BB00156ABF4A03021320BF4C028040BF4F03021571BF50030214FFBF5302805CBF54C2
:2013DB0003021320BF5503021576BF580302157BBF5A03021320021584D205021320D20799
:2013FB00021320D208021320D20A021320D20B021320300A0CE56114FE8E618E0187078041
:20141B0011E56124FEFE8E618E018705098706198D078F8212121B02158DE56124FDFE8E06
:20143B00618E01870309870509870619198B548D558E568B828D838EF0C0041217D3AD828B
:20145B00AE83D004BCFF028D0420052AC3ED95635024E563C39DF563AE638E031EEB601494
:20147B00758220C006C005C00412121BD004D005D00680E68E638C068554828555838556B1
:20149B00F01217EBFCFF60308E041EC3E464808CF063F08095F050208F82C006C005121263
:2014BB001BD005D006AA54AB55AC560ABA00010B8A548B558C5680C020050302158DC3ED1F
:2014DB009563400302158DE563C39DF563AE638E041EEC700302158B758220C00612121B34
:2014FB00D00680EBE56124FDFC8C618C01870209870309870419198A548B558C56AC56BC73
:20151B00800040047F438014BC600040047F50800BBC400040047F4980027F588F82C007A3
:20153B0012121B75823A12121B75823012121B75827812121BD007BF4902800BBF500280D0
:20155B00068555821212578554821212578023D20975620A801C756208801775620A8012D9
:20157B00756210800DD20C80098F8212121B80028E63300C5CE56124FCFE8E618E018702AF
:20159B000987030987040987061919198A548B558C568E5775544875551975568085546625
:2015BB0085556785566874012566FAE43567FCAE688A548C558E568566828567838568F0A4
:2015DB001217EBFEFF70030212D88F8212121B80CCE56270030212D8756475300A2DE56143
:2015FB0014FC8C618C01E7FA3395E0FBFCFE8A548B558C568E57200966AA547B007C007E41
:20161B00008A548B558C568E578054300B21E56124FCFE8E618E018702098703098704095F
:20163B0087061919198A548B558C568E578030E56124FEFE8E618E01870409870619EE3343
:20165B0095E0FBFA8C548E558B568A57200910AA54AB557C007E008A548B558C568E57309A
:20167B000925AA54AB55AC56E557FE30E717C3E49AFAE49BFBE49CFCE49EFE8A548B558CBE
:20169B00568E578002C209D20DA9647E00755800856282C006C00112126ED001D006200D1A
:2016BB000BE558C4FCE7FB4CF7198002A7580EB20DE55445554556455770D289648E05E5CA
:2016DB00637003756301200624200521ED04FEAC63C3EE9C5015758220C006C005C0041288
:2016FB00121BD004D005D0061C80E68C6330090E75822DC00512121BD00515638023ED6006
:20171B002030070E75822BC00512121BD0051563800F30080C758220C00512121BD00515FE
:20173B0063200522AE638E041EC3ED9C502B3006047C3080027C208C82C006C00512121B80
:20175B00D005D00680E0C3ED95635008E563C39DF563800775630080028E63A9648D068E63
:20177B00051EED6026B20D200D0A09E7C4540FFD8D5880078705740F5DF558855882C00664
:20179B00C00112123ED001D00680D42005030212D8AE638E051EED70030212D8758220C017
:1717BB000612121BD00680EB8F8212121B0212D8855982855A832271
:0B1948003C4E4F20464C4F41543E00E7
:0117D20032E4
:1817D300AA82AB831217EB6003A380F8C3E5829AF582E5839BF583223A
:0D0059007581751218E4E5826003020056FF
:1C17EB0020F71430F6148883A88220F507E6A88375830022E280F7E49322E0220D
:20180700AAF0FBE582856AF0A4FCADF0E583856AF0A42DFDE435F0FEE582856BF0A42DFD78
:20182700E5F03EFEE433FFEA856AF0A42EFEE5F03FFFE583856BF0A42EFEE5F03FFFE5823C
:20184700856CF0A42EFEE5F03FFFEB856AF0A42FFFEA856BF0A42FFFE583856CF0A42FFF6A
:0E186700E582856DF0A42F8EF08D838C822299
:011875003240
:01187600323F
:01187700323E
:01187800323D
:01187900323C
:01187A00323B
:01187B00323A
:01187C003239
:20187D00FB7A20E4FCFDFEFFE5822582F582E58333F583E5F033F5F0EB33FB4017DAE980A4
:20189D0042E5822582F582E58333F583E5F033F5F0EB33FBEC33FCED33FDEE33FEEF33FFD3
:2018BD00EC956AED956BEE956CEF956D4013EC956AFCED956BFDEE956CFEEF956DFF43828D
:0518DD0001DABEEB2260
:0118E20032D3
:0118E30032D2
:0418E40075820022E7
:0118E80032CD
:0118E90032CC
:0118EA0032CB
:00000001FF
