:04000000020059326F
:01000B0032C2
:0100130032BA
:01001B0032B2
:0100230032AA
:01002B0032A2
:01003300329A
:01003B003292
:03004300023D007B
:01004B003282
:03005300023D006B
:0300CF00020056D6
:030056000200D2D3
:2000D200C201C200E4F510F51190E680E0440AF09005DC120CBF90E680E054F7F012048A87
:2000F200D2E890E668E04408F090E65CE04401F090E65CE04402F090E65CE04420F090E6EF
:200112005CE0FF4410F0D2AF30010512087BC20190E6A1E0FF20E1031204B1E58830E5E814
:200132001203A780E375820022AF82BFB15290E6BAE0F582C00712099DAD82AE83E0FC7BC5
:2001520000C006C005C004C0037460C0E07413C0E07480C0E0120D3AE58124FBF581D00523
:20017200D006D007ED4E60188D828E83E090E740F090E68AE4F090E68B7401F07582012212
:200192007E00C007C0067469C0E07413C0E07480C0E0120D3AE58124FBF58175820022AFEE
:2001B20082C0077491C0E07413C0E07480C0E0120D3A158115811581D007EF7014AD17AEAD
:2001D20018AF198D828E838FF0E4120C8D7582012275820022AF82AD1A7E008F037C00C088
:2001F20007C005C006C003C00474A0C0E07413C0E07480C0E0120D3AE58124F9F581D0073C
:20021200EF7065E51A706190E6837402F07422F07416F07436F090E6047480F000000000E1
:2002320090E6047482F00000000090E604E4F00000000090E6917480F00000000090E6910C
:200252007480F00000000090E6047480F00000000090E6047486F00000000090E604E4F098
:20027200000000007582012275820022C0E0C082C083C0D075D008900000E02401F0A3E02F
:200292003400F0900000E0FEA3E0FFBE401ABF1F17B2033003067592B8E280047592B0E27F
:2002B200900000E4F0E4A3F0AF9174EF5FF59190E65D7402F0D0D0D083D082D0E032758272
:2002D2000122AF82BF01047F0180027F008F8222C0E0C082C083C007C0D075D000D201AFFD
:2002F2009174EF5FF59190E65D7401F0D0D0D007D083D082D0E032C022C0E0C0F0C082C0A9
:2003120083C007C006C005C004C003C002C001C000C0D075D000758200120B77AF9174EF29
:200332005FF59190E65D7410F0D0D0D000D001D002D003D004D005D006D007D083D082D0CE
:20035200F0D0E0D02232C022C0E0C0F0C082C083C007C006C005C004C003C002C001C000F4
:20037200C0D075D000758201120B77AF9174EF5FF59190E65D7420F0D0D0D000D001D00218
:15039200D003D004D005D006D007D083D082D0F0D0E0D02232F4
:20136000657020253032780A004E65656420746F20696D706C656D656E742076656E646FC9
:201380007220636F6D6D616E643A20253032780A0047657420496E746572666163650A009E
:1D13A00053657420696E7465726661636520256420746F20616C743A2025640A0039
:0213C800000023
:0B00B200E4F51BF51C751D40751E9C3D
:2003A700AF8874CF5FF58890E7C07431F090E7C17401F000000000AF1B90E68F74022FF013
:2003C700E4F51BF51C22AF82E51B24C0FDE51C34E7FE74022DFDE43EFE90E6A2E0FC20E10E
:2003E700F88D828E83EFF0051BE4B51B02051CC3E51B943EE51C940040031203A7E51B459A
:200407001C6019E58820E41474FFC3951DFE74FF951EFD8D8C7F008E8A438810222290E66D
:200427000174C0F00000000090E60B7403F00000000090E61074A0F00000000090E6117423
:20044700A0F00000000090E612E4F00000000090E613E4F00000000090E614E4F0000000EE
:200467000090E615E4F00000000090E68D74FFF090E6B57401F075A88075E80190E65C74DF
:2004870001F02290E680E04408F012042590E680E04402F0E054F7F0AF8E74F75FF58E75CF
:2004A7008901AF8874CF5FF5882290E68DE0FE7F0074012480FCE434E7FD1EBEFF011F7A4D
:2004C700007B00C3EA9EEB9F50608C828D83E0F9B961004027E92485402274E029F582C0F5
:2004E70007C006C005C004C003C0021203CDD002D003D004D005D006D00780228C828D837D
:20050700E0F582C007C006C005C004C003C0021203CDD002D003D004D005D006D0070ABA41
:1505270000010B0CBC009C0D809990E68D74FFF00000000022A1
:20053C00AD82AE83AFF074022DFDE43EFE8D828E838FF0121333FD53050F7F007E007C000C
:20055C008D828F838EF0EC22AD82AE83AFF074032DFDE43EFE8D828E838FF0121333FD53CB
:20057C0005037F007E007C008D828F838EF0EC22AD82AE83AFF074022DFDE43EFE8D828ED5
:20059C00838FF0121333FD530580E4BD800104FD3395E08D82F58322AD82AE83AFF0740227
:2005BC002DFDE43EFE8D828E838FF0121333FD530580E4BD000104FD3395E08D82F5832215
:2005DC00AD82AE83AFF074032DFDE43EFE8D828E838FF0121333FD530503E4BD020104FD4B
:2005FC003395E08D82F58322AD82AE83AFF074032DFDE43EFE8D828E838FF0121333FD5387
:20061C000503E4BD000104FD3395E08D82F58322AD82AE83AFF074032DFDE43EFE8D828E65
:20063C00838FF0121333FD530503E4BD030104FD3395E08D82F58322AD82AE83AFF074037F
:20065C002DFDE43EFE8D828E838FF0121333FD530503E4BD010104FD3395E08D82F58322F0
:20067C00AD82AE83AFF0C007C006C0051205DCE5828583F0D005D006D00745F060128D8283
:20069C008E838FF012058CE5828583F045F070047F0080027F01EF3395E08F82F58322AD93
:2006BC0082AE83AFF0C007C006C0051205DCE5828583F0D005D006D00745F060128D828E62
:2006DC00838FF01205B4E5828583F045F070047F0080027F01EF3395E08F82F58322AD8237
:2006FC00AE83AFF0C007C006C00512062CE5828583F0D005D006D00745F060128D828E83D0
:20071C008FF012058CE5828583F045F070047F0080027F01EF3395E08F82F58322AD82AEF3
:20073C0083AFF0C007C006C00512062CE5828583F0D005D006D00745F060128D828E838FAE
:20075C00F01205B4E5828583F045F070047F0080027F01EF3395E08F82F58322AD82AE8397
:20077C00AFF0C007C006C005120654E5828583F0D005D006D00745F060128D828E838FF0D9
:20079C0012058CE5828583F045F070047F0080027F01EF3395E08F82F58322AD82AE83AFC0
:2007BC00F0C007C006C005120654E5828583F0D005D006D00745F060128D828E838FF01236
:2007DC0005B4E5828583F045F070047F0080027F01EF3395E08F82F58322AD82AE83AFF07A
:2007FC0074042DFDE43EFE8D828E838FF0121333FDA31213338D82F58322AD82AE83AFF084
:20081C0074032DFDE43EFE8D828E838FF0121333FD5305307F008D828F8322AD82AE83AFAE
:20083C00F0ED4E70049000002274032DFDE43EFE8D828E838FF0121333FD53051F7F00EDB3
:1F085C004F7004900000228DF005F07D017F008006ED2DFDEF33FFD5F0F78D828F8322DC
:203E000012010002FFFFFF40030472830100010200010A060002FFFFFF40010009022000D4
:203E200001010080320904000002FFFFFF03070502020002000705860200020009022000EC
:203E400001010080320904000002FFFFFF0307050202400000070586024000000403090467
:203E60000603480069000C03540068006500720065000E0369004600720061006D0065001C
:06008800E478FFF6D8FD4C
:1200BD0075240075250075263C75273E75281C75293EB8
:20087B0090E6B9E0FF24F45003020980EF240A83F582EF241083F583E473ADC280D7808007
:20089B00EC80FC142E620808090809090809080909091209F7E582600302099590E6A0E058
:2008BB00FF4401F0020995120A80E582600302099590E6A0E0FF4401F0020995120AEFE589
:2008DB0082600302099590E6A0E0FF4401F0020995120137E5826003020995120BA2020930
:2008FB00951202D0AF8290E740EFF090E68AE4F090E68B7401F002099590E6BAE0F582122A
:20091B0002D4E582600302099590E6A0E0FF4401F0806790E6BCE0FF751723751800751990
:20093B00408F821201B1E582700A90E6A0E0FF4401F0804690E740E523F090E68AE4F090A3
:20095B00E68B7401F0803390E6BCE0FF90E6BAE0F51A8F821201E7E582701F90E6A0E0FFCD
:20097B004401F0801590E6B9E0F58212013BE582700890E6A0E0FF4401F090E6A0E04480FB
:20099B00F022AF828F0653067FEE24F750030209F3EE240A83F582EE240D83F583E473CCDF
:2009BB00D0E3F3E7F3EBF3EF09090909090909090990E6A022EF30E7067EA27FE680047EB3
:2009DB00A17FE68E828F832290E6A32290E6A42290E6A52290E6A6229000002290E6B8E000
:2009FB00FFBF8002801FBF81028005BF826F803490E740E4F090E741F090E68AF090E68BAE
:200A1B007402F0805CE52525E0FFE524420790E740EFF090E741E4F090E68AF090E68B7492
:200A3B0002F0803D90E6BCE0F58212099DAE82AF83EE4F7003F582228E828F83E0FE30E0F0
:200A5B00047F0180027F0090E740EFF090E741E4F090E68AF090E68B7402F0800475820002
:200A7B00227582012290E6B8E0FF6005BF0258801B90E6BAE0FFBF0105752500805290E643
:200A9B00BAE0FFBF060280487582002290E6BAE0703190E6BCE0F58212099DAE82AF83E0C6
:200ABB00FD5305FE8E828F83EDF090E6BCE0FF30E70343071053071F90E683EFF074204F10
:200ADB00F0800D7582002290E6B9E0F58202013B7582012290E6B8E0FF6008BF02028029A6
:200AFB00020B6A90E6BAE0FFBF0203020B7390E6BAE0FFBF0105752501805D90E6BAE0FFB6
:200B1B00BF060280537582002290E6BAE0703C90E6BCE0F58212099DAE82AF83EE4F7003F8
:200B3B00F582228E828F83E0FD4305018E828F83EDF090E6BCE0FF30E70343071053071FBC
:200B5B0090E683EFF074204FF0800D7582002290E6B9E0F58202013B75820122D310AF01B8
:200B7B00C3C0D0E582FF600E75261C75273E75283C75293E800C75263C75273E75281C7582
:200B9B00293ED0D092AF2290E6B57401F090E6BBE0FFBF01028019BF02028029BF03028025
:200BBB0033BF0603020C61BF0703020C76020C857E007F3E8F0690E6B3EEF07E007F3E902E
:200BDB00E6B4EEF022AF2790E6B3EFF0AE2690E6B4EEF0227E5C7D3E7F8090E6BAE0F545A6
:200BFB007B008B020BEAB5450280428E008D018F028E828D838FF012133328F8E439F988BD
:200C1B000689058A0774012EF9E43DFA8F0489828A838CF0121333F9B9030280067E007D26
:200C3B00007F00EE4D6006C3E5459B50B5EE4D600D8D0790E6B3EFF090E6B4EEF02290E608
:200C5B00A0E04401F0227E127F3E8F0690E6B3EEF07E127F3E90E6B4EEF022AF2990E6B341
:120C7B00EFF0AE2890E6B4EEF02290E6A0E04401F0223B
:200066007902E94400601B7A019013C87800759200E493F2A308B800020592D9F4DAF2757F
:0200860092FFE7
:1B0C8D0020F71130F6138883A88220F509F6A8837583002280FEF280F5F02266
:203D00000202E20002027E000213530002135800020309000203580002135000020CB300D5
:203D2000020CB500020CB600020CB700020CBA0002135E0002135F00020CA800020CAA001A
:203D400002135500020CB30002134F000213510002135200021354000213560002135700C7
:203D600002131A00020CB300020CB300020CB300020CB400020CB800020CBB00020CBD00B5
:203D8000020CB900020CBC00020CBE00020D1500020CAB00020CAD00020CAF00020CB100B2
:183DA000020CAC00020CAE00020CB000020CB200020CA90002135D00EE
:010CA8003219
:010CA9003218
:010CAA003217
:010CAB003216
:010CAC003215
:20008E007800E84400600A7900759200E4F309D8FC7800E84400600C7900900000E4F0A380
:0400AE00D8FCD9FAA7
:010CAD003214
:010CAE003213
:010CAF003212
:010CB0003211
:010CB1003210
:010CB200320F
:010CB300320E
:010CB400320D
:010CB500320C
:010CB600320B
:010CB700320A
:010CB8003209
:010CB9003208
:010CBA003207
:010CBB003206
:010CBC003205
:010CBD003204
:010CBE003203
:200CBF00AE82AF8390E600E05418C423541FFDB40100E433FD60067CB17D00801C90E600AF
:200CDF00E05418C423541FFBBB01067A617B0180047AC27B028A048B058C458D461545746E
:160CFF00FFB545021546E545454670F11EBEFF011FEE4F70E422C5
:010D150032AB
:200D1600C0448581441203CDD0442285823985833A85F03BE4F536F537F538851F3C900D40
:200D360016020E0CC044858144E54424FBFF8F3CE4F536F537F538E54424FBF88639088616
:0D0D56003A08863B900D16120E0CD0442278
:200D6300AF82C02CC02DC02E120D708007C02AC02B8F82221581158115810534E4B5340290
:200D8300053522AF8274302FFF24C6500A74072FFF3004034307208F82020D63E582FFC4B6
:200DA300540FF582C007120D86D007740F5FF582020D86858245852F468530478531488560
:200DC3003249AA33754A20EA2AFAE549235401FF8A064EFAE5462546F546E54733F547E5FD
:200DE3004833F548E54933F549C3EA95454008EAC39545FA434601D54ACD85462F854730DD
:200E03008548318549328A332285822A85832B85362C85372D85382EE4F534F535AD39AE08
:200E23003AAF3B8D828E838FF0121333FC74012DF539E43EF53A8F3BECFF7003021313BF68
:200E43002502800302130BC205C206C207C208C209C20AC20BC20C753D00753E007CFFAAE7
:200E630039AB3AAE3B8A828B838EF0121333FFA3AA82AB838A398B3A8E3BBF25078F82121D
:200E83000D6380998F4074D025405026E54024C64020BCFF12E53E75F00AA4FD2F24D0F551
:200EA3003E70C2D20680BEEC75F00AA42F24D0FC80B3BF2E07BCFFAD7C0080A98F05BD61A5
:200EC30000400CED248540075307DFD2048002C204BF2002806DBF2B028063BF2D0280592B
:200EE300BF42028063BF43028068BF44030210B2BF46030210C8BF4803020E68BF490302E2
:200F030010B2BF4A03020E68BF4C028040BF4F030210B9BF5003021047BF5302805CBF5471
:200F230003020E68BF55030210BEBF58030210C3BF5A03020E680210CCD205020E68D207C3
:200F4300020E68D208020E68D20A020E68D20B020E68300A0CE53C14FE8E3C8E018707803B
:200F630011E53C24FEFE8E3C8E018705098706198D078F82120D630210D5E53C24FDFE8EAC
:200F83003C8E01870309870509870619198B2F8D308E318B828D838EF0C00412131BAD8298
:200FA300AE83D004BCFF028D0420052AC3ED953E5024E53EC39DF53EAE3E8E031EEB6014E5
:200FC300758220C006C005C004120D63D004D005D00680E68E3E8C06852F828530838531BF
:200FE300F0121333FCFF60308E041EC3E464808CF063F08095F050208F82C006C005120DE1
:2010030063D005D006AA2FAB30AC310ABA00010B8A2F8B308C3180C02005030210D5C3ED2E
:20102300953E40030210D5E53EC39DF53EAE3E8E041EEC70030210D3758220C006120D63BB
:20104300D00680EBE53C24FDFC8C3C8C01870209870309870419198A2F8B308C31AC31BC0D
:20106300800040047F438014BC600040047F50800BBC400040047F4980027F588F82C00760
:20108300120D6375823A120D63758230120D63758278120D63D007BF4902800BBF50028081
:2010A30006853082120D9F852F82120D9F8023D209753D0A801C753D088017753D0A8012C9
:2010C300753D10800DD20C80098F82120D6380028E3E300C5CE53C24FCFE8E3C8E018702BD
:2010E3000987030987040987061919198A2F8B308C318E32752FBD753013753180852F41C0
:2011030085304285314374012541FAE43542FCAE438A2F8C308E318541828542838543F041
:20112300121333FEFF7003020E208F82120D6380CCE53D7003020E20753F50300A2DE53C84
:2011430014FC8C3C8C01E7FA3395E0FBFCFE8A2F8B308C318E32200966AA2F7B007C007EDB
:20116300008A2F8B308C318E328054300B21E53C24FCFE8E3C8E01870209870309870409FA
:2011830087061919198A2F8B308C318E328030E53C24FEFE8E3C8E01870409870619EE33DE
:2011A30095E0FBFA8C2F8E308B318A32200910AA2FAB307C007E008A2F8B308C318E3230C9
:2011C3000925AA2FAB30AC31E532FE30E717C3E49AFAE49BFBE49CFCE49EFE8A2F8B308C59
:2011E300318E328002C209D20DA93F7E00753300853D82C006C001120DB6D001D006200D4D
:201203000BE533C4FCE7FB4CF7198002A7330EB20DE52F45304531453270D2893F8E05E589
:201223003E7003753E01200624200521ED04FEAC3EC3EE9C5015758220C006C005C00412B3
:201243000D63D004D005D0061C80E68C3E30090E75822DC005120D63D005153E8023ED6086
:201263002030070E75822BC005120D63D005153E800F30080C758220C005120D63D005155A
:201283003E200522AE3E8E041EC3ED9C502B3006047C3080027C208C82C006C005120D6344
:2012A300D005D00680E0C3ED953E5008E53EC39DF53E8007753E0080028E3EA93F8D068EFE
:2012C300051EED6026B20D200D0A09E7C4540FFD8D3380078705740F5DF533853382C00690
:2012E300C001120D86D001D00680D4200503020E20AE3E8E051EED7003020E20758220C02E
:1713030006120D63D00680EB8F82120D63020E2085348285358322AD
:0B13BD003C4E4F20464C4F41543E0078
:01131A0032A0
:18131B00AA82AB831213336003A380F8C3E5829AF582E5839BF58322B2
:0D005900758150121359E5826003020056B4
:1C13330020F71430F6148883A88220F507E6A88375830022E280F7E49322E022C9
:01134F00326B
:01135000326A
:011351003269
:011352003268
:011353003267
:011354003266
:011355003265
:011356003264
:011357003263
:011358003262
:041359007582002277
:01135D00325D
:01135E00325C
:01135F00325B
:00000001FF
