:04000000020059326F
:01000B0032C2
:0100130032BA
:03001B000203E3FA
:0100230032AA
:01002B0032A2
:01003300329A
:01003B003292
:03004300023D007B
:01004B003282
:03005300023D006B
:0300B200752A00AC
:0300D500020056D0
:030056000200D8CD
:2000D800C201C200E4F523F52490E680E0440AF09005DC12128D90E680E054F7F01205A16F
:2000F800120BA2120B74D2AB756A007582B0120C8390E100E4F5F01211A2D2E890E668E07D
:200118004408F090E65CE04401F090E65CE04402F090E65CE04420F090E65CE0FF4410F0C1
:20013800D2AFE545B546028015E5462435F98782120C060546E54624EF50037546003001F8
:2001580005120D5EC20190E6A1E0FF20E1031205C8E58830E5CC1204AC80C775820022AF4A
:2001780082BFB15290E6BAE0F582C007120E80AD82AE83E0FC7B00C006C005C004C00374F8
:2001980001C0E0741AC0E07480C0E0121308E58124FBF581D005D006D007ED4E60188D8278
:2001B8008E83E090E740F090E68AE4F090E68B7401F0758201227E00C007C006740AC0E012
:2001D800741AC0E07480C0E0121308E58124FBF58175820022AF82C0077432C0E0741AC078
:2001F800E07480C0E0121308158115811581D007EF7014AD31AE32AF338D828E838FF0E417
:200218001211707582012275820022AF82AD347E008F037C00C007C005C006C003C0047415
:2002380041C0E0741AC0E07480C0E0121308E58124F9F581D007EF7065E534706190E6835F
:200258007402F07422F07416F07436F090E6047480F00000000090E6047482F000000000C8
:2002780090E604E4F00000000090E6917480F00000000090E6917480F00000000090E604C8
:200298007480F00000000090E6047486F00000000090E604E4F0000000007582012275829F
:2002B8000022C0E0C082C083C0D075D008900000E02401F0A3E03400F0900000E0FEA3E0E5
:2002D800FFBE401ABF1F17B2033003067592B8E280047592B0E2900000E4F0E4A3F0AF9133
:2002F80074EF5FF59190E65D7402F0D0D0D083D082D0E03275820122AF82BF01047F01802F
:20031800027F008F8222C0E0C082C083C007C0D075D000D201AF9174EF5FF59190E65D74AE
:2003380001F0D0D0D007D083D082D0E032C022C0E0C0F0C082C083C007C006C005C004C029
:2003580003C002C001C000C0D075D00075820012105AAF9174EF5FF59190E65D7410F0D058
:20037800D0D000D001D002D003D004D005D006D007D083D082D0F0D0E0D02232C022C0E03E
:20039800C0F0C082C083C007C006C005C004C003C002C001C000C0D075D000758201121005
:2003B8005AAF9174EF5FF59190E65D7420F0D0D0D000D001D002D003D004D005D006D007B0
:2003D800D083D082D0F0D0E0D02232C022C0E0C0F0C082C083C007C006C005C004C003C07C
:2003F80002C001C000C0D075D0007401B54929154AE54A7023E54C30E005120C7280031265
:200418000C79E54DC313C54C13C54CF54D754A03154BE54B7002F549E547705BE52A601C3C
:20043800D52C54E4F52AF548E5452435F8A62E054574F025455040754500803BE548701BEB
:20045800120C56E582F52F20E02D754801752E00752C01752D08752B01801CD52C19120C36
:2004780056E582F5306004E52B422EE52B252BF52BD52D03752A01D0D0D000D001D002D096
:1404980003D004D005D006D007D083D082D0F0D0E0D02232BE
:201A0100657020253032780A004E65656420746F20696D706C656D656E742076656E646F21
:201A21007220636F6D6D616E643A20253032780A0047657420496E746572666163650A00F6
:1D1A410053657420696E7465726661636520256420746F20616C743A2025640A0091
:021A690000007B
:0B00B500E4F510F51175124075139C66
:2004AC00AF8874CF5FF58890E7C07431F090E7C17401F000000000AF1090E68F74022FF018
:2004CC00E4F510F51122AF82E51024C0FDE51134E7FE74022DFDE43EFE90E6A2E0FC20E134
:2004EC00F88D828E83EFF00510E4B510020511C3E510943EE511940040031204ACE51045D0
:20050C00116019E58820E41474FFC39512FE74FF9513FD8D8C7F008E8A438810222290E688
:20052C00007410F00000000090E60174C0F00000000090E60B7403F00000000090E61074BE
:20054C00A0F00000000090E61174A0F00000000090E612E4F00000000090E613E4F00000BB
:20056C00000090E614E4F00000000090E615E4F00000000090E68D74FFF090E6B57401F0BC
:20058C0075A88075E80190E65C7401F090E670E4F075B2012290E680E04408F012052A9036
:2005AC00E680E04402F0E054F7F0AF8E74F75FF58E438901AF8874CF5FF5882290E68DE0E6
:2005CC00FE7F0074012480FCE434E7FD1EBEFF011F7A007B00C3EA9EEB9F50608C828D83EE
:2005EC00E0F9B961004027E92485402274E029F582C007C006C005C004C003C0021204D22A
:20060C00D002D003D004D005D006D00780228C828D83E0F582C007C006C005C004C003C023
:20062C00021204D2D002D003D004D005D006D0070ABA00010B0CBC009C0D809990E68D74F8
:15064C00FFF0000000002275B20100000000B28000000000220C
:20066100AD82AE83AFF074022DFDE43EFE8D828E838FF0121901FD53050F7F007E007C0012
:200681008D828F838EF0EC22AD82AE83AFF074032DFDE43EFE8D828E838FF0121901FD53D1
:2006A10005037F007E007C008D828F838EF0EC22AD82AE83AFF074022DFDE43EFE8D828EAF
:2006C100838FF0121901FD530580E4BD800104FD3395E08D82F58322AD82AE83AFF074022D
:2006E1002DFDE43EFE8D828E838FF0121901FD530580E4BD000104FD3395E08D82F583221B
:20070100AD82AE83AFF074032DFDE43EFE8D828E838FF0121901FD530503E4BD020104FD50
:200721003395E08D82F58322AD82AE83AFF074032DFDE43EFE8D828E838FF0121901FD538C
:200741000503E4BD000104FD3395E08D82F58322AD82AE83AFF074032DFDE43EFE8D828E3F
:20076100838FF0121901FD530503E4BD030104FD3395E08D82F58322AD82AE83AFF0740385
:200781002DFDE43EFE8D828E838FF0121901FD530503E4BD010104FD3395E08D82F58322F6
:2007A100AD82AE83AFF0C007C006C005120701E5828583F0D005D006D00745F060128D8236
:2007C1008E838FF01206B1E5828583F045F070047F0080027F01EF3395E08F82F58322AD47
:2007E10082AE83AFF0C007C006C005120701E5828583F0D005D006D00745F060128D828E15
:20080100838FF01206D9E5828583F045F070047F0080027F01EF3395E08F82F58322AD82EA
:20082100AE83AFF0C007C006C005120751E5828583F0D005D006D00745F060128D828E8383
:200841008FF01206B1E5828583F045F070047F0080027F01EF3395E08F82F58322AD82AEA7
:2008610083AFF0C007C006C005120751E5828583F0D005D006D00745F060128D828E838F62
:20088100F01206D9E5828583F045F070047F0080027F01EF3395E08F82F58322AD82AE834B
:2008A100AFF0C007C006C005120779E5828583F0D005D006D00745F060128D828E838FF08D
:2008C1001206B1E5828583F045F070047F0080027F01EF3395E08F82F58322AD82AE83AF74
:2008E100F0C007C006C005120779E5828583F0D005D006D00745F060128D828E838FF012EA
:2009010006D9E5828583F045F070047F0080027F01EF3395E08F82F58322AD82AE83AFF02D
:2009210074042DFDE43EFE8D828E838FF0121901FDA31219018D82F58322AD82AE83AFF0B5
:2009410074032DFDE43EFE8D828E838FF0121901FD5305307F008D828F8322AD82AE83AFB4
:20096100F0ED4E70049000002274032DFDE43EFE8D828E838FF0121901FD53051F7F00EDB9
:1F0981004F7004900000228DF005F07D017F008006ED2DFDEF33FFD5F0F78D828F8322B6
:203E000012010002FFFFFF40030472830100010200010A060002FFFFFF40010009022000D4
:203E200001010080320904000002FFFFFF03070501020002000705810200020009022000F2
:203E400001010080320904000002FFFFFF0307050202400000070586024000000403090467
:203E60000603480069000C03540068006500720065000E0369004600720061006D0065001C
:0300C000751400B4
:2009A000AC82AD83AEF0FFE4B56A0280117401B56A03020A457402B56A03020ACC22BC6010
:2009C0000CBD0909BE0006BF0003020A3DBCC00BBD1208BE0005BF0002805DBC800BBD2585
:2009E00008BE0005BF0002804ABC000BBD4B08BE0005BF00028037BC800BBD7008BE000550
:200A0000BF00028024BC000BBD9608BE0005BF00028011BC002CBDE129BE0026BF00237550
:200A200014FD80217514FB801C7514F980177514F680127514EC800D7514D980087514B293
:200A40008003751400BC600CBD0909BE0006BF0003020AC4BCC00BBD1208BE0005BF00025B
:200A6000805DBC800BBD2508BE0005BF0002804ABC000BBD4B08BE0005BF00028037BC80CC
:200A80000BBD7008BE0005BF00028024BC000BBD9608BE0005BF00028011BC002CBDE12908
:200AA000BE0026BF00237514F980217514F6801C7514F380177514EC80127514D9800D75B4
:200AC00014B280087514648003751400BC600CBD0909BE0006BF0003020B45BCC00BBD12AA
:200AE00008BE0005BF00028058BC800BBD2508BE0005BF00028046BC000BBD4B08BE00057D
:200B0000BF00028034BC800BBD7008BE0005BF00028022BC000BBD9608BE0005BF00028098
:200B200010BC0025BDE122BE001FBF001C7514F3227514EC227514E6227514D9227514B2C7
:200B400022751464227514002275140022D310AF01C3C0D043892000000000C28E000000EC
:1B0B60000085148D00000000758B2300000000D0D092AF22D28E0000000022AC
:200B7B0043B202AFB274FB5FF5B22243892000000000C28E00000000758D77000000007541
:200B9B008B770000000022754900754800754700120C72120B7B120B86020BB82275470071
:200BBB002275470122E545B5460475823022E5462435F98707054674F02546500375460074
:200BDB008F8222E546B5450474018001E4FFB40100E433F58222754500754600227401B59F
:200BFB0049047F0180027F008F8222AF827401B5490280F9754A03754B0AEF3395E0CF25A3
:200C1B00E0CF33FE8F4C74024EF54D75490122AD82AE83AFF08D828E838FF0121901FC60F1
:200C3B00188C820DBD00010EC007C006C005120C06D005D006D00780DC2222000000000002
:200C5B00000000AF800000000000000000EFC313FF5307018F8222D280000000002275B25D
:080C7B0001C28000000000220C
:200C8300AF82BF80028014BF90028018BFA002801CBFB0028020BFB1318027E56A42B200C9
:200CA30000000022E56A42B30000000022E56A42B40000000022E56A42B575B501000000D1
:200CC3000022E56A42B60000000022AF82BF80028014BF90028018BFA002801CBFB00280A9
:200CE30020BFB12E8024E56A42800000000022E56A42900000000022E56A42A000000000E8
:200D030022E56A42B00000000022E56A42B10000000022AF82BF80028014BF90028018BF39
:200D2300A002801CBFB0028020BFB12E8024E56A62800000000022E56A6290000000002269
:1B0D4300E56A62A00000000022E56A62B00000000022E56A62B100000000221B
:06008800E478FFF6D8FD4C
:1200C30075160075170075183C75193E751A1C751B3E06
:200D5E0090E6B9E0FF24F45003020E63EF240A83F582EF241083F583E47390A563BA6363E5
:200D7E00CF63DFF711450D0D0E0D0E0E0D0E0D0D0E0E120EDAE5826003020E7890E6A0E013
:200D9E00FF4401F0020E78120F63E5826003020E7890E6A0E0FF4401F0020E78120FD2E519
:200DBE00826003020E7890E6A0E0FF4401F0020E78120173E5826003020E78121085020E67
:200DDE007812030CAF8290E740EFF090E68AE4F090E68B7401F0020E7890E6BAE0F582123A
:200DFE000310E5826003020E7890E6A0E0FF4401F0806790E6BCE0FF753115753200753344
:200E1E00408F821201EDE582700A90E6A0E0FF4401F0804690E740E515F090E68AE4F0908D
:200E3E00E68B7401F0803390E6BCE0FF90E6BAE0F5348F82120223E582701F90E6A0E0FF8E
:200E5E004401F0801590E6B9E0F582120177E582700890E6A0E0FF4401F090E6A0E04480D7
:200E7E00F022AF828F0653067FEE24F75003020ED6EE240A83F582EE240D83F583E473AF2C
:200E9E00B3C6D6CAD6CED6D20E0E0E0E0E0E0E0E0E90E6A022EF30E7067EA27FE680047E86
:200EBE00A17FE68E828F832290E6A32290E6A42290E6A52290E6A6229000002290E6B8E018
:200EDE00FFBF8002801FBF81028005BF826F803490E740E4F090E741F090E68AF090E68BC6
:200EFE007402F0805CE51725E0FFE516420790E740EFF090E741E4F090E68AF090E68B74C7
:200F1E0002F0803D90E6BCE0F582120E80AE82AF83EE4F7003F582228E828F83E0FE30E020
:200F3E00047F0180027F0090E740EFF090E741E4F090E68AF090E68B7402F080047582001A
:200F5E00227582012290E6B8E0FF6005BF0258801B90E6BAE0FFBF0105751700805290E669
:200F7E00BAE0FFBF060280487582002290E6BAE0703190E6BCE0F582120E80AE82AF83E0F6
:200F9E00FD5305FE8E828F83EDF090E6BCE0FF30E70343071053071F90E683EFF074204F28
:200FBE00F0800D7582002290E6B9E0F5820201777582012290E6B8E0FF6008BF0202802982
:200FDE0002104D90E6BAE0FFBF020302105690E6BAE0FFBF0105751701805D90E6BAE0FF0C
:200FFE00BF060280537582002290E6BAE0703C90E6BCE0F582120E80AE82AF83EE4F700329
:20101E00F582228E828F83E0FD4305018E828F83EDF090E6BCE0FF30E70343071053071FD4
:20103E0090E683EFF074204FF0800D7582002290E6B9E0F58202017775820122D310AF0194
:20105E00C3C0D0E582FF600E75181C75193E751A3C751B3E800C75183C75193E751A1C75FC
:20107E001B3ED0D092AF2290E6B57401F090E6BBE0FFBF01028019BF02028029BF0302804B
:20109E0033BF0603021144BF07030211590211687E007F3E8F0690E6B3EEF07E007F3E908E
:2010BE00E6B4EEF022AF1990E6B3EFF0AE1890E6B4EEF0227E5C7D3E7F8090E6BAE0F56AB5
:2010DE007B008B020BEAB56A0280428E008D018F028E828D838FF012190128F8E439F988DC
:2010FE000689058A0774012EF9E43DFA8F0489828A838CF0121901F9B9030280067E007D6B
:20111E00007F00EE4D6006C3E56A9B50B5EE4D600D8D0790E6B3EFF090E6B4EEF02290E6FB
:20113E00A0E04401F0227E127F3E8F0690E6B3EEF07E127F3E90E6B4EEF022AF1B90E6B367
:12115E00EFF0AE1A90E6B4EEF02290E6A0E04401F02261
:200066007902E94400601B7A01901A697800759200E493F2A308B800020592D9F4DAF275D7
:0200860092FFE7
:1B11700020F71130F6138883A88220F509F6A8837583002280FEF280F5F0227E
:203D000002031E000202BA0002198F000219F900020345000203940002198C0002119600D1
:203D2000021198000211990002119A0002119D000219FF00021A000002118B0002118D005B
:203D4000021991000211960002198B0002198D0002198E0002199000021992000219F800AC
:203D60000218E8000211960002119600021196000211970002119B0002119E000211A0008A
:203D800002119C0002119F000211A1000212E30002118E0002119000021192000211940087
:183DA00002118F0002119100021193000211950002118C000219FE00BF
:01118B003231
:01118C003230
:01118D00322F
:01118E00322E
:01118F00322D
:20008E007800E84400600A7900759200E4F309D8FC7800E84400600C7900900000E4F0A380
:0400AE00D8FCD9FAA7
:01119000322C
:01119100322B
:01119200322A
:011193003229
:011194003228
:011195003227
:011196003226
:011197003225
:011198003224
:011199003223
:01119A003222
:01119B003221
:01119C003220
:01119D00321F
:01119E00321E
:01119F00321D
:0111A000321C
:0111A100321B
:2011A200D310AF01C3C0D085821C85831D85F01EF51F90E600E05418C423541FFBB401008C
:2011C200E433FB60047B01801690E600E05418C423541FFABA01047A0280027A048A03D2D5
:2011E200CDD2CC8B6A756B00756C00756D009071B075F00BE4C00312191D851C6A851D6BC2
:20120200851E6C851F6D121993A882A983AAF0FFD00308B8000909B900050ABA00010FEFD9
:20122200C313EA13FAE913F9E813F874FFC398F874FF99FF8FCB7900EB60027401FFEF287B
:20124200F5CAD2CAC29FD29EC29DD29C438780D299D0D092AF223098FD859982C29822AF4B
:201262008210990280FB8F9922AF82BF0A0A75820DC007121261D0078F82C007121261D022
:0B12820007BF0D0675820A02126122F0
:20128D00AE82AF8390E600E05418C423541FFDB40100E433FD60067CB17D00801C90E600DB
:2012AD00E05418C423541FFBBB01067A617B0180047AC27B028A048B058C6A8D6B156A742B
:1612CD00FFB56A02156BE56A456B70F11EBEFF011FEE4F70E4225D
:0112E30032D8
:2012E400C06985816912126BD0692285825E85835F85F060E4F55BF55CF55D854E6190121A
:20130400E40213DAC069858169E56924FBFF8F61E4F55BF55CF55DE56924FBF8865E088654
:0D1324005F0886609012E41213DAD069228F
:20133100AF82C051C052C05312133E8007C04FC0508F82221581158115810559E4B55902E5
:20135100055A22AF8274302FFF24C6500A74072FFF3004034307208F82021331E582FFC4E9
:20137100540FF582C007121354D007740F5FF58202135485826A85546B85556C85566D85E1
:20139100576EAA58756F20EA2AFAE56E235401FF8A064EFAE56B256BF56BE56C33F56CE5B7
:2013B1006D33F56DE56E33F56EC3EA956A4008EAC3956AFA436B01D56FCD856B54856C554D
:2013D100856D56856E578A582285824F858350855B51855C52855D53E4F559F55AAD5EAEE5
:2013F1005FAF608D828E838FF0121901FC74012DF55EE43EF55F8F60ECFF70030218E1BF35
:20141100250280030218D9C205C206C207C208C209C20AC20BC20C7562007563007CFFAAF6
:201431005EAB5FAE608A828B838EF0121901FFA3AA82AB838A5E8B5F8E60BF25078F821297
:20145100133180998F6574D025655026E56524C64020BCFF12E56375F00AA4FD2F24D0F515
:201471006370C2D20680BEEC75F00AA42F24D0FC80B3BF2E07BCFFAD7C0080A98F05BD61AC
:2014910000400CED248540075307DFD2048002C204BF2002806DBF2B028063BF2D02805957
:2014B100BF42028063BF43028068BF4403021680BF4603021696BF4803021436BF49030292
:2014D1001680BF4A03021436BF4C028040BF4F03021687BF5003021615BF5302805CBF544E
:2014F10003021436BF550302168CBF5803021691BF5A0302143602169AD205021436D207F8
:20151100021436D208021436D20A021436D20B021436300A0CE56114FE8E618E01870780CD
:2015310011E56124FEFE8E618E018705098706198D078F821213310216A3E56124FDFE8EC1
:20155100618E01870309870509870619198B548D558E568B828D838EF0C0041218E9AD825D
:20157100AE83D004BCFF028D0420052AC3ED95635024E563C39DF563AE638E031EEB60147D
:20159100758220C006C005C004121331D004D005D00680E68E638C06855482855583855683
:2015B100F0121901FCFF60308E041EC3E464808CF063F08095F050208F82C006C005121333
:2015D10031D005D006AA54AB55AC560ABA00010B8A548B558C5680C02005030216A3C3EDDB
:2015F100956340030216A3E563C39DF563AE638E041EEC70030216A1758220C006121331D8
:20161100D00680EBE56124FDFC8C618C01870209870309870419198A548B558C56AC56BC5B
:20163100800040047F438014BC600040047F50800BBC400040047F4980027F588F82C0078C
:2016510012133175823A121331758230121331758278121331D007BF4902800BBF5002805D
:201671000685558212136D85548212136D8023D20975620A801C756208801775620A801294
:20169100756210800DD20C80098F8212133180028E63300C5CE56124FCFE8E618E01870281
:2016B1000987030987040987061919198A548B558C568E5775545E75551A755680855466F7
:2016D10085556785566874012566FAE43567FCAE688A548C558E568566828567838568F08D
:2016F100121901FEFF70030213EE8F8212133180CCE56270030213EE756475300A2DE561CF
:2017110014FC8C618C01E7FA3395E0FBFCFE8A548B558C568E57200966AA547B007C007E29
:20173100008A548B558C568E578054300B21E56124FCFE8E618E0187020987030987040948
:2017510087061919198A548B558C568E578030E56124FEFE8E618E01870409870619EE332C
:2017710095E0FBFA8C548E558B568A57200910AA54AB557C007E008A548B558C568E573083
:201791000925AA54AB55AC56E557FE30E717C3E49AFAE49BFBE49CFCE49EFE8A548B558CA7
:2017B100568E578002C209D20DA9647E00755800856282C006C001121384D001D006200DEC
:2017D1000BE558C4FCE7FB4CF7198002A7580EB20DE55445554556455770D289648E05E5B3
:2017F100637003756301200624200521ED04FEAC63C3EE9C5015758220C006C005C0041271
:201811001331D004D005D0061C80E68C6330090E75822DC005121331D00515638023ED60C0
:201831002030070E75822BC005121331D0051563800F30080C758220C005121331D00515B9
:2018510063200522AE638E041EC3ED9C502B3006047C3080027C208C82C006C00512133152
:20187100D005D00680E0C3ED95635008E563C39DF563800775630080028E63A9648D068E4C
:20189100051EED6026B20D200D0A09E7C4540FFD8D5880078705740F5DF558855882C0064D
:2018B100C001121354D001D00680D42005030213EEAE638E051EED70030213EE758220C0BB
:1718D10006121331D00680EB8F821213310213EE855982855A832215
:0B1A5E003C4E4F20464C4F41543E00D0
:0118E80032CD
:1818E900AA82AB831219016003A380F8C3E5829AF582E5839BF583220B
:0D0059007581751219FAE5826003020056E8
:1C19010020F71430F6148883A88220F507E6A88375830022E280F7E49322E022F5
:20191D00AAF0FBE582856AF0A4FCADF0E583856AF0A42DFDE435F0FEE582856BF0A42DFD61
:20193D00E5F03EFEE433FFEA856AF0A42EFEE5F03FFFE583856BF0A42EFEE5F03FFFE58225
:20195D00856CF0A42EFEE5F03FFFEB856AF0A42FFFEA856BF0A42FFFE583856CF0A42FFF53
:0E197D00E582856DF0A42F8EF08D838C822282
:01198B003229
:01198C003228
:01198D003227
:01198E003226
:01198F003225
:011990003224
:011991003223
:011992003222
:20199300FB7A20E4FCFDFEFFE5822582F582E58333F583E5F033F5F0EB33FB4017DAE9808D
:2019B30042E5822582F582E58333F583E5F033F5F0EB33FBEC33FCED33FDEE33FEEF33FFBC
:2019D300EC956AED956BEE956CEF956D4013EC956AFCED956BFDEE956CFEEF956DFF438276
:0519F30001DABEEB2249
:0119F80032BC
:0119F90032BB
:0419FA0075820022D0
:0119FE0032B6
:0119FF0032B5
:011A000032B3
:00000001FF
