:04000000020059326F
:01000B0032C2
:0100130032BA
:03001B000203B528
:0100230032AA
:01002B0032A2
:01003300329A
:01003B003292
:03004300023D007B
:01004B003282
:03005300023D006B
:0300D200020056D3
:030056000200D5D0
:2000D500C201C200E4F510F51190E680E0440AF09005DC120FE090E680E054F7F01204D713
:2000F500120A83120AAAD2AB90E100E4F5F0120EF5D2E890E668E04408F090E65CE044010F
:20011500F090E65CE04402F090E65CE04420F090E65CE0FF4410F0D2AF300105120AB1C2B1
:200135000190E6A1E0FF20E103120589E58880E975820022AF82BFB15290E6BAE0F582C0E6
:2001550007120BD3AD82AE83E0FC7B00C006C005C004C0037454C0E07417C0E07480C0E0A3
:2001750012105BE58124FBF581D005D006D007ED4E60188D828E83E090E740F090E68AE432
:20019500F090E68B7401F0758201227E00C007C006745DC0E07417C0E07480C0E012105B22
:2001B500E58124FBF58175820022AF82C0077485C0E07417C0E07480C0E012105B1581159E
:2001D500811581D007EF7014AD17AE18AF198D828E838FF0E4120EC37582012275820022BE
:2001F500AF82AD1A7E008F037C00C007C005C006C003C0047494C0E07417C0E07480C0E026
:2002150012105BE58124F9F581D007EF7065E51A706190E6837402F07422F07416F07436DF
:20023500F090E6047480F00000000090E6047482F00000000090E604E4F00000000090E637
:20025500917480F00000000090E6917480F00000000090E6047480F00000000090E60474DD
:2002750086F00000000090E604E4F0000000007582012275820022C0E0C082C083C0D07548
:20029500D008900000E02401F0A3E03400F0900000E0FEA3E0FFBE401ABF1F17B203300360
:2002B500067592B8E280047592B0E2900000E4F0E4A3F0AF9174EF5FF59190E65D7402F0C9
:2002D500D0D0D083D082D0E03275820122AF82BF01047F0180027F008F8222C0E0C082C07D
:2002F50083C007C0D075D000D201AF9174EF5FF59190E65D7401F0D0D0D007D083D082D04B
:20031500E032C022C0E0C0F0C082C083C007C006C005C004C003C002C001C000C0D075D00E
:2003350000758200120DADAF9174EF5FF59190E65D7410F0D0D0D000D001D002D003D0045C
:20035500D005D006D007D083D082D0F0D0E0D02232C022C0E0C0F0C082C083C007C006C0C9
:2003750005C004C003C002C001C000C0D075D000758201120DADAF9174EF5FF59190E65DA5
:200395007420F0D0D0D000D001D002D003D004D005D006D007D083D082D0F0D0E0D022324F
:2003B500C022C0E0C0F0C082C083C007C006C005C004C003C002C001C000C0D075D000126E
:1F03D5000589D0D0D000D001D002D003D004D005D006D007D083D082D0F0D0E0D0223206
:20175400657020253032780A004E65656420746F20696D706C656D656E742076656E646FD1
:201774007220636F6D6D616E643A20253032780A0047657420496E746572666163650A00A6
:1D17940053657420696E7465726661636520256420746F20616C743A2025640A0041
:0217BC0000002B
:0B00B200E4F51BF51C751D40751E9C3D
:2003F400AF8874CF5FF58890E7C07431F090E7C17401F000000000AF1B90E68F74022FF0C6
:20041400E4F51BF51C22AF82E51B24C0FDE51C34E7FE74022DFDE43EFE90E6A2E0FC20E1C0
:20043400F88D828E83EFF0051BE4B51B02051CC3E51B943EE51C940040031203F4E51B45FF
:200454001C6019E58820E41474FFC3951DFE74FF951EFD8D8C7F008E8A438810222290E620
:200474000174C0F00000000090E60B7403F00000000090E61074A0F00000000090E61174D6
:20049400A0F00000000090E612E4F00000000090E613E4F00000000090E614E4F0000000A1
:2004B4000090E615E4F00000000090E68D74FFF090E6B57401F075A88075E80190E65C7492
:2004D40001F02290E680E04408F012047290E680E04402F0E054F7F0AF8E74F75FF58E4367
:2004F4008901AF8874CF5FF5882290E68DE0FE7F0074012480FCE434E7FD1EBEFF011F7A00
:20051400007B00C3EA9EEB9F50608C828D83E0F9B961004027E92485402274E029F582C0A7
:2005340007C006C005C004C003C00212041AD002D003D004D005D006D00780228C828D83E1
:20055400E0F582C007C006C005C004C003C00212041AD002D003D004D005D006D0070ABAA6
:2005740000010B0CBC009C0D809990E68D74FFF0000000002275B20100000000B2800000EF
:0305940000002242
:20059700AD82AE83AFF074022DFDE43EFE8D828E838FF0121654FD53050F7F007E007C008D
:2005B7008D828F838EF0EC22AD82AE83AFF074032DFDE43EFE8D828E838FF0121654FD534C
:2005D70005037F007E007C008D828F838EF0EC22AD82AE83AFF074022DFDE43EFE8D828E7A
:2005F700838FF0121654FD530580E4BD800104FD3395E08D82F58322AD82AE83AFF07402A8
:200617002DFDE43EFE8D828E838FF0121654FD530580E4BD000104FD3395E08D82F5832295
:20063700AD82AE83AFF074032DFDE43EFE8D828E838FF0121654FD530503E4BD020104FDCB
:200657003395E08D82F58322AD82AE83AFF074032DFDE43EFE8D828E838FF0121654FD5307
:200677000503E4BD000104FD3395E08D82F58322AD82AE83AFF074032DFDE43EFE8D828E0A
:20069700838FF0121654FD530503E4BD030104FD3395E08D82F58322AD82AE83AFF0740300
:2006B7002DFDE43EFE8D828E838FF0121654FD530503E4BD010104FD3395E08D82F5832271
:2006D700AD82AE83AFF0C007C006C005120637E5828583F0D005D006D00745F060128D82CC
:2006F7008E838FF01205E7E5828583F045F070047F0080027F01EF3395E08F82F58322ADDD
:2007170082AE83AFF0C007C006C005120637E5828583F0D005D006D00745F060128D828EAA
:20073700838FF012060FE5828583F045F070047F0080027F01EF3395E08F82F58322AD827F
:20075700AE83AFF0C007C006C005120687E5828583F0D005D006D00745F060128D828E8319
:200777008FF01205E7E5828583F045F070047F0080027F01EF3395E08F82F58322AD82AE3D
:2007970083AFF0C007C006C005120687E5828583F0D005D006D00745F060128D828E838FF8
:2007B700F012060FE5828583F045F070047F0080027F01EF3395E08F82F58322AD82AE83E0
:2007D700AFF0C007C006C0051206AFE5828583F0D005D006D00745F060128D828E838FF023
:2007F7001205E7E5828583F045F070047F0080027F01EF3395E08F82F58322AD82AE83AF0A
:20081700F0C007C006C0051206AFE5828583F0D005D006D00745F060128D828E838FF0127F
:20083700060FE5828583F045F070047F0080027F01EF3395E08F82F58322AD82AE83AFF0C2
:2008570074042DFDE43EFE8D828E838FF0121654FDA31216548D82F58322AD82AE83AFF0E0
:2008770074032DFDE43EFE8D828E838FF0121654FD5305307F008D828F8322AD82AE83AF2F
:20089700F0ED4E70049000002274032DFDE43EFE8D828E838FF0121654FD53051F7F00ED34
:1F08B7004F7004900000228DF005F07D017F008006ED2DFDEF33FFD5F0F78D828F832281
:203E000012010002FFFFFF40030472830100010200010A060002FFFFFF40010009022000D4
:203E200001010080320904000002FFFFFF03070501020002000705810200020009022000F2
:203E400001010080320904000002FFFFFF0307050202400000070586024000000403090467
:203E60000603480069000C03540068006500720065000E0369004600720061006D0065001C
:0300BD00751F00AC
:2008D600AC82AD83AEF0FFE4B54A0280117401B54A0302097B7402B54A03020A0222BC60D0
:2008F6000CBD0909BE0006BF0003020973BCC00BBD1208BE0005BF0002805DBC800BBD251B
:2009160008BE0005BF0002804ABC000BBD4B08BE0005BF00028037BC800BBD7008BE00051A
:20093600BF00028024BC000BBD9608BE0005BF00028011BC002CBDE129BE0026BF0023751B
:200956001FFD8021751FFB801C751FF98017751FF68012751FEC800D751FD98008751FB211
:200976008003751F00BC600CBD0909BE0006BF00030209FABCC00BBD1208BE0005BF0002E6
:20099600805DBC800BBD2508BE0005BF0002804ABC000BBD4B08BE0005BF00028037BC8097
:2009B6000BBD7008BE0005BF00028024BC000BBD9608BE0005BF00028011BC002CBDE129D3
:2009D600BE0026BF0023751FF98021751FF6801C751FF38017751FEC8012751FD9800D7548
:2009F6001FB28008751F648003751F00BC600CBD0909BE0006BF0003020A7BBCC00BBD121F
:200A160008BE0005BF00028058BC800BBD2508BE0005BF00028046BC000BBD4B08BE000547
:200A3600BF00028034BC800BBD7008BE0005BF00028022BC000BBD9608BE0005BF00028063
:200A560010BC0025BDE122BE001FBF001C751FF322751FEC22751FE622751FD922751FB25B
:200A760022751F6422751F0022751F0022D310AF01C3C0D043892000000000C28E00000096
:1B0A960000851F8D00000000758B2300000000D0D092AF22D28E00000000226C
:06008800E478FFF6D8FD4C
:1200C00075240075250075263C75273E75281C75293EB5
:200AB10090E6B9E0FF24F45003020BB6EF240A83F582EF241083F583E473E3F8B60DB6B653
:200AD10022B6324A64980A0A0B0B0B0B0B0B0B0B0B0B120C2DE5826003020BCB90E6A0E050
:200AF100FF4401F0020BCB120CB6E5826003020BCB90E6A0E0FF4401F0020BCB120D25E538
:200B1100826003020BCB90E6A0E0FF4401F0020BCB120145E5826003020BCB120DD8020B07
:200B3100CB1202DEAF8290E740EFF090E68AE4F090E68B7401F0020BCB90E6BAE0F5821275
:200B510002E2E5826003020BCB90E6A0E0FF4401F0806790E6BCE0FF751723751800751912
:200B7100408F821201BFE582700A90E6A0E0FF4401F0804690E740E523F090E68AE4F0905D
:200B9100E68B7401F0803390E6BCE0FF90E6BAE0F51A8F821201F5E582701F90E6A0E0FF87
:200BB1004401F0801590E6B9E0F582120149E582700890E6A0E0FF4401F090E6A0E04480B5
:200BD100F022AF828F0653067FEE24F75003020C29EE240A83F582EE240D83F583E4730238
:200BF1000619291D292129250C0C0C0C0C0C0C0C0C90E6A022EF30E7067EA27FE680047EB0
:200C1100A17FE68E828F832290E6A32290E6A42290E6A52290E6A6229000002290E6B8E0C7
:200C3100FFBF8002801FBF81028005BF826F803490E740E4F090E741F090E68AF090E68B75
:200C51007402F0805CE52525E0FFE524420790E740EFF090E741E4F090E68AF090E68B745A
:200C710002F0803D90E6BCE0F582120BD3AE82AF83EE4F7003F582228E828F83E0FE30E080
:200C9100047F0180027F0090E740EFF090E741E4F090E68AF090E68B7402F08004758200CA
:200CB100227582012290E6B8E0FF6005BF0258801B90E6BAE0FFBF0105752500805290E60B
:200CD100BAE0FFBF060280487582002290E6BAE0703190E6BCE0F582120BD3AE82AF83E056
:200CF100FD5305FE8E828F83EDF090E6BCE0FF30E70343071053071F90E683EFF074204FD8
:200D1100F0800D7582002290E6B9E0F5820201497582012290E6B8E0FF6008BF020280295F
:200D3100020DA090E6BAE0FFBF0203020DA990E6BAE0FFBF0105752501805D90E6BAE0FF0D
:200D5100BF060280537582002290E6BAE0703C90E6BCE0F582120BD3AE82AF83EE4F700388
:200D7100F582228E828F83E0FD4305018E828F83EDF090E6BCE0FF30E70343071053071F84
:200D910090E683EFF074204FF0800D7582002290E6B9E0F58202014975820122D310AF0172
:200DB100C3C0D0E582FF600E75261C75273E75283C75293E800C75263C75273E75281C754A
:200DD100293ED0D092AF2290E6B57401F090E6BBE0FFBF01028019BF02028029BF030280ED
:200DF10033BF0603020E97BF0703020EAC020EBB7E007F3E8F0690E6B3EEF07E007F3E904E
:200E1100E6B4EEF022AF2790E6B3EFF0AE2690E6B4EEF0227E5C7D3E7F8090E6BAE0F54A68
:200E31007B008B020BEAB54A0280428E008D018F028E828D838FF012165428F8E439F9885B
:200E51000689058A0774012EF9E43DFA8F0489828A838CF0121654F9B9030280067E007DCA
:200E7100007F00EE4D6006C3E54A9B50B5EE4D600D8D0790E6B3EFF090E6B4EEF02290E6CB
:200E9100A0E04401F0227E127F3E8F0690E6B3EEF07E127F3E90E6B4EEF022AF2990E6B309
:120EB100EFF0AE2890E6B4EEF02290E6A0E04401F02203
:200066007902E94400601B7A019017BC7800759200E493F2A308B800020592D9F4DAF27587
:0200860092FFE7
:1B0EC30020F71130F6138883A88220F509F6A8837583002280FEF280F5F0222E
:203D00000202F00002028C000216E20002174C0002031700020366000216DF00020EE90049
:203D2000020EEB00020EEC00020EED00020EF0000217520002175300020EDE00020EE000DA
:203D40000216E400020EE9000216DE000216E0000216E1000216E3000216E50002174B002B
:203D600002163B00020EE900020EE900020EE900020EEA00020EEE00020EF100020EF30009
:203D8000020EEF00020EF200020EF40002103600020EE100020EE300020EE500020EE70006
:183DA000020EE200020EE400020EE600020EE800020EDF0002175100DE
:010EDE0032E1
:010EDF0032E0
:010EE00032DF
:010EE10032DE
:010EE20032DD
:20008E007800E84400600A7900759200E4F309D8FC7800E84400600C7900900000E4F0A380
:0400AE00D8FCD9FAA7
:010EE30032DC
:010EE40032DB
:010EE50032DA
:010EE60032D9
:010EE70032D8
:010EE80032D7
:010EE90032D6
:010EEA0032D5
:010EEB0032D4
:010EEC0032D3
:010EED0032D2
:010EEE0032D1
:010EEF0032D0
:010EF00032CF
:010EF10032CE
:010EF20032CD
:010EF30032CC
:010EF40032CB
:200EF500D310AF01C3C0D085822A85832B85F02CF52D90E600E05418C423541FFBB4010004
:200F1500E433FB60047B01801690E600E05418C423541FFABA01047A0280027A048A03D284
:200F3500CDD2CC8B4A754B00754C00754D009071B075F00BE4C003121670852A4A852B4BC5
:200F5500852C4C852D4D1216E6A882A983AAF0FFD00308B8000909B900050ABA00010FEF5D
:200F7500C313EA13FAE913F9E813F874FFC398F874FF99FF8FCB7900EB60027401FFEF282B
:200F9500F5CAD2CAC29FD29EC29DD29C438780D299D0D092AF223098FD859982C29822AFFB
:200FB5008210990280FB8F9922AF82BF0A0A75820DC007120FB4D0078F82C007120FB4D032
:0B0FD50007BF0D0675820A020FB42250
:200FE000AE82AF8390E600E05418C423541FFDB40100E433FD60067CB17D00801C90E6008B
:20100000E05418C423541FFBBB01067A617B0180047AC27B028A048B058C4A8D4B154A743A
:16102000FFB54A02154BE54A454B70F11EBEFF011FEE4F70E4228C
:011036003287
:20103700C049858149120FBED0492285823E85833F85F040E4F53BF53CF53D852E419010DB
:201057003702112DC049858149E54924FBFF8F41E4F53BF53CF53DE54924FBF8863E088680
:0D1077003F08864090103712112DD04922FD
:20108400AF82C031C032C0331210918007C02FC0308F82221581158115810539E4B5390225
:2010A400053A22AF8274302FFF24C6500A74072FFF3004034307208F82021084E582FFC469
:2010C400540FF582C0071210A7D007740F5FF5820210A785824A85344B85354C85364D85D1
:2010E400374EAA38754F20EA2AFAE54E235401FF8A064EFAE54B254BF54BE54C33F54CE5A7
:201104004D33F54DE54E33F54EC3EA954A4008EAC3954AFA434B01D54FCD854B34854C357C
:20112400854D36854E378A382285822F858330853B31853C32853D33E4F539F53AAD3EAE94
:201144003FAF408D828E838FF0121654FC74012DF53EE43EF53F8F40ECFF7003021634BFE3
:201164002502800302162CC205C206C207C208C209C20AC20BC20C7542007543007CFFAA95
:201184003EAB3FAE408A828B838EF0121654FFA3AA82AB838A3E8B3F8E40BF25078F8212B7
:2011A400108480998F4574D025455026E54524C64020BCFF12E54375F00AA4FD2F24D0F5F5
:2011C4004370C2D20680BEEC75F00AA42F24D0FC80B3BF2E07BCFFAD7C0080A98F05BD617C
:2011E40000400CED248540075307DFD2048002C204BF2002806DBF2B028063BF2D02805907
:20120400BF42028063BF43028068BF44030213D3BF46030213E9BF4803021189BF49030251
:2012240013D3BF4A03021189BF4C028040BF4F030213DABF5003021368BF5302805CBF54BD
:2012440003021189BF55030213DFBF58030213E4BF5A030211890213EDD205021189D207C7
:20126400021189D208021189D20A021189D20B021189300A0CE54114FE8E418E018707807D
:2012840011E54124FEFE8E418E018705098706198D078F821210840213F6E54124FDFE8E31
:2012A400418E01870309870509870619198B348D358E368B828D838EF0C00412163CAD823C
:2012C400AE83D004BCFF028D0420052AC3ED95435024E543C39DF543AE438E031EEB6014AD
:2012E400758220C006C005C004121084D004D005D00680E68E438C06853482853583853663
:20130400F0121654FCFF60308E041EC3E464808CF063F08095F050208F82C006C005121095
:2013240084D005D006AA34AB35AC360ABA00010B8A348B358C3680C02005030213F6C3EDA7
:20134400954340030213F6E543C39DF543AE438E041EEC70030213F4758220C00612108417
:20136400D00680EBE54124FDFC8C418C01870209870309870419198A348B358C36AC36BCCB
:20138400800040047F438014BC600040047F50800BBC400040047F4980027F588F82C0073C
:2013A40012108475823A121084758230121084758278121084D007BF4902800BBF500280CD
:2013C400068535821210C08534821210C08023D20975420A801C754208801775420A801244
:2013E400754210800DD20C80098F8212108480028E43300C5CE54124FCFE8E418E01870261
:201404000987030987040987061919198A348B358C368E377534B175351775368085344676
:2014240085354785364874012546FAE43547FCAE488A348C358E368546828547838548F0DC
:20144400121654FEFF70030211418F8212108480CCE5427003021141754455300A2DE541BC
:2014640014FC8C418C01E7FA3395E0FBFCFE8A348B358C368E37200966AA347B007C007E99
:20148400008A348B358C368E378054300B21E54124FCFE8E418E01870209870309870409B8
:2014A40087061919198A348B358C368E378030E54124FEFE8E418E01870409870619EE339C
:2014C40095E0FBFA8C348E358B368A37200910AA34AB357C007E008A348B358C368E373073
:2014E4000925AA34AB35AC36E537FE30E717C3E49AFAE49BFBE49CFCE49EFE8A348B358C17
:20150400368E378002C209D20DA9447E00753800854282C006C0011210D7D001D006200DEB
:201524000BE538C4FCE7FB4CF7198002A7380EB20DE53445354536453770D289448E05E542
:20154400437003754301200624200521ED04FEAC43C3EE9C5015758220C006C005C0041280
:201564001084D004D005D0061C80E68C4330090E75822DC005121084D00515438023ED6010
:201584002030070E75822BC005121084D0051543800F30080C758220C005121084D00515E9
:2015A40043200522AE438E041EC3ED9C502B3006047C3080027C208C82C006C005121084F2
:2015C400D005D00680E0C3ED95435008E543C39DF543800775430080028E43A9448D068EBC
:2015E400051EED6026B20D200D0A09E7C4540FFD8D3880078705740F5DF538853882C0065D
:20160400C0011210A7D001D00680D4200503021141AE438E051EED7003021141758220C098
:1716240006121084D00680EB8F82121084021141853982853A832213
:0B17B1003C4E4F20464C4F41543E0080
:01163B00327C
:18163C00AA82AB831216546003A380F8C3E5829AF582E5839BF583226A
:0D00590075815512174DE5826003020056B7
:1C16540020F71430F6148883A88220F507E6A88375830022E280F7E49322E022A5
:20167000AAF0FBE582854AF0A4FCADF0E583854AF0A42DFDE435F0FEE582854BF0A42DFD71
:20169000E5F03EFEE433FFEA854AF0A42EFEE5F03FFFE583854BF0A42EFEE5F03FFFE58215
:2016B000854CF0A42EFEE5F03FFFEB854AF0A42FFFEA854BF0A42FFFE583854CF0A42FFF83
:0E16D000E582854DF0A42F8EF08D838C822252
:0116DE0032D9
:0116DF0032D8
:0116E00032D7
:0116E10032D6
:0116E20032D5
:0116E30032D4
:0116E40032D3
:0116E50032D2
:2016E600FB7A20E4FCFDFEFFE5822582F582E58333F583E5F033F5F0EB33FB4017DAE9803D
:2017060042E5822582F582E58333F583E5F033F5F0EB33FBEC33FCED33FDEE33FEEF33FF6B
:20172600EC954AED954BEE954CEF954D4013EC954AFCED954BFDEE954CFEEF954DFF438225
:0517460001DABEEB22F8
:01174B00326B
:01174C00326A
:04174D00758200227F
:011751003265
:011752003264
:011753003263
:00000001FF
