:04000000020059326F
:01000B0032C2
:0100130032BA
:03001B000203C716
:0100230032AA
:01002B0032A2
:01003300329A
:01003B003292
:03004300023D007B
:01004B003282
:03005300023D006B
:0300B200752A00AC
:0300D500020056D0
:030056000200D8CD
:2000D800C201C200E4F523F52490E680E0440AF09005DC12117A90E680E054F7F012057BA9
:2000F800120B7C120B4ED2AB90E100E4F5F012108FD2E890E668E04408F090E65CE04401D1
:20011800F090E65CE04402F090E65CE04420F090E65CE0FF4410F0D2AF75823C120BDE3015
:200138000105120C4BC20190E6A1E0FF20E1061205A212062DE58830E5DF12048E80DA75A6
:20015800820022AF82BFB15290E6BAE0F582C007120D6DAD82AE83E0FC7B00C006C005C014
:2001780004C00374EEC0E07418C0E07480C0E01211F5E58124FBF581D005D006D007ED4E0E
:2001980060188D828E83E090E740F090E68AE4F090E68B7401F0758201227E00C007C006C9
:2001B80074F7C0E07418C0E07480C0E01211F5E58124FBF58175820022AF82C007741FC0E5
:2001D800E07419C0E07480C0E01211F5158115811581D007EF7014AD31AE32AF338D828E05
:2001F800838FF0E412105D7582012275820022AF82AD347E008F037C00C007C005C006C09F
:2002180003C004742EC0E07419C0E07480C0E01211F5E58124F9F581D007EF7065E53470C7
:200238006190E6837402F07422F07416F07436F090E6047480F00000000090E6047482F08E
:200258000000000090E604E4F00000000090E6917480F00000000090E6917480F000000062
:200278000090E6047480F00000000090E6047486F00000000090E604E4F00000000075825F
:20029800012275820022C0E0C082C083C0D075D008900000E02401F0A3E03400F09000004C
:2002B800E0FEA3E0FFBE401ABF1F17B2033003067592B8E280047592B0E2900000E4F0E4C5
:2002D800A3F0AF9174EF5FF59190E65D7402F0D0D0D083D082D0E03275820122AF82BF0180
:2002F800047F0180027F008F8222C0E0C082C083C007C0D075D000D201AF9174EF5FF59112
:2003180090E65D7401F0D0D0D007D083D082D0E032C022C0E0C0F0C082C083C007C006C08B
:2003380005C004C003C002C001C000C0D075D000758200120F47AF9174EF5FF59190E65D47
:200358007410F0D0D0D000D001D002D003D004D005D006D007D083D082D0F0D0E0D022329C
:20037800C022C0E0C0F0C082C083C007C006C005C004C003C002C001C000C0D075D0007548
:200398008201120F47AF9174EF5FF59190E65D7420F0D0D0D000D001D002D003D004D005EC
:2003B800D006D007D083D082D0F0D0E0D02232C022C0E0C0F0C082C083C007C006C005C076
:2003D80004C003C002C001C000C0D075D0007401B54929154AE54A7023E54C30E005120C05
:2003F800358003120C3DE54DC313C54C13C54CF54D754A03154BE54B7002F549E54770595C
:20041800E52A601CD52C52E4F52AF548E5452435F8A62E054574F02545503E75450080393E
:20043800E5487019120C2EE582F52F702C754801F52E752C04752D08752B01801CD52C19F4
:20045800120C2EE582F5306004E52B422EE52B252BF52BD52D03752A01D0D0D000D001D092
:1604780002D003D004D005D006D007D083D082D0F0D0E0D022320A
:2018EE00657020253032780A004E65656420746F20696D706C656D656E742076656E646F36
:20190E007220636F6D6D616E643A20253032780A0047657420496E746572666163650A000A
:1D192E0053657420696E7465726661636520256420746F20616C743A2025640A00A5
:0219560000008F
:0B00B500E4F510F51175124075139C66
:20048E00AF8874CF5FF58890E7C07431F090E7C17401F000000000AF1090E68F74022FF036
:2004AE00E4F510F51122AF82E51024C0FDE51134E7FE74022DFDE43EFE90E6A2E0FC20E152
:2004CE00F88D828E83EFF00510E4B510020511C3E510943EE5119400400312048EE510450C
:2004EE00116019E58820E41474FFC39512FE74FF9513FD8D8C7F008E8A438810222290E6A7
:20050E00007410F00000000090E60174C0F00000000090E60B7403F00000000090E61074DC
:20052E00A0F00000000090E61174A0F00000000090E612E4F00000000090E613E4F00000D9
:20054E00000090E614E4F00000000090E615E4F00000000090E68D74FFF090E6B57401F0DA
:20056E0075A88075E80190E65C7401F02290E680E04408F012050C90E680E04402F0E054A4
:20058E00F7F0AF8E74F75FF58E438901AF8874CF5FF5882290E68DE0FE7F0074012480FC22
:2005AE00E434E7FD1EBEFF011F7A007B00C3EA9EEB9F50608C828D83E0F9B961004027E95B
:2005CE002485402274E029F582C007C006C005C004C003C0021204B4D002D003D004D0055B
:2005EE00D006D00780228C828D83E0F582C007C006C005C004C003C0021204B4D002D0031F
:20060E00D004D005D006D0070ABA00010B0CBC009C0D809990E68D74FFF00000000022751F
:0D062E00B20100000000B2800000000022B8
:20063B00AD82AE83AFF074022DFDE43EFE8D828E838FF01217EEFD53050F7F007E007C004D
:20065B008D828F838EF0EC22AD82AE83AFF074032DFDE43EFE8D828E838FF01217EEFD530C
:20067B0005037F007E007C008D828F838EF0EC22AD82AE83AFF074022DFDE43EFE8D828ED5
:20069B00838FF01217EEFD530580E4BD800104FD3395E08D82F58322AD82AE83AFF0740268
:2006BB002DFDE43EFE8D828E838FF01217EEFD530580E4BD000104FD3395E08D82F5832256
:2006DB00AD82AE83AFF074032DFDE43EFE8D828E838FF01217EEFD530503E4BD020104FD8C
:2006FB003395E08D82F58322AD82AE83AFF074032DFDE43EFE8D828E838FF01217EEFD53C8
:20071B000503E4BD000104FD3395E08D82F58322AD82AE83AFF074032DFDE43EFE8D828E65
:20073B00838FF01217EEFD530503E4BD030104FD3395E08D82F58322AD82AE83AFF07403C0
:20075B002DFDE43EFE8D828E838FF01217EEFD530503E4BD010104FD3395E08D82F5832231
:20077B00AD82AE83AFF0C007C006C0051206DBE5828583F0D005D006D00745F060128D8283
:20079B008E838FF012068BE5828583F045F070047F0080027F01EF3395E08F82F58322AD93
:2007BB0082AE83AFF0C007C006C0051206DBE5828583F0D005D006D00745F060128D828E62
:2007DB00838FF01206B3E5828583F045F070047F0080027F01EF3395E08F82F58322AD8237
:2007FB00AE83AFF0C007C006C00512072BE5828583F0D005D006D00745F060128D828E83D0
:20081B008FF012068BE5828583F045F070047F0080027F01EF3395E08F82F58322AD82AEF3
:20083B0083AFF0C007C006C00512072BE5828583F0D005D006D00745F060128D828E838FAE
:20085B00F01206B3E5828583F045F070047F0080027F01EF3395E08F82F58322AD82AE8397
:20087B00AFF0C007C006C005120753E5828583F0D005D006D00745F060128D828E838FF0D9
:20089B0012068BE5828583F045F070047F0080027F01EF3395E08F82F58322AD82AE83AFC0
:2008BB00F0C007C006C005120753E5828583F0D005D006D00745F060128D828E838FF01236
:2008DB0006B3E5828583F045F070047F0080027F01EF3395E08F82F58322AD82AE83AFF07A
:2008FB0074042DFDE43EFE8D828E838FF01217EEFDA31217EE8D82F58322AD82AE83AFF006
:20091B0074032DFDE43EFE8D828E838FF01217EEFD5305307F008D828F8322AD82AE83AFEF
:20093B00F0ED4E70049000002274032DFDE43EFE8D828E838FF01217EEFD53051F7F00EDF4
:1F095B004F7004900000228DF005F07D017F008006ED2DFDEF33FFD5F0F78D828F8322DC
:203E000012010002FFFFFF40030472830100010200010A060002FFFFFF40010009022000D4
:203E200001010080320904000002FFFFFF03070501020002000705810200020009022000F2
:203E400001010080320904000002FFFFFF0307050202400000070586024000000403090467
:203E60000603480069000C03540068006500720065000E0369004600720061006D0065001C
:0300C000751400B4
:20097A00AC82AD83AEF0FFE4B56A0280117401B56A03020A1F7402B56A03020AA622BC6082
:20099A000CBD0909BE0006BF0003020A17BCC00BBD1208BE0005BF0002805DBC800BBD25D1
:2009BA0008BE0005BF0002804ABC000BBD4B08BE0005BF00028037BC800BBD7008BE000576
:2009DA00BF00028024BC000BBD9608BE0005BF00028011BC002CBDE129BE0026BF00237577
:2009FA0014FD80217514FB801C7514F980177514F680127514EC800D7514D980087514B2BA
:200A1A008003751400BC600CBD0909BE0006BF0003020A9EBCC00BBD1208BE0005BF0002A7
:200A3A00805DBC800BBD2508BE0005BF0002804ABC000BBD4B08BE0005BF00028037BC80F2
:200A5A000BBD7008BE0005BF00028024BC000BBD9608BE0005BF00028011BC002CBDE1292E
:200A7A00BE0026BF00237514F980217514F6801C7514F380177514EC80127514D9800D75DA
:200A9A0014B280087514648003751400BC600CBD0909BE0006BF0003020B1FBCC00BBD12F6
:200ABA0008BE0005BF00028058BC800BBD2508BE0005BF00028046BC000BBD4B08BE0005A3
:200ADA00BF00028034BC800BBD7008BE0005BF00028022BC000BBD9608BE0005BF000280BF
:200AFA0010BC0025BDE122BE001FBF001C7514F3227514EC227514E6227514D9227514B2EE
:200B1A0022751464227514002275140022D310AF01C3C0D043892000000000C28E00000012
:1B0B3A000085148D00000000758B2300000000D0D092AF22D28E0000000022D2
:200B550043B202AFB274FB5FF5B22243892000000000C28E00000000758D77000000007567
:200B75008B770000000022754900754800754700120C35120B55020B602275470022754717
:200B95000122E545B54605120B8E80F6E5462435F98707054674F0254650037546008F828E
:200BB50022E546B5450474018001E4FFB40100E433F58222754500754600227401B5490489
:200BD5007F0180027F008F8222AF827401B5490280F9754A03754B0AEF3395E0CF25E0CF67
:200BF50033FE8F4C74024EF54D75490122AD82AE83AFF08D828E838FF01217EEFC60188C38
:200C1500820DBD00010EC007C006C005120BDED005D006D00780DC2222A281E433F5822222
:160C3500758001000000002275800075B20175800000000000225D
:06008800E478FFF6D8FD4C
:1200C30075160075170075183C75193E751A1C751B3E06
:200C4B0090E6B9E0FF24F45003020D50EF240A83F582EF241083F583E4737D9250A750507F
:200C6B00BC50CCE4FE320C0C0D0C0D0D0C0D0C0C0C0D120DC7E5826003020D6590E6A0E0CE
:200C8B00FF4401F0020D65120E50E5826003020D6590E6A0E0FF4401F0020D65120EBFE591
:200CAB00826003020D6590E6A0E0FF4401F0020D65120157E5826003020D65120F72020DE8
:200CCB00651202F0AF8290E740EFF090E68AE4F090E68B7401F0020D6590E6BAE0F5821292
:200CEB0002F4E5826003020D6590E6A0E0FF4401F0806790E6BCE0FF753115753200753389
:200D0B00408F821201D1E582700A90E6A0E0FF4401F0804690E740E515F090E68AE4F090BD
:200D2B00E68B7401F0803390E6BCE0FF90E6BAE0F5348F82120207E582701F90E6A0E0FFBE
:200D4B004401F0801590E6B9E0F58212015BE582700890E6A0E0FF4401F090E6A0E0448007
:200D6B00F022AF828F0653067FEE24F75003020DC3EE240A83F582EE240D83F583E4739C67
:200D8B00A0B3C3B7C3BBC3BF0D0D0D0D0D0D0D0D0D90E6A022EF30E7067EA27FE680047E3B
:200DAB00A17FE68E828F832290E6A32290E6A42290E6A52290E6A6229000002290E6B8E02C
:200DCB00FFBF8002801FBF81028005BF826F803490E740E4F090E741F090E68AF090E68BDA
:200DEB007402F0805CE51725E0FFE516420790E740EFF090E741E4F090E68AF090E68B74DB
:200E0B0002F0803D90E6BCE0F582120D6DAE82AF83EE4F7003F582228E828F83E0FE30E048
:200E2B00047F0180027F0090E740EFF090E741E4F090E68AF090E68B7402F080047582002E
:200E4B00227582012290E6B8E0FF6005BF0258801B90E6BAE0FFBF0105751700805290E67D
:200E6B00BAE0FFBF060280487582002290E6BAE0703190E6BCE0F582120D6DAE82AF83E01E
:200E8B00FD5305FE8E828F83EDF090E6BCE0FF30E70343071053071F90E683EFF074204F3C
:200EAB00F0800D7582002290E6B9E0F58202015B7582012290E6B8E0FF6008BF02028029B2
:200ECB00020F3A90E6BAE0FFBF0203020F4390E6BAE0FFBF0105751701805D90E6BAE0FF48
:200EEB00BF060280537582002290E6BAE0703C90E6BCE0F582120D6DAE82AF83EE4F700351
:200F0B00F582228E828F83E0FD4305018E828F83EDF090E6BCE0FF30E70343071053071FE8
:200F2B0090E683EFF074204FF0800D7582002290E6B9E0F58202015B75820122D310AF01C4
:200F4B00C3C0D0E582FF600E75181C75193E751A3C751B3E800C75183C75193E751A1C7510
:200F6B001B3ED0D092AF2290E6B57401F090E6BBE0FFBF01028019BF02028029BF0302805F
:200F8B0033BF0603021031BF07030210460210557E007F3E8F0690E6B3EEF07E007F3E90DE
:200FAB00E6B4EEF022AF1990E6B3EFF0AE1890E6B4EEF0227E5C7D3E7F8090E6BAE0F56AC9
:200FCB007B008B020BEAB56A0280428E008D018F028E828D838FF01217EE28F8E439F98805
:200FEB000689058A0774012EF9E43DFA8F0489828A838CF01217EEF9B9030280067E007D94
:20100B00007F00EE4D6006C3E56A9B50B5EE4D600D8D0790E6B3EFF090E6B4EEF02290E60F
:20102B00A0E04401F0227E127F3E8F0690E6B3EEF07E127F3E90E6B4EEF022AF1B90E6B37B
:12104B00EFF0AE1A90E6B4EEF02290E6A0E04401F02275
:200066007902E94400601B7A019019567800759200E493F2A308B800020592D9F4DAF275EB
:0200860092FFE7
:1B105D0020F71130F6138883A88220F509F6A8837583002280FEF280F5F02292
:203D00000203020002029E0002187C000218E6000203290002037800021879000210830091
:203D200002108500021086000210870002108A000218EC000218ED000210780002107A00FC
:203D400002187E00021083000218780002187A0002187B0002187D0002187F000218E5004C
:203D60000217D500021083000210830002108300021084000210880002108B0002108D002A
:203D80000210890002108C0002108E000211D00002107B0002107D0002107F000210810027
:183DA00002107C0002107E000210800002108200021079000218EB0037
:011078003245
:011079003244
:01107A003243
:01107B003242
:01107C003241
:20008E007800E84400600A7900759200E4F309D8FC7800E84400600C7900900000E4F0A380
:0400AE00D8FCD9FAA7
:01107D003240
:01107E00323F
:01107F00323E
:01108000323D
:01108100323C
:01108200323B
:01108300323A
:011084003239
:011085003238
:011086003237
:011087003236
:011088003235
:011089003234
:01108A003233
:01108B003232
:01108C003231
:01108D003230
:01108E00322F
:20108F00D310AF01C3C0D085821C85831D85F01EF51F90E600E05418C423541FFBB40100A0
:2010AF00E433FB60047B01801690E600E05418C423541FFABA01047A0280027A048A03D2E9
:2010CF00CDD2CC8B6A756B00756C00756D009071B075F00BE4C00312180A851C6A851D6BEA
:2010EF00851E6C851F6D121880A882A983AAF0FFD00308B8000909B900050ABA00010FEF02
:20110F00C313EA13FAE913F9E813F874FFC398F874FF99FF8FCB7900EB60027401FFEF288F
:20112F00F5CAD2CAC29FD29EC29DD29C438780D299D0D092AF223098FD859982C29822AF5F
:20114F008210990280FB8F9922AF82BF0A0A75820DC00712114ED0078F82C00712114ED05E
:0B116F0007BF0D0675820A02114E2218
:20117A00AE82AF8390E600E05418C423541FFDB40100E433FD60067CB17D00801C90E600EF
:20119A00E05418C423541FFBBB01067A617B0180047AC27B028A048B058C6A8D6B156A743F
:1611BA00FFB56A02156BE56A456B70F11EBEFF011FEE4F70E42271
:0111D00032EC
:2011D100C069858169121158D0692285825E85835F85F060E4F55BF55CF55D854E61901143
:2011F100D10212C7C069858169E56924FBFF8F61E4F55BF55CF55DE56924FBF8865E088690
:0D1211005F0886609011D11212C7D06922CB
:20121E00AF82C051C052C05312122B8007C04FC0508F82221581158115810559E4B559020D
:20123E00055A22AF8274302FFF24C6500A74072FFF3004034307208F8202121EE582FFC411
:20125E00540FF582C007121241D007740F5FF58202124185826A85546B85556C85566D851D
:20127E00576EAA58756F20EA2AFAE56E235401FF8A064EFAE56B256BF56BE56C33F56CE5CB
:20129E006D33F56DE56E33F56EC3EA956A4008EAC3956AFA436B01D56FCD856B54856C5561
:2012BE00856D56856E578A582285824F858350855B51855C52855D53E4F559F55AAD5EAEF9
:2012DE005FAF608D828E838FF01217EEFC74012DF55EE43EF55F8F60ECFF70030217CEBF72
:2012FE00250280030217C6C205C206C207C208C209C20AC20BC20C7562007563007CFFAA1F
:20131E005EAB5FAE608A828B838EF01217EEFFA3AA82AB838A5E8B5F8E60BF25078F8212C0
:20133E00121E80998F6574D025655026E56524C64020BCFF12E56375F00AA4FD2F24D0F53D
:20135E006370C2D20680BEEC75F00AA42F24D0FC80B3BF2E07BCFFAD7C0080A98F05BD61C0
:20137E0000400CED248540075307DFD2048002C204BF2002806DBF2B028063BF2D0280596B
:20139E00BF42028063BF43028068BF440302156DBF4603021583BF4803021323BF490302E2
:2013BE00156DBF4A03021323BF4C028040BF4F03021574BF5003021502BF5302805CBF54B2
:2013DE0003021323BF5503021579BF580302157EBF5A03021323021587D205021323D20784
:2013FE00021323D208021323D20A021323D20B021323300A0CE56114FE8E618E0187078032
:20141E0011E56124FEFE8E618E018705098706198D078F8212121E021590E56124FDFE8EFD
:20143E00618E01870309870509870619198B548D558E568B828D838EF0C0041217D6AD8285
:20145E00AE83D004BCFF028D0420052AC3ED95635024E563C39DF563AE638E031EEB601491
:20147E00758220C006C005C00412121ED004D005D00680E68E638C068554828555838556AB
:20149E00F01217EEFCFF60308E041EC3E464808CF063F08095F050208F82C006C00512125D
:2014BE001ED005D006AA54AB55AC560ABA00010B8A548B558C5680C0200503021590C3ED16
:2014DE0095634003021590E563C39DF563AE638E041EEC700302158E758220C00612121E28
:2014FE00D00680EBE56124FDFC8C618C01870209870309870419198A548B558C56AC56BC70
:20151E00800040047F438014BC600040047F50800BBC400040047F4980027F588F82C007A0
:20153E0012121E75823A12121E75823012121E75827812121ED007BF4902800BBF500280C1
:20155E000685558212125A85548212125A8023D20975620A801C756208801775620A8012D0
:20157E00756210800DD20C80098F8212121E80028E63300C5CE56124FCFE8E618E018702A9
:20159E000987030987040987061919198A548B558C568E5775544B7555197556808554661F
:2015BE0085556785566874012566FAE43567FCAE688A548C558E568566828567838568F0A1
:2015DE001217EEFEFF70030212DB8F8212121E80CCE56270030212DB756475300A2DE56134
:2015FE0014FC8C618C01E7FA3395E0FBFCFE8A548B558C568E57200966AA547B007C007E3E
:20161E00008A548B558C568E578054300B21E56124FCFE8E618E018702098703098704095C
:20163E0087061919198A548B558C568E578030E56124FEFE8E618E01870409870619EE3340
:20165E0095E0FBFA8C548E558B568A57200910AA54AB557C007E008A548B558C568E573097
:20167E000925AA54AB55AC56E557FE30E717C3E49AFAE49BFBE49CFCE49EFE8A548B558CBB
:20169E00568E578002C209D20DA9647E00755800856282C006C001121271D001D006200D14
:2016BE000BE558C4FCE7FB4CF7198002A7580EB20DE55445554556455770D289648E05E5C7
:2016DE00637003756301200624200521ED04FEAC63C3EE9C5015758220C006C005C0041285
:2016FE00121ED004D005D0061C80E68C6330090E75822DC00512121ED00515638023ED60FD
:20171E002030070E75822BC00512121ED0051563800F30080C758220C00512121ED00515F5
:20173E0063200522AE638E041EC3ED9C502B3006047C3080027C208C82C006C00512121E7A
:20175E00D005D00680E0C3ED95635008E563C39DF563800775630080028E63A9648D068E60
:20177E00051EED6026B20D200D0A09E7C4540FFD8D5880078705740F5DF558855882C00661
:20179E00C001121241D001D00680D42005030212DBAE638E051EED70030212DB758220C00B
:1717BE000612121ED00680EB8F8212121E0212DB855982855A832265
:0B194B003C4E4F20464C4F41543E00E4
:0117D50032E1
:1817D600AA82AB831217EE6003A380F8C3E5829AF582E5839BF5832234
:0D0059007581751218E7E5826003020056FC
:1C17EE0020F71430F6148883A88220F507E6A88375830022E280F7E49322E0220A
:20180A00AAF0FBE582856AF0A4FCADF0E583856AF0A42DFDE435F0FEE582856BF0A42DFD75
:20182A00E5F03EFEE433FFEA856AF0A42EFEE5F03FFFE583856BF0A42EFEE5F03FFFE58239
:20184A00856CF0A42EFEE5F03FFFEB856AF0A42FFFEA856BF0A42FFFE583856CF0A42FFF67
:0E186A00E582856DF0A42F8EF08D838C822296
:01187800323D
:01187900323C
:01187A00323B
:01187B00323A
:01187C003239
:01187D003238
:01187E003237
:01187F003236
:20188000FB7A20E4FCFDFEFFE5822582F582E58333F583E5F033F5F0EB33FB4017DAE980A1
:2018A00042E5822582F582E58333F583E5F033F5F0EB33FBEC33FCED33FDEE33FEEF33FFD0
:2018C000EC956AED956BEE956CEF956D4013EC956AFCED956BFDEE956CFEEF956DFF43828A
:0518E00001DABEEB225D
:0118E50032D0
:0118E60032CF
:0418E70075820022E4
:0118EB0032CA
:0118EC0032C9
:0118ED0032C8
:00000001FF
