:04000000020059326F
:01000B0032C2
:0100130032BA
:01001B0032B2
:0100230032AA
:01002B0032A2
:01003300329A
:01003B003292
:03004300023D007B
:01004B003282
:03005300023D006B
:0300CF00020056D6
:030056000200D2D3
:2000D200C201C200E4F510F51190E680E0440AF09005DC120DC490E680E054F7F012049675
:2000F20090E100E4F5F0120CD9D2E890E668E04408F090E65CE04401F090E65CE04402F03A
:2001120090E65CE04420F090E65CE0FF4410F0D2AF300105120895C20190E6A1E0FF20E1B2
:20013200031204BDE58830E5031203B312054880E075820022AF82BFB15290E6BAE0F58238
:20015200C0071209B7AD82AE83E0FC7B00C006C005C004C0037438C0E07415C0E07480C002
:20017200E0120E3FE58124FBF581D005D006D007ED4E60188D828E83E090E740F090E68A57
:20019200E4F090E68B7401F0758201227E00C007C0067441C0E07415C0E07480C0E0120EBC
:2001B2003FE58124FBF58175820022AF82C0077469C0E07415C0E07480C0E0120E3F1581B3
:2001D20015811581D007EF7014AD17AE18AF198D828E838FF0E4120CA775820122758200EC
:2001F20022AF82AD1A7E008F037C00C007C005C006C003C0047478C0E07415C0E07480C005
:20021200E0120E3FE58124F9F581D007EF7065E51A706190E6837402F07422F07416F07456
:2002320036F090E6047480F00000000090E6047482F00000000090E604E4F00000000090EA
:20025200E6917480F00000000090E6917480F00000000090E6047480F00000000090E6046E
:200272007486F00000000090E604E4F0000000007582012275820022C0E0C082C083C0D04C
:2002920075D008900000E02401F0A3E03400F0900000E0FEA3E0FFBE401ABF1F17B20330F1
:2002B20003067592B8E280047592B0E2900000E4F0E4A3F0AF9174EF5FF59190E65D7402B9
:2002D200F0D0D0D083D082D0E03275820122AF82BF01047F0180027F008F8222C0E0C08250
:2002F200C083C007C0D075D000D201AF9174EF5FF59190E65D7401F0D0D0D007D083D0825E
:20031200D0E032C022C0E0C0F0C082C083C007C006C005C004C003C002C001C000C0D07511
:20033200D000758200120B91AF9174EF5FF59190E65D7410F0D0D0D000D001D002D003D0B1
:2003520004D005D006D007D083D082D0F0D0E0D02232C022C0E0C0F0C082C083C007C00688
:20037200C005C004C003C002C001C000C0D075D000758201120B91AF9174EF5FF59190E663
:200392005D7420F0D0D0D000D001D002D003D004D005D006D007D083D082D0F0D0E0D02227
:0103B2003218
:20153800657020253032780A004E65656420746F20696D706C656D656E742076656E646FEF
:201558007220636F6D6D616E643A20253032780A0047657420496E746572666163650A00C4
:1D15780053657420696E7465726661636520256420746F20616C743A2025640A005F
:0215A000000049
:0B00B200E4F51BF51C751D40751E9C3D
:2003B300AF8874CF5FF58890E7C07431F090E7C17401F000000000AF1B90E68F74022FF007
:2003D300E4F51BF51C22AF82E51B24C0FDE51C34E7FE74022DFDE43EFE90E6A2E0FC20E102
:2003F300F88D828E83EFF0051BE4B51B02051CC3E51B943EE51C940040031203B3E51B4582
:200413001C6019E58820E41474FFC3951DFE74FF951EFD8D8C7F008E8A438810222290E661
:200433000174C0F00000000090E60B7403F00000000090E61074A0F00000000090E6117417
:20045300A0F00000000090E612E4F00000000090E613E4F00000000090E614E4F0000000E2
:200473000090E615E4F00000000090E68D74FFF090E6B57401F075A88075E80190E65C74D3
:2004930001F02290E680E04408F012043190E680E04402F0E054F7F0AF8E74F75FF58E75B7
:2004B3008901AF8874CF5FF5882290E68DE0FE7F0074012480FCE434E7FD1EBEFF011F7A41
:2004D300007B00C3EA9EEB9F50608C828D83E0F9B961004027E92485402274E029F582C0E9
:2004F30007C006C005C004C003C0021203D9D002D003D004D005D006D00780228C828D8365
:20051300E0F582C007C006C005C004C003C0021203D9D002D003D004D005D006D0070ABA29
:2005330000010B0CBC009C0D809990E68D74FFF0000000002275B20100000000B280000030
:0305530000002283
:20055600AD82AE83AFF074022DFDE43EFE8D828E838FF0121438FD53050F7F007E007C00EC
:200576008D828F838EF0EC22AD82AE83AFF074032DFDE43EFE8D828E838FF0121438FD53AB
:2005960005037F007E007C008D828F838EF0EC22AD82AE83AFF074022DFDE43EFE8D828EBB
:2005B600838FF0121438FD530580E4BD800104FD3395E08D82F58322AD82AE83AFF0740207
:2005D6002DFDE43EFE8D828E838FF0121438FD530580E4BD000104FD3395E08D82F58322F5
:2005F600AD82AE83AFF074032DFDE43EFE8D828E838FF0121438FD530503E4BD020104FD2B
:200616003395E08D82F58322AD82AE83AFF074032DFDE43EFE8D828E838FF0121438FD5366
:200636000503E4BD000104FD3395E08D82F58322AD82AE83AFF074032DFDE43EFE8D828E4B
:20065600838FF0121438FD530503E4BD030104FD3395E08D82F58322AD82AE83AFF074035F
:200676002DFDE43EFE8D828E838FF0121438FD530503E4BD010104FD3395E08D82F58322D0
:20069600AD82AE83AFF0C007C006C0051205F6E5828583F0D005D006D00745F060128D824F
:2006B6008E838FF01205A6E5828583F045F070047F0080027F01EF3395E08F82F58322AD5F
:2006D60082AE83AFF0C007C006C0051205F6E5828583F0D005D006D00745F060128D828E2E
:2006F600838FF01205CEE5828583F045F070047F0080027F01EF3395E08F82F58322AD8203
:20071600AE83AFF0C007C006C005120646E5828583F0D005D006D00745F060128D828E839B
:200736008FF01205A6E5828583F045F070047F0080027F01EF3395E08F82F58322AD82AEBF
:2007560083AFF0C007C006C005120646E5828583F0D005D006D00745F060128D828E838F7A
:20077600F01205CEE5828583F045F070047F0080027F01EF3395E08F82F58322AD82AE8363
:20079600AFF0C007C006C00512066EE5828583F0D005D006D00745F060128D828E838FF0A5
:2007B6001205A6E5828583F045F070047F0080027F01EF3395E08F82F58322AD82AE83AF8C
:2007D600F0C007C006C00512066EE5828583F0D005D006D00745F060128D828E838FF01202
:2007F60005CEE5828583F045F070047F0080027F01EF3395E08F82F58322AD82AE83AFF046
:2008160074042DFDE43EFE8D828E838FF0121438FDA31214388D82F58322AD82AE83AFF05D
:2008360074032DFDE43EFE8D828E838FF0121438FD5305307F008D828F8322AD82AE83AF8E
:20085600F0ED4E70049000002274032DFDE43EFE8D828E838FF0121438FD53051F7F00ED93
:1F0876004F7004900000228DF005F07D017F008006ED2DFDEF33FFD5F0F78D828F8322C2
:203E000012010002FFFFFF40030472830100010200010A060002FFFFFF40010009022000D4
:203E200001010080320904000002FFFFFF03070502020002000705860200020009022000EC
:203E400001010080320904000002FFFFFF0307050202400000070586024000000403090467
:203E60000603480069000C03540068006500720065000E0369004600720061006D0065001C
:06008800E478FFF6D8FD4C
:1200BD0075240075250075263C75273E75281C75293EB8
:2008950090E6B9E0FF24F4500302099AEF240A83F582EF241083F583E473C7DC9AF19A9A37
:2008B500069A162E487C080809080909090909090909120A11E58260030209AF90E6A0E06B
:2008D500FF4401F00209AF120A9AE58260030209AF90E6A0E0FF4401F00209AF120B09E5EC
:2008F5008260030209AF90E6A0E0FF4401F00209AF120143E58260030209AF120BBC0209A2
:20091500AF1202DCAF8290E740EFF090E68AE4F090E68B7401F00209AF90E6BAE0F58212CF
:2009350002E0E58260030209AF90E6A0E0FF4401F0806790E6BCE0FF751723751800751950
:20095500408F821201BDE582700A90E6A0E0FF4401F0804690E740E523F090E68AE4F0907D
:20097500E68B7401F0803390E6BCE0FF90E6BAE0F51A8F821201F3E582701F90E6A0E0FFA7
:200995004401F0801590E6B9E0F582120147E582700890E6A0E0FF4401F090E6A0E04480D5
:2009B500F022AF828F0653067FEE24F75003020A0DEE240A83F582EE240D83F583E473E690
:2009D500EAFD0D010D050D090909090A0A0A0A0A0A90E6A022EF30E7067EA27FE680047EC3
:2009F500A17FE68E828F832290E6A32290E6A42290E6A52290E6A6229000002290E6B8E0E6
:200A1500FFBF8002801FBF81028005BF826F803490E740E4F090E741F090E68AF090E68B93
:200A35007402F0805CE52525E0FFE524420790E740EFF090E741E4F090E68AF090E68B7478
:200A550002F0803D90E6BCE0F5821209B7AE82AF83EE4F7003F582228E828F83E0FE30E0BC
:200A7500047F0180027F0090E740EFF090E741E4F090E68AF090E68B7402F08004758200E8
:200A9500227582012290E6B8E0FF6005BF0258801B90E6BAE0FFBF0105752500805290E629
:200AB500BAE0FFBF060280487582002290E6BAE0703190E6BCE0F5821209B7AE82AF83E092
:200AD500FD5305FE8E828F83EDF090E6BCE0FF30E70343071053071F90E683EFF074204FF6
:200AF500F0800D7582002290E6B9E0F5820201477582012290E6B8E0FF6008BF0202802980
:200B1500020B8490E6BAE0FFBF0203020B8D90E6BAE0FFBF0105752501805D90E6BAE0FF67
:200B3500BF060280537582002290E6BAE0703C90E6BCE0F5821209B7AE82AF83EE4F7003C4
:200B5500F582228E828F83E0FD4305018E828F83EDF090E6BCE0FF30E70343071053071FA2
:200B750090E683EFF074204FF0800D7582002290E6B9E0F58202014775820122D310AF0192
:200B9500C3C0D0E582FF600E75261C75273E75283C75293E800C75263C75273E75281C7568
:200BB500293ED0D092AF2290E6B57401F090E6BBE0FFBF01028019BF02028029BF0302800B
:200BD50033BF0603020C7BBF0703020C90020C9F7E007F3E8F0690E6B3EEF07E007F3E90C6
:200BF500E6B4EEF022AF2790E6B3EFF0AE2690E6B4EEF0227E5C7D3E7F8090E6BAE0F54988
:200C15007B008B020BEAB5490280428E008D018F028E828D838FF012143828F8E439F98898
:200C35000689058A0774012EF9E43DFA8F0489828A838CF0121438F9B9030280067E007D06
:200C5500007F00EE4D6006C3E5499B50B5EE4D600D8D0790E6B3EFF090E6B4EEF02290E6EA
:200C7500A0E04401F0227E127F3E8F0690E6B3EEF07E127F3E90E6B4EEF022AF2990E6B327
:120C9500EFF0AE2890E6B4EEF02290E6A0E04401F02221
:200066007902E94400601B7A019015A07800759200E493F2A308B800020592D9F4DAF275A5
:0200860092FFE7
:1B0CA70020F71130F6138883A88220F509F6A8837583002280FEF280F5F0224C
:203D00000202EE0002028A000214C6000215300002031500020364000214C300020CCD00C9
:203D2000020CCF00020CD000020CD100020CD4000215360002153700020CC200020CC400CA
:203D40000214C800020CCD000214C2000214C4000214C5000214C7000214C90002152F001B
:203D600002141F00020CCD00020CCD00020CCD00020CCE00020CD200020CD500020CD700F9
:203D8000020CD300020CD600020CD800020E1A00020CC500020CC700020CC900020CCB00F6
:183DA000020CC600020CC800020CCA00020CCC00020CC3000215350092
:010CC20032FF
:010CC30032FE
:010CC40032FD
:010CC50032FC
:010CC60032FB
:20008E007800E84400600A7900759200E4F309D8FC7800E84400600C7900900000E4F0A380
:0400AE00D8FCD9FAA7
:010CC70032FA
:010CC80032F9
:010CC90032F8
:010CCA0032F7
:010CCB0032F6
:010CCC0032F5
:010CCD0032F4
:010CCE0032F3
:010CCF0032F2
:010CD00032F1
:010CD10032F0
:010CD20032EF
:010CD30032EE
:010CD40032ED
:010CD50032EC
:010CD60032EB
:010CD70032EA
:010CD80032E9
:200CD900D310AF01C3C0D085822A85832B85F02CF52D90E600E05418C423541FFBB4010022
:200CF900E433FB60047B01801690E600E05418C423541FFABA01047A0280027A048A03D2A3
:200D1900CDD2CC8B49754A00754B00754C009071B075F00BE4C003121454852A49852B4A07
:200D3900852C4B852D4C1214CAA882A983AAF0FFD00308B8000909B900050ABA00010FEF9B
:200D5900C313EA13FAE913F9E813F874FFC398F874FF99FF8FCB7900EB60027401FFEF2849
:200D7900F5CAD2CAC29FD29EC29DD29C438780D299D0D092AF223098FD859982C29822AF19
:200D99008210990280FB8F9922AF82BF0A0A75820DC007120D98D0078F82C007120D98D08C
:0B0DB90007BF0D0675820A020D98228C
:200DC400AE82AF8390E600E05418C423541FFDB40100E433FD60067CB17D00801C90E600A9
:200DE400E05418C423541FFBBB01067A617B0180047AC27B028A048B058C498D4A1549745C
:160E0400FFB54902154AE549454A70F11EBEFF011FEE4F70E422AE
:010E1A0032A5
:200E1B00C048858148120DA2D0482285823D85833E85F03FE4F53AF53BF53C851F40900E32
:200E3B001B020F11C048858148E54824FBFF8F40E4F53AF53BF53CE54824FBF8863D0886E1
:0D0E5B003E08863F900E1B120F11D048225A
:200E6800AF82C030C031C032120E758007C02EC02F8F82221581158115810538E4B5380268
:200E8800053922AF8274302FFF24C6500A74072FFF3004034307208F82020E68E582FFC4A6
:200EA800540FF582C007120E8BD007740F5FF582020E8B85824985334A85344B85354C8532
:200EC800364DAA37754E20EA2AFAE54D235401FF8A064EFAE54A254AF54AE54B33F54BE5CF
:200EE8004C33F54CE54D33F54DC3EA95494008EAC39549FA434A01D54ECD854A33854B34A7
:200F0800854C35854D368A372285822E85832F853A30853B31853C32E4F538F539AD3DAEC2
:200F28003EAF3F8D828E838FF0121438FC74012DF53DE43EF53E8F3FECFF7003021418BF42
:200F480025028003021410C205C206C207C208C209C20AC20BC20C7541007542007CFFAAD3
:200F68003DAB3EAE3F8A828B838EF0121438FFA3AA82AB838A3D8B3E8E3FBF25078F8212F9
:200F88000E6880998F4474D025445026E54424C64020BCFF12E54275F00AA4FD2F24D0F535
:200FA8004270C2D20680BEEC75F00AA42F24D0FC80B3BF2E07BCFFAD7C0080A98F05BD619B
:200FC80000400CED248540075307DFD2048002C204BF2002806DBF2B028063BF2D02805925
:200FE800BF42028063BF43028068BF44030211B7BF46030211CDBF4803020F6DBF490302CA
:2010080011B7BF4A03020F6DBF4C028040BF4F030211BEBF500302114CBF5302805CBF5453
:2010280003020F6DBF55030211C3BF58030211C8BF5A03020F6D0211D1D205020F6DD20799
:20104800020F6DD208020F6DD20A020F6DD20B020F6D300A0CE54014FE8E408E0187078015
:2010680011E54024FEFE8E408E018705098706198D078F82120E680211DAE54024FDFE8E8E
:20108800408E01870309870509870619198B338D348E358B828D838EF0C004121420AD827C
:2010A800AE83D004BCFF028D0420052AC3ED95425024E542C39DF542AE428E031EEB6014CF
:2010C800758220C006C005C004120E68D004D005D00680E68E428C068533828534838535A3
:2010E800F0121438FCFF60308E041EC3E464808CF063F08095F050208F82C006C005120ED4
:2011080068D005D006AA33AB34AC350ABA00010B8A338B348C3580C02005030211DAC3ED05
:20112800954240030211DAE542C39DF542AE428E041EEC70030211D8758220C006120E6893
:20114800D00680EBE54024FDFC8C408C01870209870309870419198A338B348C35AC35BCEF
:20116800800040047F438014BC600040047F50800BBC400040047F4980027F588F82C0075A
:20118800120E6875823A120E68758230120E68758278120E68D007BF4902800BBF50028063
:2011A80006853482120EA4853382120EA48023D20975410A801C754108801775410A8012A3
:2011C800754110800DD20C80098F82120E6880028E42300C5CE54024FCFE8E408E018702A1
:2011E8000987030987040987061919198A338B348C358E36753395753415753580853345BC
:2012080085344685354774012545FAE43546FCAE478A338C348E358545828546838547F007
:20122800121438FEFF7003020F258F82120E6880CCE5417003020F25754354300A2DE54056
:2012480014FC8C408C01E7FA3395E0FBFCFE8A338B348C358E36200966AA337B007C007EBD
:20126800008A338B348C358E368054300B21E54024FCFE8E408E01870209870309870409DC
:2012880087061919198A338B348C358E368030E54024FEFE8E408E01870409870619EE33C0
:2012A80095E0FBFA8C338E348B358A36200910AA33AB347C007E008A338B348C358E36309B
:2012C8000925AA33AB34AC35E536FE30E717C3E49AFAE49BFBE49CFCE49EFE8A338B348C3B
:2012E800358E368002C209D20DA9437E00753700854182C006C001120EBBD001D006200D2D
:201308000BE537C4FCE7FB4CF7198002A7370EB20DE53345344535453670D289438E05E567
:20132800427003754201200624200521ED04FEAC42C3EE9C5015758220C006C005C00412A1
:201348000E68D004D005D0061C80E68C4230090E75822DC005120E68D00515428023ED606C
:201368002030070E75822BC005120E68D0051542800F30080C758220C005120E68D0051544
:2013880042200522AE428E041EC3ED9C502B3006047C3080027C208C82C006C005120E6830
:2013A800D005D00680E0C3ED95425008E542C39DF542800775420080028E42A9438D068EE0
:2013C800051EED6026B20D200D0A09E7C4540FFD8D3780078705740F5DF537853782C0067E
:2013E800C001120E8BD001D00680D4200503020F25AE428E051EED7003020F25758220C012
:1714080006120E68D00680EB8F82120E68020F25853882853983228D
:0B1595003C4E4F20464C4F41543E009E
:01141F00329A
:18142000AA82AB831214386003A380F8C3E5829AF582E5839BF58322A6
:0D005900758154121531E5826003020056D6
:1C14380020F71430F6148883A88220F507E6A88375830022E280F7E49322E022C3
:20145400AAF0FBE5828549F0A4FCADF0E5838549F0A42DFDE435F0FEE582854AF0A42DFD92
:20147400E5F03EFEE433FFEA8549F0A42EFEE5F03FFFE583854AF0A42EFEE5F03FFFE58235
:20149400854BF0A42EFEE5F03FFFEB8549F0A42FFFEA854AF0A42FFFE583854BF0A42FFFA5
:0E14B400E582854CF0A42F8EF08D838C822271
:0114C20032F7
:0114C30032F6
:0114C40032F5
:0114C50032F4
:0114C60032F3
:0114C70032F2
:0114C80032F1
:0114C90032F0
:2014CA00FB7A20E4FCFDFEFFE5822582F582E58333F583E5F033F5F0EB33FB4017DAE9805B
:2014EA0042E5822582F582E58333F583E5F033F5F0EB33FBEC33FCED33FDEE33FEEF33FF8A
:20150A00EC9549ED954AEE954BEF954C4013EC9549FCED954AFDEE954BFEEF954CFF43824B
:05152A0001DABEEB2216
:01152F003289
:011530003288
:04153100758200229D
:011535003283
:011536003282
:011537003281
:00000001FF
