:04000000020059326F
:01000B0032C2
:0100130032BA
:03001B000203CD10
:0100230032AA
:01002B0032A2
:01003300329A
:01003B003292
:03004300023D007B
:01004B003282
:03005300023D006B
:0300B200752A00AC
:0300D500020056D0
:030056000200D8CD
:2000D800C201C200E4F523F52490E680E0440AF09005DC12126690E680E054F7F012058AAD
:2000F800120B8B120B5DD2AB756A007582B0120C5C90E100E4F5F012117BD2E890E668E0F9
:200118004408F090E65CE04401F090E65CE04402F090E65CE04420F090E65CE0FF4410F0C1
:20013800D2AF120BA9120BEF300105120D37C20190E6A1E0FF20E1031205B1E58830E5E2DF
:2001580012049D80DD75820022AF82BFB15290E6BAE0F582C007120E59AD82AE83E0FC7BED
:2001780000C006C005C004C00374DAC0E07419C0E07480C0E01212E1E58124FBF581D005D1
:20019800D006D007ED4E60188D828E83E090E740F090E68AE4F090E68B7401F075820122EC
:2001B8007E00C007C00674E3C0E07419C0E07480C0E01212E1E58124FBF58175820022AF9C
:2001D80082C007740BC0E0741AC0E07480C0E01212E1158115811581D007EF7014AD31AE40
:2001F80032AF338D828E838FF0E41211497582012275820022AF82AD347E008F037C00C053
:2002180007C005C006C003C004741AC0E0741AC0E07480C0E01212E1E58124F9F581D007E8
:20023800EF7065E534706190E6837402F07422F07416F07436F090E6047480F000000000A1
:2002580090E6047482F00000000090E604E4F00000000090E6917480F00000000090E691E6
:200278007480F00000000090E6047480F00000000090E6047486F00000000090E604E4F072
:20029800000000007582012275820022C0E0C082C083C0D075D008900000E02401F0A3E009
:2002B8003400F0900000E0FEA3E0FFBE401ABF1F17B2033003067592B8E280047592B0E259
:2002D800900000E4F0E4A3F0AF9174EF5FF59190E65D7402F0D0D0D083D082D0E03275824C
:2002F8000122AF82BF01047F0180027F008F8222C0E0C082C083C007C0D075D000D201AFD7
:200318009174EF5FF59190E65D7401F0D0D0D007D083D082D0E032C022C0E0C0F0C082C082
:2003380083C007C006C005C004C003C002C001C000C0D075D000758200121033AF9174EF42
:200358005FF59190E65D7410F0D0D0D000D001D002D003D004D005D006D007D083D082D0A8
:20037800F0D0E0D02232C022C0E0C0F0C082C083C007C006C005C004C003C002C001C000CE
:20039800C0D075D000758201121033AF9174EF5FF59190E65D7420F0D0D0D000D001D00231
:2003B800D003D004D005D006D007D083D082D0F0D0E0D02232C022C0E0C0F0C082C083C04C
:2003D80007C006C005C004C003C002C001C000C0D075D000756A017582B0120CEF7401B516
:2003F8004929154AE54A7023E54C30E005120C468003120C4EE54DC313C54C13C54CF54D3A
:20041800754A03154BE54B7002F549E5477059E52A601CD52C52E4F52AF548E5452435F834
:20043800A62E054574F02545503E7545008039E5487019120C3FE582F52F702C754801F5CA
:200458002E752C04752D08752B01801CD52C19120C3FE582F5306004E52B422EE52B252B83
:20047800F52BD52D03752A01D0D0D000D001D002D003D004D005D006D007D083D082D0F0FE
:05049800D0E0D022328B
:2019DA00657020253032780A004E65656420746F20696D706C656D656E742076656E646F49
:2019FA007220636F6D6D616E643A20253032780A0047657420496E746572666163650A001E
:1D1A1A0053657420696E7465726661636520256420746F20616C743A2025640A00B8
:021A42000000A2
:0B00B500E4F510F51175124075139C66
:20049D00AF8874CF5FF58890E7C07431F090E7C17401F000000000AF1090E68F74022FF027
:2004BD00E4F510F51122AF82E51024C0FDE51134E7FE74022DFDE43EFE90E6A2E0FC20E143
:2004DD00F88D828E83EFF00510E4B510020511C3E510943EE5119400400312049DE51045EE
:2004FD00116019E58820E41474FFC39512FE74FF9513FD8D8C7F008E8A438810222290E698
:20051D00007410F00000000090E60174C0F00000000090E60B7403F00000000090E61074CD
:20053D00A0F00000000090E61174A0F00000000090E612E4F00000000090E613E4F00000CA
:20055D00000090E614E4F00000000090E615E4F00000000090E68D74FFF090E6B57401F0CB
:20057D0075A88075E80190E65C7401F02290E680E04408F012051B90E680E04402F0E05486
:20059D00F7F0AF8E74F75FF58E438901AF8874CF5FF5882290E68DE0FE7F0074012480FC13
:2005BD00E434E7FD1EBEFF011F7A007B00C3EA9EEB9F50608C828D83E0F9B961004027E94C
:2005DD002485402274E029F582C007C006C005C004C003C0021204C3D002D003D004D0053D
:2005FD00D006D00780228C828D83E0F582C007C006C005C004C003C0021204C3D002D00301
:20061D00D004D005D006D0070ABA00010B0CBC009C0D809990E68D74FFF000000000227510
:0D063D00B20100000000B2800000000022A9
:20064A00AD82AE83AFF074022DFDE43EFE8D828E838FF01218DAFD53050F7F007E007C0051
:20066A008D828F838EF0EC22AD82AE83AFF074032DFDE43EFE8D828E838FF01218DAFD5310
:20068A0005037F007E007C008D828F838EF0EC22AD82AE83AFF074022DFDE43EFE8D828EC6
:2006AA00838FF01218DAFD530580E4BD800104FD3395E08D82F58322AD82AE83AFF074026C
:2006CA002DFDE43EFE8D828E838FF01218DAFD530580E4BD000104FD3395E08D82F583225A
:2006EA00AD82AE83AFF074032DFDE43EFE8D828E838FF01218DAFD530503E4BD020104FD90
:20070A003395E08D82F58322AD82AE83AFF074032DFDE43EFE8D828E838FF01218DAFD53CB
:20072A000503E4BD000104FD3395E08D82F58322AD82AE83AFF074032DFDE43EFE8D828E56
:20074A00838FF01218DAFD530503E4BD030104FD3395E08D82F58322AD82AE83AFF07403C4
:20076A002DFDE43EFE8D828E838FF01218DAFD530503E4BD010104FD3395E08D82F5832235
:20078A00AD82AE83AFF0C007C006C0051206EAE5828583F0D005D006D00745F060128D8265
:2007AA008E838FF012069AE5828583F045F070047F0080027F01EF3395E08F82F58322AD75
:2007CA0082AE83AFF0C007C006C0051206EAE5828583F0D005D006D00745F060128D828E44
:2007EA00838FF01206C2E5828583F045F070047F0080027F01EF3395E08F82F58322AD8219
:20080A00AE83AFF0C007C006C00512073AE5828583F0D005D006D00745F060128D828E83B1
:20082A008FF012069AE5828583F045F070047F0080027F01EF3395E08F82F58322AD82AED5
:20084A0083AFF0C007C006C00512073AE5828583F0D005D006D00745F060128D828E838F90
:20086A00F01206C2E5828583F045F070047F0080027F01EF3395E08F82F58322AD82AE8379
:20088A00AFF0C007C006C005120762E5828583F0D005D006D00745F060128D828E838FF0BB
:2008AA0012069AE5828583F045F070047F0080027F01EF3395E08F82F58322AD82AE83AFA2
:2008CA00F0C007C006C005120762E5828583F0D005D006D00745F060128D828E838FF01218
:2008EA0006C2E5828583F045F070047F0080027F01EF3395E08F82F58322AD82AE83AFF05C
:20090A0074042DFDE43EFE8D828E838FF01218DAFDA31218DA8D82F58322AD82AE83AFF01C
:20092A0074032DFDE43EFE8D828E838FF01218DAFD5305307F008D828F8322AD82AE83AFF3
:20094A00F0ED4E70049000002274032DFDE43EFE8D828E838FF01218DAFD53051F7F00EDF8
:1F096A004F7004900000228DF005F07D017F008006ED2DFDEF33FFD5F0F78D828F8322CD
:203E000012010002FFFFFF40030472830100010200010A060002FFFFFF40010009022000D4
:203E200001010080320904000002FFFFFF03070501020002000705810200020009022000F2
:203E400001010080320904000002FFFFFF0307050202400000070586024000000403090467
:203E60000603480069000C03540068006500720065000E0369004600720061006D0065001C
:0300C000751400B4
:20098900AC82AD83AEF0FFE4B56A0280117401B56A03020A2E7402B56A03020AB522BC6055
:2009A9000CBD0909BE0006BF0003020A26BCC00BBD1208BE0005BF0002805DBC800BBD25B3
:2009C90008BE0005BF0002804ABC000BBD4B08BE0005BF00028037BC800BBD7008BE000567
:2009E900BF00028024BC000BBD9608BE0005BF00028011BC002CBDE129BE0026BF00237568
:200A090014FD80217514FB801C7514F980177514F680127514EC800D7514D980087514B2AA
:200A29008003751400BC600CBD0909BE0006BF0003020AADBCC00BBD1208BE0005BF000289
:200A4900805DBC800BBD2508BE0005BF0002804ABC000BBD4B08BE0005BF00028037BC80E3
:200A69000BBD7008BE0005BF00028024BC000BBD9608BE0005BF00028011BC002CBDE1291F
:200A8900BE0026BF00237514F980217514F6801C7514F380177514EC80127514D9800D75CB
:200AA90014B280087514648003751400BC600CBD0909BE0006BF0003020B2EBCC00BBD12D8
:200AC90008BE0005BF00028058BC800BBD2508BE0005BF00028046BC000BBD4B08BE000594
:200AE900BF00028034BC800BBD7008BE0005BF00028022BC000BBD9608BE0005BF000280B0
:200B090010BC0025BDE122BE001FBF001C7514F3227514EC227514E6227514D9227514B2DE
:200B290022751464227514002275140022D310AF01C3C0D043892000000000C28E00000003
:1B0B49000085148D00000000758B2300000000D0D092AF22D28E0000000022C3
:200B640043B202AFB274FB5FF5B22243892000000000C28E00000000758D77000000007558
:200B84008B770000000022754900754800754700120C46120B64120B6F020BA122754700F9
:200BA4002275470122E545B5460475823022E5462435F98707054674F0254650037546008B
:200BC4008F8222E546B5450474018001E4FFB40100E433F58222754500754600227401B5B6
:200BE40049047F0180027F008F8222AF827401B5490280F9754A03754B0AEF3395E0CF25BA
:200C0400E0CF33FE8F4C74024EF54D75490122AD82AE83AFF08D828E838FF01218DAFC6030
:200C2400188C820DBD00010EC007C006C005120BEFD005D006D00780DC2222A281E433F502
:180C44008222758001000000002275800075B2017580000000000022A8
:200C5C00AF82BF80028014BF90028018BFA002801CBFB0028020BFB1318027E56A42B200F0
:200C7C0000000022E56A42B30000000022E56A42B40000000022E56A42B575B501000000F8
:200C9C000022E56A42B60000000022AF82BF80028014BF90028018BFA002801CBFB00280D0
:200CBC0020BFB12E8024E56A42800000000022E56A42900000000022E56A42A0000000000F
:200CDC0022E56A42B00000000022E56A42B10000000022AF82BF80028014BF90028018BF61
:200CFC00A002801CBFB0028020BFB12E8024E56A62800000000022E56A6290000000002291
:1B0D1C00E56A62A00000000022E56A62B00000000022E56A62B1000000002242
:06008800E478FFF6D8FD4C
:1200C30075160075170075183C75193E751A1C751B3E06
:200D370090E6B9E0FF24F45003020E3CEF240A83F582EF241083F583E473697E3C933C3C1D
:200D5700A83CB8D0EA1E0D0D0E0D0E0E0D0E0D0D0D0E120EB3E5826003020E5190E6A0E073
:200D7700FF4401F0020E51120F3CE5826003020E5190E6A0E0FF4401F0020E51120FABE503
:200D9700826003020E5190E6A0E0FF4401F0020E5112015DE5826003020E5112105E020E40
:200DB700511202F6AF8290E740EFF090E68AE4F090E68B7401F0020E5190E6BAE0F58212C6
:200DD70002FAE5826003020E5190E6A0E0FF4401F0806790E6BCE0FF7531157532007533A9
:200DF700408F821201D7E582700A90E6A0E0FF4401F0804690E740E515F090E68AE4F090CB
:200E1700E68B7401F0803390E6BCE0FF90E6BAE0F5348F8212020DE582701F90E6A0E0FFCB
:200E37004401F0801590E6B9E0F582120161E582700890E6A0E0FF4401F090E6A0E0448014
:200E5700F022AF828F0653067FEE24F75003020EAFEE240A83F582EE240D83F583E47388A1
:200E77008C9FAFA3AFA7AFAB0E0E0E0E0E0E0E0E0E90E6A022EF30E7067EA27FE680047EE5
:200E9700A17FE68E828F832290E6A32290E6A42290E6A52290E6A6229000002290E6B8E03F
:200EB700FFBF8002801FBF81028005BF826F803490E740E4F090E741F090E68AF090E68BED
:200ED7007402F0805CE51725E0FFE516420790E740EFF090E741E4F090E68AF090E68B74EE
:200EF70002F0803D90E6BCE0F582120E59AE82AF83EE4F7003F582228E828F83E0FE30E06F
:200F1700047F0180027F0090E740EFF090E741E4F090E68AF090E68B7402F0800475820041
:200F3700227582012290E6B8E0FF6005BF0258801B90E6BAE0FFBF0105751700805290E690
:200F5700BAE0FFBF060280487582002290E6BAE0703190E6BCE0F582120E59AE82AF83E044
:200F7700FD5305FE8E828F83EDF090E6BCE0FF30E70343071053071F90E683EFF074204F4F
:200F9700F0800D7582002290E6B9E0F5820201617582012290E6B8E0FF6008BF02028029BF
:200FB70002102690E6BAE0FFBF020302102F90E6BAE0FFBF0105751701805D90E6BAE0FF81
:200FD700BF060280537582002290E6BAE0703C90E6BCE0F582120E59AE82AF83EE4F700377
:200FF700F582228E828F83E0FD4305018E828F83EDF090E6BCE0FF30E70343071053071FFC
:2010170090E683EFF074204FF0800D7582002290E6B9E0F58202016175820122D310AF01D1
:20103700C3C0D0E582FF600E75181C75193E751A3C751B3E800C75183C75193E751A1C7523
:201057001B3ED0D092AF2290E6B57401F090E6BBE0FFBF01028019BF02028029BF03028072
:2010770033BF060302111DBF07030211320211417E007F3E8F0690E6B3EEF07E007F3E902A
:20109700E6B4EEF022AF1990E6B3EFF0AE1890E6B4EEF0227E5C7D3E7F8090E6BAE0F56ADC
:2010B7007B008B020BEAB56A0280428E008D018F028E828D838FF01218DA28F8E439F9882B
:2010D7000689058A0774012EF9E43DFA8F0489828A838CF01218DAF9B9030280067E007DBA
:2010F700007F00EE4D6006C3E56A9B50B5EE4D600D8D0790E6B3EFF090E6B4EEF02290E623
:20111700A0E04401F0227E127F3E8F0690E6B3EEF07E127F3E90E6B4EEF022AF1B90E6B38E
:12113700EFF0AE1A90E6B4EEF02290E6A0E04401F02288
:200066007902E94400601B7A01901A427800759200E493F2A308B800020592D9F4DAF275FE
:0200860092FFE7
:1B11490020F71130F6138883A88220F509F6A8837583002280FEF280F5F022A5
:203D0000020308000202A400021968000219D20002032F0002037E000219650002116F00C5
:203D2000021171000211720002117300021176000219D8000219D900021164000211660094
:203D400002196A0002116F000219640002196600021967000219690002196B000219D100E4
:203D60000218C10002116F0002116F0002116F0002117000021174000211770002117900C2
:203D8000021175000211780002117A000212BC00021167000211690002116B0002116D00BF
:183DA0000211680002116A0002116C0002116E00021165000219D700A9
:011164003258
:011165003257
:011166003256
:011167003255
:011168003254
:20008E007800E84400600A7900759200E4F309D8FC7800E84400600C7900900000E4F0A380
:0400AE00D8FCD9FAA7
:011169003253
:01116A003252
:01116B003251
:01116C003250
:01116D00324F
:01116E00324E
:01116F00324D
:01117000324C
:01117100324B
:01117200324A
:011173003249
:011174003248
:011175003247
:011176003246
:011177003245
:011178003244
:011179003243
:01117A003242
:20117B00D310AF01C3C0D085821C85831D85F01EF51F90E600E05418C423541FFBB40100B3
:20119B00E433FB60047B01801690E600E05418C423541FFABA01047A0280027A048A03D2FC
:2011BB00CDD2CC8B6A756B00756C00756D009071B075F00BE4C0031218F6851C6A851D6B11
:2011DB00851E6C851F6D12196CA882A983AAF0FFD00308B8000909B900050ABA00010FEF28
:2011FB00C313EA13FAE913F9E813F874FFC398F874FF99FF8FCB7900EB60027401FFEF28A3
:20121B00F5CAD2CAC29FD29EC29DD29C438780D299D0D092AF223098FD859982C29822AF72
:20123B008210990280FB8F9922AF82BF0A0A75820DC00712123AD0078F82C00712123AD097
:0B125B0007BF0D0675820A02123A223E
:20126600AE82AF8390E600E05418C423541FFDB40100E433FD60067CB17D00801C90E60002
:20128600E05418C423541FFBBB01067A617B0180047AC27B028A048B058C6A8D6B156A7452
:1612A600FFB56A02156BE56A456B70F11EBEFF011FEE4F70E42284
:0112BC0032FF
:2012BD00C069858169121244D0692285825E85835F85F060E4F55BF55CF55D854E61901268
:2012DD00BD0213B3C069858169E56924FBFF8F61E4F55BF55CF55DE56924FBF8865E0886CA
:0D12FD005F0886609012BD1213B3D0692205
:20130A00AF82C051C052C0531213178007C04FC0508F82221581158115810559E4B5590233
:20132A00055A22AF8274302FFF24C6500A74072FFF3004034307208F8202130AE582FFC437
:20134A00540FF582C00712132DD007740F5FF58202132D85826A85546B85556C85566D8556
:20136A00576EAA58756F20EA2AFAE56E235401FF8A064EFAE56B256BF56BE56C33F56CE5DE
:20138A006D33F56DE56E33F56EC3EA956A4008EAC3956AFA436B01D56FCD856B54856C5574
:2013AA00856D56856E578A582285824F858350855B51855C52855D53E4F559F55AAD5EAE0C
:2013CA005FAF608D828E838FF01218DAFC74012DF55EE43EF55F8F60ECFF70030218BABFAB
:2013EA00250280030218B2C205C206C207C208C209C20AC20BC20C7562007563007CFFAA45
:20140A005EAB5FAE608A828B838EF01218DAFFA3AA82AB838A5E8B5F8E60BF25078F8212E6
:20142A00130A80998F6574D025655026E56524C64020BCFF12E56375F00AA4FD2F24D0F563
:20144A006370C2D20680BEEC75F00AA42F24D0FC80B3BF2E07BCFFAD7C0080A98F05BD61D3
:20146A0000400CED248540075307DFD2048002C204BF2002806DBF2B028063BF2D0280597E
:20148A00BF42028063BF43028068BF4403021659BF460302166FBF480302140FBF4903022E
:2014AA001659BF4A0302140FBF4C028040BF4F03021660BF50030215EEBF5302805CBF5412
:2014CA000302140FBF5503021665BF580302166ABF5A0302140F021673D20502140FD20709
:2014EA0002140FD20802140FD20A02140FD20B02140F300A0CE56114FE8E618E0187078091
:20150A0011E56124FEFE8E618E018705098706198D078F8212130A02167CE56124FDFE8E36
:20152A00618E01870309870509870619198B548D558E568B828D838EF0C0041218C2AD82AB
:20154A00AE83D004BCFF028D0420052AC3ED95635024E563C39DF563AE638E031EEB6014A4
:20156A00758220C006C005C00412130AD004D005D00680E68E638C068554828555838556D1
:20158A00F01218DAFCFF60308E041EC3E464808CF063F08095F050208F82C006C005121382
:2015AA000AD005D006AA54AB55AC560ABA00010B8A548B558C5680C020050302167CC3ED50
:2015CA009563400302167CE563C39DF563AE638E041EEC700302167A758220C00612130A74
:2015EA00D00680EBE56124FDFC8C618C01870209870309870419198A548B558C56AC56BC83
:20160A00800040047F438014BC600040047F50800BBC400040047F4980027F588F82C007B3
:20162A0012130A75823A12130A75823012130A75827812130AD007BF4902800BBF50028020
:20164A00068555821213468554821213468023D20975620A801C756208801775620A801209
:20166A00756210800DD20C80098F8212130A80028E63300C5CE56124FCFE8E618E018702CF
:20168A000987030987040987061919198A548B558C568E5775543775551A75568085546645
:2016AA0085556785566874012566FAE43567FCAE688A548C558E568566828567838568F0B4
:2016CA001218DAFEFF70030213C78F8212130A80CCE56270030213C7756475300A2DE56193
:2016EA0014FC8C618C01E7FA3395E0FBFCFE8A548B558C568E57200966AA547B007C007E51
:20170A00008A548B558C568E578054300B21E56124FCFE8E618E018702098703098704096F
:20172A0087061919198A548B558C568E578030E56124FEFE8E618E01870409870619EE3353
:20174A0095E0FBFA8C548E558B568A57200910AA54AB557C007E008A548B558C568E5730AA
:20176A000925AA54AB55AC56E557FE30E717C3E49AFAE49BFBE49CFCE49EFE8A548B558CCE
:20178A00568E578002C209D20DA9647E00755800856282C006C00112135DD001D006200D3A
:2017AA000BE558C4FCE7FB4CF7198002A7580EB20DE55445554556455770D289648E05E5DA
:2017CA00637003756301200624200521ED04FEAC63C3EE9C5015758220C006C005C0041298
:2017EA00130AD004D005D0061C80E68C6330090E75822DC00512130AD00515638023ED6036
:20180A002030070E75822BC00512130AD0051563800F30080C758220C00512130AD005152E
:20182A0063200522AE638E041EC3ED9C502B3006047C3080027C208C82C006C00512130AA0
:20184A00D005D00680E0C3ED95635008E563C39DF563800775630080028E63A9648D068E73
:20186A00051EED6026B20D200D0A09E7C4540FFD8D5880078705740F5DF558855882C00674
:20188A00C00112132DD001D00680D42005030213C7AE638E051EED70030213C7758220C057
:1718AA000612130AD00680EB8F8212130A0213C7855982855A8322B1
:0B1A37003C4E4F20464C4F41543E00F7
:0118C10032F4
:1818C200AA82AB831218DA6003A380F8C3E5829AF582E5839BF583225A
:0D0059007581751219D3E58260030200560F
:1C18DA0020F71430F6148883A88220F507E6A88375830022E280F7E49322E0221D
:2018F600AAF0FBE582856AF0A4FCADF0E583856AF0A42DFDE435F0FEE582856BF0A42DFD89
:20191600E5F03EFEE433FFEA856AF0A42EFEE5F03FFFE583856BF0A42EFEE5F03FFFE5824C
:20193600856CF0A42EFEE5F03FFFEB856AF0A42FFFEA856BF0A42FFFE583856CF0A42FFF7A
:0E195600E582856DF0A42F8EF08D838C8222A9
:011964003250
:01196500324F
:01196600324E
:01196700324D
:01196800324C
:01196900324B
:01196A00324A
:01196B003249
:20196C00FB7A20E4FCFDFEFFE5822582F582E58333F583E5F033F5F0EB33FB4017DAE980B4
:20198C0042E5822582F582E58333F583E5F033F5F0EB33FBEC33FCED33FDEE33FEEF33FFE3
:2019AC00EC956AED956BEE956CEF956D4013EC956AFCED956BFDEE956CFEEF956DFF43829D
:0519CC0001DABEEB2270
:0119D10032E3
:0119D20032E2
:0419D30075820022F7
:0119D70032DD
:0119D80032DC
:0119D90032DB
:00000001FF
