:04000000020059326F
:01000B0032C2
:0100130032BA
:03001B000203E3FA
:0100230032AA
:01002B0032A2
:01003300329A
:01003B003292
:03004300023D007B
:01004B003282
:03005300023D006B
:0300B200752A00AC
:0300D500020056D0
:030056000200D8CD
:2000D800C201C200E4F523F52490E680E0440AF09005DC12127C90E680E054F7F01205A081
:2000F800120BA1120B73D2AB756A007582B0120C7290E100E4F5F0121191D2E890E668E0A1
:200118004408F090E65CE04401F090E65CE04402F090E65CE04420F090E65CE0FF4410F0C1
:20013800D2AFE545B546028015E5462435F98782120C050546E54624EF50037546003001F9
:2001580005120D4DC20190E6A1E0FF20E1031205C7E58830E5CC1204B380C775820022AF55
:2001780082BFB15290E6BAE0F582C007120E6FAD82AE83E0FC7B00C006C005C004C0037409
:20019800F0C0E07419C0E07480C0E01212F7E58124FBF581D005D006D007ED4E60188D829C
:2001B8008E83E090E740F090E68AE4F090E68B7401F0758201227E00C007C00674F9C0E023
:2001D8007419C0E07480C0E01212F7E58124FBF58175820022AF82C0077421C0E0741AC09C
:2001F800E07480C0E01212F7158115811581D007EF7014AD31AE32AF338D828E838FF0E429
:2002180012115F7582012275820022AF82AD347E008F037C00C007C005C006C003C0047426
:2002380030C0E0741AC0E07480C0E01212F7E58124F9F581D007EF7065E534706190E68382
:200258007402F07422F07416F07436F090E6047480F00000000090E6047482F000000000C8
:2002780090E604E4F00000000090E6917480F00000000090E6917480F00000000090E604C8
:200298007480F00000000090E6047486F00000000090E604E4F0000000007582012275829F
:2002B8000022C0E0C082C083C0D075D008900000E02401F0A3E03400F0900000E0FEA3E0E5
:2002D800FFBE401ABF1F17B2033003067592B8E280047592B0E2900000E4F0E4A3F0AF9133
:2002F80074EF5FF59190E65D7402F0D0D0D083D082D0E03275820122AF82BF01047F01802F
:20031800027F008F8222C0E0C082C083C007C0D075D000D201AF9174EF5FF59190E65D74AE
:2003380001F0D0D0D007D083D082D0E032C022C0E0C0F0C082C083C007C006C005C004C029
:2003580003C002C001C000C0D075D000758200121049AF9174EF5FF59190E65D7410F0D069
:20037800D0D000D001D002D003D004D005D006D007D083D082D0F0D0E0D02232C022C0E03E
:20039800C0F0C082C083C007C006C005C004C003C002C001C000C0D075D000758201121005
:2003B80049AF9174EF5FF59190E65D7420F0D0D0D000D001D002D003D004D005D006D007C1
:2003D800D083D082D0F0D0E0D02232C022C0E0C0F0C082C083C007C006C005C004C003C07C
:2003F80002C001C000C0D075D0007401B54929154AE54A7023E54C30E005120C5C8003127B
:200418000C64E54DC313C54C13C54CF54D754A03154BE54B7002F549E5477062E52A602541
:20043800D52C5B756A017582B0120D05E4F52AF548E5452435F8A62E054574F02545503E68
:200458007545008039E5487019120C55E582F52F702C754801F52E752C04752D08752B01F0
:20047800801CD52C19120C55E582F5306004E52B422EE52B252BF52BD52D03752A01D0D006
:1B049800D000D001D002D003D004D005D006D007D083D082D0F0D0E0D0223274
:2019F000657020253032780A004E65656420746F20696D706C656D656E742076656E646F33
:201A10007220636F6D6D616E643A20253032780A0047657420496E746572666163650A0007
:1D1A300053657420696E7465726661636520256420746F20616C743A2025640A00A2
:021A580000008C
:0B00B500E4F510F51175124075139C66
:2004B300AF8874CF5FF58890E7C07431F090E7C17401F000000000AF1090E68F74022FF011
:2004D300E4F510F51122AF82E51024C0FDE51134E7FE74022DFDE43EFE90E6A2E0FC20E12D
:2004F300F88D828E83EFF00510E4B510020511C3E510943EE511940040031204B3E51045C2
:20051300116019E58820E41474FFC39512FE74FF9513FD8D8C7F008E8A438810222290E681
:20053300007410F00000000090E60174C0F00000000090E60B7403F00000000090E61074B7
:20055300A0F00000000090E61174A0F00000000090E612E4F00000000090E613E4F00000B4
:20057300000090E614E4F00000000090E615E4F00000000090E68D74FFF090E6B57401F0B5
:2005930075A88075E80190E65C7401F02290E680E04408F012053190E680E04402F0E0545A
:2005B300F7F0AF8E74F75FF58E438901AF8874CF5FF5882290E68DE0FE7F0074012480FCFD
:2005D300E434E7FD1EBEFF011F7A007B00C3EA9EEB9F50608C828D83E0F9B961004027E936
:2005F3002485402274E029F582C007C006C005C004C003C0021204D9D002D003D004D00511
:20061300D006D00780228C828D83E0F582C007C006C005C004C003C0021204D9D002D003D4
:20063300D004D005D006D0070ABA00010B0CBC009C0D809990E68D74FFF0000000002275FA
:0D065300B20100000000B280000000002293
:20066000AD82AE83AFF074022DFDE43EFE8D828E838FF01218F0FD53050F7F007E007C0025
:200680008D828F838EF0EC22AD82AE83AFF074032DFDE43EFE8D828E838FF01218F0FD53E4
:2006A00005037F007E007C008D828F838EF0EC22AD82AE83AFF074022DFDE43EFE8D828EB0
:2006C000838FF01218F0FD530580E4BD800104FD3395E08D82F58322AD82AE83AFF0740240
:2006E0002DFDE43EFE8D828E838FF01218F0FD530580E4BD000104FD3395E08D82F583222E
:20070000AD82AE83AFF074032DFDE43EFE8D828E838FF01218F0FD530503E4BD020104FD63
:200720003395E08D82F58322AD82AE83AFF074032DFDE43EFE8D828E838FF01218F0FD539F
:200740000503E4BD000104FD3395E08D82F58322AD82AE83AFF074032DFDE43EFE8D828E40
:20076000838FF01218F0FD530503E4BD030104FD3395E08D82F58322AD82AE83AFF0740398
:200780002DFDE43EFE8D828E838FF01218F0FD530503E4BD010104FD3395E08D82F5832209
:2007A000AD82AE83AFF0C007C006C005120700E5828583F0D005D006D00745F060128D8238
:2007C0008E838FF01206B0E5828583F045F070047F0080027F01EF3395E08F82F58322AD49
:2007E00082AE83AFF0C007C006C005120700E5828583F0D005D006D00745F060128D828E17
:20080000838FF01206D8E5828583F045F070047F0080027F01EF3395E08F82F58322AD82EC
:20082000AE83AFF0C007C006C005120750E5828583F0D005D006D00745F060128D828E8385
:200840008FF01206B0E5828583F045F070047F0080027F01EF3395E08F82F58322AD82AEA9
:2008600083AFF0C007C006C005120750E5828583F0D005D006D00745F060128D828E838F64
:20088000F01206D8E5828583F045F070047F0080027F01EF3395E08F82F58322AD82AE834D
:2008A000AFF0C007C006C005120778E5828583F0D005D006D00745F060128D828E838FF08F
:2008C0001206B0E5828583F045F070047F0080027F01EF3395E08F82F58322AD82AE83AF76
:2008E000F0C007C006C005120778E5828583F0D005D006D00745F060128D828E838FF012EC
:2009000006D8E5828583F045F070047F0080027F01EF3395E08F82F58322AD82AE83AFF02F
:2009200074042DFDE43EFE8D828E838FF01218F0FDA31218F08D82F58322AD82AE83AFF0DA
:2009400074032DFDE43EFE8D828E838FF01218F0FD5305307F008D828F8322AD82AE83AFC7
:20096000F0ED4E70049000002274032DFDE43EFE8D828E838FF01218F0FD53051F7F00EDCC
:1F0980004F7004900000228DF005F07D017F008006ED2DFDEF33FFD5F0F78D828F8322B7
:203E000012010002FFFFFF40030472830100010200010A060002FFFFFF40010009022000D4
:203E200001010080320904000002FFFFFF03070501020002000705810200020009022000F2
:203E400001010080320904000002FFFFFF0307050202400000070586024000000403090467
:203E60000603480069000C03540068006500720065000E0369004600720061006D0065001C
:0300C000751400B4
:20099F00AC82AD83AEF0FFE4B56A0280117401B56A03020A447402B56A03020ACB22BC6013
:2009BF000CBD0909BE0006BF0003020A3CBCC00BBD1208BE0005BF0002805DBC800BBD2587
:2009DF0008BE0005BF0002804ABC000BBD4B08BE0005BF00028037BC800BBD7008BE000551
:2009FF00BF00028024BC000BBD9608BE0005BF00028011BC002CBDE129BE0026BF00237552
:200A1F0014FD80217514FB801C7514F980177514F680127514EC800D7514D980087514B294
:200A3F008003751400BC600CBD0909BE0006BF0003020AC3BCC00BBD1208BE0005BF00025D
:200A5F00805DBC800BBD2508BE0005BF0002804ABC000BBD4B08BE0005BF00028037BC80CD
:200A7F000BBD7008BE0005BF00028024BC000BBD9608BE0005BF00028011BC002CBDE12909
:200A9F00BE0026BF00237514F980217514F6801C7514F380177514EC80127514D9800D75B5
:200ABF0014B280087514648003751400BC600CBD0909BE0006BF0003020B44BCC00BBD12AC
:200ADF0008BE0005BF00028058BC800BBD2508BE0005BF00028046BC000BBD4B08BE00057E
:200AFF00BF00028034BC800BBD7008BE0005BF00028022BC000BBD9608BE0005BF0002809A
:200B1F0010BC0025BDE122BE001FBF001C7514F3227514EC227514E6227514D9227514B2C8
:200B3F0022751464227514002275140022D310AF01C3C0D043892000000000C28E000000ED
:1B0B5F000085148D00000000758B2300000000D0D092AF22D28E0000000022AD
:200B7A0043B202AFB274FB5FF5B22243892000000000C28E00000000758D77000000007542
:200B9A008B770000000022754900754800754700120C5C120B7A120B85020BB7227547008B
:200BBA002275470122E545B5460475823022E5462435F98707054674F02546500375460075
:200BDA008F8222E546B5450474018001E4FFB40100E433F58222754500754600227401B5A0
:200BFA0049047F0180027F008F8222AF827401B5490280F9754A03754B0AEF3395E0CF25A4
:200C1A00E0CF33FE8F4C74024EF54D75490122AD82AE83AFF08D828E838FF01218F0FC6004
:200C3A00188C820DBD00010EC007C006C005120C05D005D006D00780DC2222A281E433F5D5
:180C5A008222758001000000002275800075B201758000000000002292
:200C7200AF82BF80028014BF90028018BFA002801CBFB0028020BFB1318027E56A42B200DA
:200C920000000022E56A42B30000000022E56A42B40000000022E56A42B575B501000000E2
:200CB2000022E56A42B60000000022AF82BF80028014BF90028018BFA002801CBFB00280BA
:200CD20020BFB12E8024E56A42800000000022E56A42900000000022E56A42A000000000F9
:200CF20022E56A42B00000000022E56A42B10000000022AF82BF80028014BF90028018BF4B
:200D1200A002801CBFB0028020BFB12E8024E56A62800000000022E56A629000000000227A
:1B0D3200E56A62A00000000022E56A62B00000000022E56A62B100000000222C
:06008800E478FFF6D8FD4C
:1200C30075160075170075183C75193E751A1C751B3E06
:200D4D0090E6B9E0FF24F45003020E52EF240A83F582EF241083F583E4737F9452A952526D
:200D6D00BE52CEE600340D0D0E0D0E0E0D0E0D0D0E0E120EC9E5826003020E6790E6A0E0AC
:200D8D00FF4401F0020E67120F52E5826003020E6790E6A0E0FF4401F0020E67120FC1E57F
:200DAD00826003020E6790E6A0E0FF4401F0020E67120173E5826003020E67121074020EBC
:200DCD006712030CAF8290E740EFF090E68AE4F090E68B7401F0020E6790E6BAE0F582126D
:200DED000310E5826003020E6790E6A0E0FF4401F0806790E6BCE0FF753115753200753366
:200E0D00408F821201EDE582700A90E6A0E0FF4401F0804690E740E515F090E68AE4F0909E
:200E2D00E68B7401F0803390E6BCE0FF90E6BAE0F5348F82120223E582701F90E6A0E0FF9F
:200E4D004401F0801590E6B9E0F582120177E582700890E6A0E0FF4401F090E6A0E04480E8
:200E6D00F022AF828F0653067FEE24F75003020EC5EE240A83F582EE240D83F583E4739E5F
:200E8D00A2B5C5B9C5BDC5C10E0E0E0E0E0E0E0E0E90E6A022EF30E7067EA27FE680047E1F
:200EAD00A17FE68E828F832290E6A32290E6A42290E6A52290E6A6229000002290E6B8E029
:200ECD00FFBF8002801FBF81028005BF826F803490E740E4F090E741F090E68AF090E68BD7
:200EED007402F0805CE51725E0FFE516420790E740EFF090E741E4F090E68AF090E68B74D8
:200F0D0002F0803D90E6BCE0F582120E6FAE82AF83EE4F7003F582228E828F83E0FE30E042
:200F2D00047F0180027F0090E740EFF090E741E4F090E68AF090E68B7402F080047582002B
:200F4D00227582012290E6B8E0FF6005BF0258801B90E6BAE0FFBF0105751700805290E67A
:200F6D00BAE0FFBF060280487582002290E6BAE0703190E6BCE0F582120E6FAE82AF83E018
:200F8D00FD5305FE8E828F83EDF090E6BCE0FF30E70343071053071F90E683EFF074204F39
:200FAD00F0800D7582002290E6B9E0F5820201777582012290E6B8E0FF6008BF0202802993
:200FCD0002103C90E6BAE0FFBF020302104590E6BAE0FFBF0105751701805D90E6BAE0FF3F
:200FED00BF060280537582002290E6BAE0703C90E6BCE0F582120E6FAE82AF83EE4F70034B
:20100D00F582228E828F83E0FD4305018E828F83EDF090E6BCE0FF30E70343071053071FE5
:20102D0090E683EFF074204FF0800D7582002290E6B9E0F58202017775820122D310AF01A5
:20104D00C3C0D0E582FF600E75181C75193E751A3C751B3E800C75183C75193E751A1C750D
:20106D001B3ED0D092AF2290E6B57401F090E6BBE0FFBF01028019BF02028029BF0302805C
:20108D0033BF0603021133BF07030211480211577E007F3E8F0690E6B3EEF07E007F3E90D2
:2010AD00E6B4EEF022AF1990E6B3EFF0AE1890E6B4EEF0227E5C7D3E7F8090E6BAE0F56AC6
:2010CD007B008B020BEAB56A0280428E008D018F028E828D838FF01218F028F8E439F988FF
:2010ED000689058A0774012EF9E43DFA8F0489828A838CF01218F0F9B9030280067E007D8E
:20110D00007F00EE4D6006C3E56A9B50B5EE4D600D8D0790E6B3EFF090E6B4EEF02290E60C
:20112D00A0E04401F0227E127F3E8F0690E6B3EEF07E127F3E90E6B4EEF022AF1B90E6B378
:12114D00EFF0AE1A90E6B4EEF02290E6A0E04401F02272
:200066007902E94400601B7A01901A587800759200E493F2A308B800020592D9F4DAF275E8
:0200860092FFE7
:1B115F0020F71130F6138883A88220F509F6A8837583002280FEF280F5F0228F
:203D000002031E000202BA0002197E000219E800020345000203940002197B000211850015
:203D200002118700021188000211890002118C000219EE000219EF0002117A0002117C00E4
:203D4000021980000211850002197A0002197C0002197D0002197F00021981000219E70034
:203D60000218D7000211850002118500021185000211860002118A0002118D0002118F0012
:203D800002118B0002118E00021190000212D20002117D0002117F0002118100021183000F
:183DA00002117E0002118000021182000211840002117B000219ED0025
:01117A003242
:01117B003241
:01117C003240
:01117D00323F
:01117E00323E
:20008E007800E84400600A7900759200E4F309D8FC7800E84400600C7900900000E4F0A380
:0400AE00D8FCD9FAA7
:01117F00323D
:01118000323C
:01118100323B
:01118200323A
:011183003239
:011184003238
:011185003237
:011186003236
:011187003235
:011188003234
:011189003233
:01118A003232
:01118B003231
:01118C003230
:01118D00322F
:01118E00322E
:01118F00322D
:01119000322C
:20119100D310AF01C3C0D085821C85831D85F01EF51F90E600E05418C423541FFBB401009D
:2011B100E433FB60047B01801690E600E05418C423541FFABA01047A0280027A048A03D2E6
:2011D100CDD2CC8B6A756B00756C00756D009071B075F00BE4C00312190C851C6A851D6BE4
:2011F100851E6C851F6D121982A882A983AAF0FFD00308B8000909B900050ABA00010FEFFC
:20121100C313EA13FAE913F9E813F874FFC398F874FF99FF8FCB7900EB60027401FFEF288C
:20123100F5CAD2CAC29FD29EC29DD29C438780D299D0D092AF223098FD859982C29822AF5C
:201251008210990280FB8F9922AF82BF0A0A75820DC007121250D0078F82C007121250D055
:0B12710007BF0D0675820A0212502212
:20127C00AE82AF8390E600E05418C423541FFDB40100E433FD60067CB17D00801C90E600EC
:20129C00E05418C423541FFBBB01067A617B0180047AC27B028A048B058C6A8D6B156A743C
:1612BC00FFB56A02156BE56A456B70F11EBEFF011FEE4F70E4226E
:0112D20032E9
:2012D300C06985816912125AD0692285825E85835F85F060E4F55BF55CF55D854E6190123C
:2012F300D30213C9C069858169E56924FBFF8F61E4F55BF55CF55DE56924FBF8865E088688
:0D1313005F0886609012D31213C9D06922C2
:20132000AF82C051C052C05312132D8007C04FC0508F82221581158115810559E4B5590207
:20134000055A22AF8274302FFF24C6500A74072FFF3004034307208F82021320E582FFC40B
:20136000540FF582C007121343D007740F5FF58202134385826A85546B85556C85566D8514
:20138000576EAA58756F20EA2AFAE56E235401FF8A064EFAE56B256BF56BE56C33F56CE5C8
:2013A0006D33F56DE56E33F56EC3EA956A4008EAC3956AFA436B01D56FCD856B54856C555E
:2013C000856D56856E578A582285824F858350855B51855C52855D53E4F559F55AAD5EAEF6
:2013E0005FAF608D828E838FF01218F0FC74012DF55EE43EF55F8F60ECFF70030218D0BF69
:20140000250280030218C8C205C206C207C208C209C20AC20BC20C7562007563007CFFAA18
:201420005EAB5FAE608A828B838EF01218F0FFA3AA82AB838A5E8B5F8E60BF25078F8212BA
:20144000132080998F6574D025655026E56524C64020BCFF12E56375F00AA4FD2F24D0F537
:201460006370C2D20680BEEC75F00AA42F24D0FC80B3BF2E07BCFFAD7C0080A98F05BD61BD
:2014800000400CED248540075307DFD2048002C204BF2002806DBF2B028063BF2D02805968
:2014A000BF42028063BF43028068BF440302166FBF4603021685BF4803021425BF490302D6
:2014C000166FBF4A03021425BF4C028040BF4F03021676BF5003021604BF5302805CBF54A3
:2014E00003021425BF550302167BBF5803021680BF5A03021425021689D205021425D2076F
:20150000021425D208021425D20A021425D20B021425300A0CE56114FE8E618E0187078022
:2015200011E56124FEFE8E618E018705098706198D078F82121320021692E56124FDFE8EF4
:20154000618E01870309870509870619198B548D558E568B828D838EF0C0041218D8AD827F
:20156000AE83D004BCFF028D0420052AC3ED95635024E563C39DF563AE638E031EEB60148E
:20158000758220C006C005C004121320D004D005D00680E68E638C068554828555838556A5
:2015A000F01218F0FCFF60308E041EC3E464808CF063F08095F050208F82C006C005121356
:2015C00020D005D006AA54AB55AC560ABA00010B8A548B558C5680C0200503021692C3ED0E
:2015E00095634003021692E563C39DF563AE638E041EEC7003021690758220C0061213201C
:20160000D00680EBE56124FDFC8C618C01870209870309870419198A548B558C56AC56BC6C
:20162000800040047F438014BC600040047F50800BBC400040047F4980027F588F82C0079D
:2016400012132075823A121320758230121320758278121320D007BF4902800BBF500280B2
:201660000685558212135C85548212135C8023D20975620A801C756208801775620A8012C7
:20168000756210800DD20C80098F8212132080028E63300C5CE56124FCFE8E618E018702A3
:2016A0000987030987040987061919198A548B558C568E5775544D75551A75568085546619
:2016C00085556785566874012566FAE43567FCAE688A548C558E568566828567838568F09E
:2016E0001218F0FEFF70030213DD8F8212132080CCE56270030213DD756475300A2DE56125
:2017000014FC8C618C01E7FA3395E0FBFCFE8A548B558C568E57200966AA547B007C007E3A
:20172000008A548B558C568E578054300B21E56124FCFE8E618E0187020987030987040959
:2017400087061919198A548B558C568E578030E56124FEFE8E618E01870409870619EE333D
:2017600095E0FBFA8C548E558B568A57200910AA54AB557C007E008A548B558C568E573094
:201780000925AA54AB55AC56E557FE30E717C3E49AFAE49BFBE49CFCE49EFE8A548B558CB8
:2017A000568E578002C209D20DA9647E00755800856282C006C001121373D001D006200D0E
:2017C0000BE558C4FCE7FB4CF7198002A7580EB20DE55445554556455770D289648E05E5C4
:2017E000637003756301200624200521ED04FEAC63C3EE9C5015758220C006C005C0041282
:201800001320D004D005D0061C80E68C6330090E75822DC005121320D00515638023ED60F3
:201820002030070E75822BC005121320D0051563800F30080C758220C005121320D00515EC
:2018400063200522AE638E041EC3ED9C502B3006047C3080027C208C82C006C00512132074
:20186000D005D00680E0C3ED95635008E563C39DF563800775630080028E63A9648D068E5D
:20188000051EED6026B20D200D0A09E7C4540FFD8D5880078705740F5DF558855882C0065E
:2018A000C001121343D001D00680D42005030213DDAE638E051EED70030213DD758220C0FF
:1718C00006121320D00680EB8F821213200213DD855982855A832259
:0B1A4D003C4E4F20464C4F41543E00E1
:0118D70032DE
:1818D800AA82AB831218F06003A380F8C3E5829AF582E5839BF583222E
:0D0059007581751219E9E5826003020056F9
:1C18F00020F71430F6148883A88220F507E6A88375830022E280F7E49322E02207
:20190C00AAF0FBE582856AF0A4FCADF0E583856AF0A42DFDE435F0FEE582856BF0A42DFD72
:20192C00E5F03EFEE433FFEA856AF0A42EFEE5F03FFFE583856BF0A42EFEE5F03FFFE58236
:20194C00856CF0A42EFEE5F03FFFEB856AF0A42FFFEA856BF0A42FFFE583856CF0A42FFF64
:0E196C00E582856DF0A42F8EF08D838C822293
:01197A00323A
:01197B003239
:01197C003238
:01197D003237
:01197E003236
:01197F003235
:011980003234
:011981003233
:20198200FB7A20E4FCFDFEFFE5822582F582E58333F583E5F033F5F0EB33FB4017DAE9809E
:2019A20042E5822582F582E58333F583E5F033F5F0EB33FBEC33FCED33FDEE33FEEF33FFCD
:2019C200EC956AED956BEE956CEF956D4013EC956AFCED956BFDEE956CFEEF956DFF438287
:0519E20001DABEEB225A
:0119E70032CD
:0119E80032CC
:0419E90075820022E1
:0119ED0032C7
:0119EE0032C6
:0119EF0032C5
:00000001FF
