:04000000020059326F
:01000B0032C2
:0100130032BA
:03001B000203EBF2
:0100230032AA
:01002B0032A2
:01003300329A
:01003B003292
:03004300023D007B
:01004B003282
:03005300023D006B
:0300B200752A00AC
:0300D500020056D0
:030056000200D8CD
:2000D800C201C200E4F523F52490E680E0440AF09005DC1212F290E680E054F7F0120606A4
:2000F800120C07120BD9D2AB753502756F007582B0120CE890E100E4F5F0121207D2E89064
:20011800E668E04408F090E65CE04401F090E65CE04402F090E65CE04420F090E65CE0FFD7
:200138004410F0D2AFE54BB54A02801AE54B243AF98782120C6B75823D120C6B054B74106D
:20015800B54B03754B00300105120DC3C20190E6A1E0FF20E10312062DE58830E5C712054A
:200178001180C275820022AF82BFB15290E6BAE0F582C007120EE5AD82AE83E0FC7B00C03E
:2001980006C005C004C0037466C0E0741AC0E07480C0E012136DE58124FBF581D005D00681
:2001B800D007ED4E60188D828E83E090E740F090E68AE4F090E68B7401F0758201227E0024
:2001D800C007C006746FC0E0741AC0E07480C0E012136DE58124FBF58175820022AF82C09E
:2001F800077497C0E0741AC0E07480C0E012136D158115811581D007EF7014AD36AE37AF5E
:20021800388D828E838FF0E41211D57582012275820022AF82AD397E008F037C00C007C0B6
:2002380005C006C003C00474A6C0E0741AC0E07480C0E012136DE58124F9F581D007EF7017
:2002580065E539706190E6837402F07422F07416F07436F090E6047480F00000000090E665
:20027800047482F00000000090E604E4F00000000090E6917480F00000000090E691748048
:20029800F00000000090E6047480F00000000090E6047486F00000000090E604E4F0000046
:2002B80000007582012275820022C0E0C082C083C0D075D008900000E02401F0A3E03400B5
:2002D800F0900000E0FEA3E0FFBE401ABF1F17B2033003067592B8E280047592B0E29000DD
:2002F80000E4F0E4A3F0AF9174EF5FF59190E65D7402F0D0D0D083D082D0E0327582012299
:20031800AF82BF01047F0180027F008F8222C0E0C082C083C007C0D075D000D201AF9174D4
:20033800EF5FF59190E65D7401F0D0D0D007D083D082D0E032C022C0E0C0F0C082C083C024
:2003580007C006C005C004C003C002C001C000C0D075D0007582001210BFAF9174EF5FF585
:200378009190E65D7410F0D0D0D000D001D002D003D004D005D006D007D083D082D0F0D01C
:20039800E0D02232C022C0E0C0F0C082C083C007C006C005C004C003C002C001C000C0D0DE
:2003B80075D0007582011210BFAF9174EF5FF59190E65D7420F0D0D0D000D001D002D00342
:2003D800D004D005D006D007D083D082D0F0D0E0D02232C022C0E0C0F0C082C083C007C038
:2003F80006C005C004C003C002C001C000C0D075D0007401B54E29154FE54F7023E5513049
:20041800E005120CD78003120CDEE552C313C55113C551F552754F031550E5507002F54EC2
:20043800E54C600302049DE52C7058120CBBE582F534700A7402B535057535038040740368
:20045800B5351D8533F005F0E534800225E0D5F0FBFF423105337407B53323753504801E04
:200478007401B534197404B53514753502E54A243AF8A631054A7410B54A03754A00752C3A
:20049800028002152CD0D0D000D001D002D003D004D005D006D007D083D082D0F0D0E0D05E
:2004B80022327402B53502800E7403B53502801B7404B535438030E531700C753503756F6A
:2004D800017582B0120D7B753300228533F005F0E531800225E0D5F0FBFF423105337408D8
:1904F800B53315753504227401B5310C853132853282120C6B753502223F
:201A6600657020253032780A004E65656420746F20696D706C656D656E742076656E646FBC
:201A86007220636F6D6D616E643A20253032780A0047657420496E746572666163650A0091
:1D1AA60053657420696E7465726661636520256420746F20616C743A2025640A002C
:021ACE00000016
:0B00B500E4F510F51175124075139C66
:20051100AF8874CF5FF58890E7C07431F090E7C17401F000000000AF1090E68F74022FF0B2
:20053100E4F510F51122AF82E51024C0FDE51134E7FE74022DFDE43EFE90E6A2E0FC20E1CE
:20055100F88D828E83EFF00510E4B510020511C3E510943EE51194004003120511E5104504
:20057100116019E58820E41474FFC39512FE74FF9513FD8D8C7F008E8A438810222290E623
:20059100007410F00000000090E60174C0F00000000090E60B7403F00000000090E6107459
:2005B100A0F00000000090E61174A0F00000000090E612E4F00000000090E613E4F0000056
:2005D100000090E614E4F00000000090E615E4F00000000090E68D74FFF090E6B57401F057
:2005F10075A88075E80190E65C7401F090E670E4F075B2012290E680E04408F012058F906C
:20061100E680E04402F0E054F7F0AF8E74F75FF58E438901AF8874CF5FF5882290E68DE080
:20063100FE7F0074012480FCE434E7FD1EBEFF011F7A007B00C3EA9EEB9F50608C828D8388
:20065100E0F9B961004027E92485402274E029F582C007C006C005C004C003C0021205375E
:20067100D002D003D004D005D006D00780228C828D83E0F582C007C006C005C004C003C0BE
:2006910002120537D002D003D004D005D006D0070ABA00010B0CBC009C0D809990E68D742D
:1506B100FFF0000000002275B20100000000B2800000000022A7
:2006C600AD82AE83AFF074022DFDE43EFE8D828E838FF0121966FD53050F7F007E007C0048
:2006E6008D828F838EF0EC22AD82AE83AFF074032DFDE43EFE8D828E838FF0121966FD5307
:2007060005037F007E007C008D828F838EF0EC22AD82AE83AFF074022DFDE43EFE8D828E49
:20072600838FF0121966FD530580E4BD800104FD3395E08D82F58322AD82AE83AFF0740262
:200746002DFDE43EFE8D828E838FF0121966FD530580E4BD000104FD3395E08D82F5832250
:20076600AD82AE83AFF074032DFDE43EFE8D828E838FF0121966FD530503E4BD020104FD86
:200786003395E08D82F58322AD82AE83AFF074032DFDE43EFE8D828E838FF0121966FD53C2
:2007A6000503E4BD000104FD3395E08D82F58322AD82AE83AFF074032DFDE43EFE8D828EDA
:2007C600838FF0121966FD530503E4BD030104FD3395E08D82F58322AD82AE83AFF07403BB
:2007E6002DFDE43EFE8D828E838FF0121966FD530503E4BD010104FD3395E08D82F583222C
:20080600AD82AE83AFF0C007C006C005120766E5828583F0D005D006D00745F060128D826B
:200826008E838FF0120716E5828583F045F070047F0080027F01EF3395E08F82F58322AD7B
:2008460082AE83AFF0C007C006C005120766E5828583F0D005D006D00745F060128D828E4A
:20086600838FF012073EE5828583F045F070047F0080027F01EF3395E08F82F58322AD821F
:20088600AE83AFF0C007C006C0051207B6E5828583F0D005D006D00745F060128D828E83B9
:2008A6008FF0120716E5828583F045F070047F0080027F01EF3395E08F82F58322AD82AEDC
:2008C60083AFF0C007C006C0051207B6E5828583F0D005D006D00745F060128D828E838F98
:2008E600F012073EE5828583F045F070047F0080027F01EF3395E08F82F58322AD82AE8380
:20090600AFF0C007C006C0051207DEE5828583F0D005D006D00745F060128D828E838FF0C2
:20092600120716E5828583F045F070047F0080027F01EF3395E08F82F58322AD82AE83AFA8
:20094600F0C007C006C0051207DEE5828583F0D005D006D00745F060128D828E838FF0121F
:20096600073EE5828583F045F070047F0080027F01EF3395E08F82F58322AD82AE83AFF062
:2009860074042DFDE43EFE8D828E838FF0121966FDA31219668D82F58322AD82AE83AFF086
:2009A60074032DFDE43EFE8D828E838FF0121966FD5305307F008D828F8322AD82AE83AFEA
:2009C600F0ED4E70049000002274032DFDE43EFE8D828E838FF0121966FD53051F7F00EDEF
:1F09E6004F7004900000228DF005F07D017F008006ED2DFDEF33FFD5F0F78D828F832251
:203E000012010002FFFFFF40030472830100010200010A060002FFFFFF40010009022000D4
:203E200001010080320904000002FFFFFF03070501020002000705810200020009022000F2
:203E400001010080320904000002FFFFFF0307050202400000070586024000000403090467
:203E60000603480069000C03540068006500720065000E0369004600720061006D0065001C
:0300C000751400B4
:200A0500AC82AD83AEF0FFE4B56F0280117401B56F03020AAA7402B56F03020B3122BC60D0
:200A25000CBD0909BE0006BF0003020AA2BCC00BBD1208BE0005BF0002805DBC800BBD25BA
:200A450008BE0005BF0002804ABC000BBD4B08BE0005BF00028037BC800BBD7008BE0005EA
:200A6500BF00028024BC000BBD9608BE0005BF00028011BC002CBDE129BE0026BF002375EB
:200A850014FD80217514FB801C7514F980177514F680127514EC800D7514D980087514B22E
:200AA5008003751400BC600CBD0909BE0006BF0003020B29BCC00BBD1208BE0005BF000290
:200AC500805DBC800BBD2508BE0005BF0002804ABC000BBD4B08BE0005BF00028037BC8067
:200AE5000BBD7008BE0005BF00028024BC000BBD9608BE0005BF00028011BC002CBDE129A3
:200B0500BE0026BF00237514F980217514F6801C7514F380177514EC80127514D9800D754E
:200B250014B280087514648003751400BC600CBD0909BE0006BF0003020BAABCC00BBD12DF
:200B450008BE0005BF00028058BC800BBD2508BE0005BF00028046BC000BBD4B08BE000517
:200B6500BF00028034BC800BBD7008BE0005BF00028022BC000BBD9608BE0005BF00028033
:200B850010BC0025BDE122BE001FBF001C7514F3227514EC227514E6227514D9227514B262
:200BA50022751464227514002275140022D310AF01C3C0D043892000000000C28E00000087
:1B0BC5000085148D00000000758B2300000000D0D092AF22D28E000000002247
:200BE00043B202AFB274FB5FF5B22243892000000000C28E00000000758D770000000075DC
:200C00008B770000000022754E00754D00754C00120CD7120BE0120BEB020C1D22754C0062
:200C200022754C0122E54AB54B0475823022E54B243AF98707054B74F0254B5003754B00E6
:200C40008F8222E54BB54A0474018001E4FFB40100E433F58222754A00754B00227401B525
:200C60004E047F0180027F008F8222AF827401B54E0280F9754F0375500AEF3395E0CF2529
:200C8000E0CF33FE8F5174024EF552754E0122AD82AE83AFF08D828E838FF0121966FC6018
:200CA000188C820DBD00010EC007C006C005120C6BD005D006D00780DC2222000000000038
:200CC000000000AF800000000000000000EFC313FF5307018F8222D280000000002275B2F8
:080CE00001C2800000000022A7
:200CE800AF82BF80028014BF90028018BFA002801CBFB0028020BFB1318027E56F42B2005F
:200D080000000022E56F42B30000000022E56F42B40000000022E56F42B575B5010000005C
:200D28000022E56F42B60000000022AF82BF80028014BF90028018BFA002801CBFB002803E
:200D480020BFB12E8024E56F42800000000022E56F42900000000022E56F42A00000000073
:200D680022E56F42B00000000022E56F42B10000000022AF82BF80028014BF90028018BFCA
:200D8800A002801CBFB0028020BFB12E8024E56F62800000000022E56F62900000000022FA
:1B0DA800E56F62A00000000022E56F62B00000000022E56F62B10000000022A7
:06008800E478FFF6D8FD4C
:1200C30075160075170075183C75193E751A1C751B3E06
:200DC30090E6B9E0FF24F45003020EC8EF240A83F582EF241083F583E473F50AC81FC8C8BD
:200DE30034C8445C76AA0D0E0E0E0E0E0E0E0E0E0E0E120F3FE5826003020EDD90E6A0E080
:200E0300FF4401F0020EDD120FC8E5826003020EDD90E6A0E0FF4401F0020EDD121037E5B9
:200E2300826003020EDD90E6A0E0FF4401F0020EDD12017BE5826003020EDD1210EA020E65
:200E4300DD120314AF8290E740EFF090E68AE4F090E68B7401F0020EDD90E6BAE0F5821202
:200E63000318E5826003020EDD90E6A0E0FF4401F0806790E6BCE0FF753615753700753862
:200E8300408F821201F5E582700A90E6A0E0FF4401F0804690E740E515F090E68AE4F09020
:200EA300E68B7401F0803390E6BCE0FF90E6BAE0F5398F8212022BE582701F90E6A0E0FF1C
:200EC3004401F0801590E6B9E0F58212017FE582700890E6A0E0FF4401F090E6A0E044806A
:200EE300F022AF828F0653067FEE24F75003020F3BEE240A83F582EE240D83F583E47314FC
:200F0300182B3B2F3B333B370F0F0F0F0F0F0F0F0F90E6A022EF30E7067EA27FE680047EEF
:200F2300A17FE68E828F832290E6A32290E6A42290E6A52290E6A6229000002290E6B8E0B2
:200F4300FFBF8002801FBF81028005BF826F803490E740E4F090E741F090E68AF090E68B60
:200F63007402F0805CE51725E0FFE516420790E740EFF090E741E4F090E68AF090E68B7461
:200F830002F0803D90E6BCE0F582120EE5AE82AF83EE4F7003F582228E828F83E0FE30E056
:200FA300047F0180027F0090E740EFF090E741E4F090E68AF090E68B7402F08004758200B5
:200FC300227582012290E6B8E0FF6005BF0258801B90E6BAE0FFBF0105751700805290E604
:200FE300BAE0FFBF060280487582002290E6BAE0703190E6BCE0F582120EE5AE82AF83E02C
:20100300FD5305FE8E828F83EDF090E6BCE0FF30E70343071053071F90E683EFF074204FC2
:20102300F0800D7582002290E6B9E0F58202017F7582012290E6B8E0FF6008BF0202802914
:201043000210B290E6BAE0FFBF02030210BB90E6BAE0FFBF0105751701805D90E6BAE0FFDC
:20106300BF060280537582002290E6BAE0703C90E6BCE0F582120EE5AE82AF83EE4F70035E
:20108300F582228E828F83E0FD4305018E828F83EDF090E6BCE0FF30E70343071053071F6F
:2010A30090E683EFF074204FF0800D7582002290E6B9E0F58202017F75820122D310AF0127
:2010C300C3C0D0E582FF600E75181C75193E751A3C751B3E800C75183C75193E751A1C7597
:2010E3001B3ED0D092AF2290E6B57401F090E6BBE0FFBF01028019BF02028029BF030280E6
:2011030033BF06030211A9BF07030211BE0211CD7E007F3E8F0690E6B3EEF07E007F3E90F9
:20112300E6B4EEF022AF1990E6B3EFF0AE1890E6B4EEF0227E5C7D3E7F8090E6BAE0F56F4A
:201143007B008B020BEAB56F0280428E008D018F028E828D838FF012196628F8E439F9880C
:201163000689058A0774012EF9E43DFA8F0489828A838CF0121966F9B9030280067E007DA0
:20118300007F00EE4D6006C3E56F9B50B5EE4D600D8D0790E6B3EFF090E6B4EEF02290E691
:2011A300A0E04401F0227E127F3E8F0690E6B3EEF07E127F3E90E6B4EEF022AF1B90E6B302
:1211C300EFF0AE1A90E6B4EEF02290E6A0E04401F022FC
:200066007902E94400601B7A01901ACE7800759200E493F2A308B800020592D9F4DAF27572
:0200860092FFE7
:1B11D50020F71130F6138883A88220F509F6A8837583002280FEF280F5F02219
:203D0000020326000202C2000219F400021A5E0002034D0002039C000219F1000211FB001C
:203D20000211FD000211FE000211FF0002120200021A6400021A65000211F0000211F20031
:203D40000219F6000211FB000219F0000219F2000219F3000219F5000219F700021A5D0083
:203D600002194D000211FB000211FB000211FB000211FC000212000002120300021205005E
:203D8000021201000212040002120600021348000211F3000211F5000211F7000211F9005B
:183DA0000211F4000211F6000211F8000211FA000211F100021A630060
:0111F00032CC
:0111F10032CB
:0111F20032CA
:0111F30032C9
:0111F40032C8
:20008E007800E84400600A7900759200E4F309D8FC7800E84400600C7900900000E4F0A380
:0400AE00D8FCD9FAA7
:0111F50032C7
:0111F60032C6
:0111F70032C5
:0111F80032C4
:0111F90032C3
:0111FA0032C2
:0111FB0032C1
:0111FC0032C0
:0111FD0032BF
:0111FE0032BE
:0111FF0032BD
:0112000032BB
:0112010032BA
:0112020032B9
:0112030032B8
:0112040032B7
:0112050032B6
:0112060032B5
:20120700D310AF01C3C0D085821C85831D85F01EF51F90E600E05418C423541FFBB4010026
:20122700E433FB60047B01801690E600E05418C423541FFABA01047A0280027A048A03D26F
:20124700CDD2CC8B6F7570007571007572009071B075F00BE4C003121982851C6F851D70D9
:20126700851E71851F721219F8A882A983AAF0FFD00308B8000909B900050ABA00010FEF05
:20128700C313EA13FAE913F9E813F874FFC398F874FF99FF8FCB7900EB60027401FFEF2816
:2012A700F5CAD2CAC29FD29EC29DD29C438780D299D0D092AF223098FD859982C29822AFE6
:2012C7008210990280FB8F9922AF82BF0A0A75820DC0071212C6D0078F82C0071212C6D0F3
:0B12E70007BF0D0675820A0212C62226
:2012F200AE82AF8390E600E05418C423541FFDB40100E433FD60067CB17D00801C90E60076
:20131200E05418C423541FFBBB01067A617B0180047AC27B028A048B058C6F8D70156F74B6
:16133200FFB56F021570E56F457070F11EBEFF011FEE4F70E422E3
:011348003272
:20134900C06E85816E1212D0D06E2285826385836485F065E4F560F561F562855366901317
:201369004902143FC06E85816EE56E24FBFF8F66E4F560F561F562E56E24FBF886630886F7
:0D1389006408866590134912143FD06E224F
:20139600AF82C056C057C0581213A38007C054C0558F8222158115811581055EE4B55E02F8
:2013B600055F22AF8274302FFF24C6500A74072FFF3004034307208F82021396E582FFC41A
:2013D600540FF582C0071213B9D007740F5FF5820213B985826F855970855A71855B72858F
:2013F6005C73AA5D757420EA2AFAE573235401FF8A064EFAE5702570F570E57133F571E520
:201416007233F572E57333F573C3EA956F4008EAC3956FFA437001D574CD85705985715AAB
:2014360085725B85735C8A5D22858254858355856056856157856258E4F55EF55FAD63AE2F
:2014560064AF658D828E838FF0121966FC74012DF563E43EF5648F65ECFF7003021946BFEB
:201476002502800302193EC205C206C207C208C209C20AC20BC20C7567007568007CFFAA21
:2014960063AB64AE658A828B838EF0121966FFA3AA82AB838A638B648E65BF25078F8212AF
:2014B600139680998F6A74D0256A5026E56A24C64020BCFF12E56875F00AA4FD2F24D0F537
:2014D6006870C2D20680BEEC75F00AA42F24D0FC80B3BF2E07BCFFAD7C0080A98F05BD6142
:2014F60000400CED248540075307DFD2048002C204BF2002806DBF2B028063BF2D028059F2
:20151600BF42028063BF43028068BF44030216E5BF46030216FBBF480302149BBF490302FD
:2015360016E5BF4A0302149BBF4C028040BF4F030216ECBF500302167ABF5302805CBF5454
:201556000302149BBF55030216F1BF58030216F6BF5A0302149B0216FFD20502149BD20734
:2015760002149BD20802149BD20A02149BD20B02149B300A0CE56614FE8E668E01870780CA
:2015960011E56624FEFE8E668E018705098706198D078F82121396021708E56624FDFE8E82
:2015B600668E01870309870509870619198B598D5A8E5B8B828D838EF0C00412194EAD827E
:2015D600AE83D004BCFF028D0420052AC3ED95685024E568C39DF568AE688E031EEB601404
:2015F600758220C006C005C004121396D004D005D00680E68E688C06855982855A83855BA5
:20161600F0121966FCFF60308E041EC3E464808CF063F08095F050208F82C006C005121368
:2016360096D005D006AA59AB5AAC5B0ABA00010B8A598B5A8C5B80C0200503021708C3ED8C
:2016560095684003021708E568C39DF568AE688E041EEC7003021706758220C0061213962D
:20167600D00680EBE56624FDFC8C668C01870209870309870419198A598B5A8C5BAC5BBCD8
:20169600800040047F438014BC600040047F50800BBC400040047F4980027F588F82C00727
:2016B60012139675823A121396758230121396758278121396D007BF4902800BBF50028064
:2016D60006855A821213D28559821213D28023D20975670A801C756708801775670A80124C
:2016F600756710800DD20C80098F8212139680028E68300C5CE56624FCFE8E668E018702A3
:201716000987030987040987061919198A598B5A8C5B8E5C7559C3755A1A755B8085596BFF
:20173600855A6C855B6D7401256BFAE4356CFCAE6D8A598C5A8E5B856B82856C83856DF0E6
:20175600121966FEFF70030214538F8212139680CCE567700302145375697A300A2DE566BF
:2017760014FC8C668C01E7FA3395E0FBFCFE8A598B5A8C5B8E5C200966AA597B007C007EA6
:20179600008A598B5A8C5B8E5C8054300B21E56624FCFE8E668E01870209870309870409C5
:2017B60087061919198A598B5A8C5B8E5C8030E56624FEFE8E668E01870409870619EE33A9
:2017D60095E0FBFA8C598E5A8B5B8A5C200910AA59AB5A7C007E008A598B5A8C5B8E5C30EC
:2017F6000925AA59AB5AAC5BE55CFE30E717C3E49AFAE49BFBE49CFCE49EFE8A598B5A8C24
:201816005B8E5C8002C209D20DA9697E00755D00856782C006C0011213E9D001D006200D08
:201836000BE55DC4FCE7FB4CF7198002A75D0EB20DE559455A455B455C70D289698E05E52A
:20185600687003756801200624200521ED04FEAC68C3EE9C5015758220C006C005C00412FC
:201876001396D004D005D0061C80E68C6830090E75822DC005121396D00515688023ED6087
:201896002030070E75822BC005121396D0051568800F30080C758220C005121396D0051585
:2018B60068200522AE688E041EC3ED9C502B3006047C3080027C208C82C006C0051213967E
:2018D600D005D00680E0C3ED95685008E568C39DF568800775680080028E68A9698D068EC9
:2018F600051EED6026B20D200D0A09E7C4540FFD8D5D80078705740F5DF55D855D82C006D9
:20191600C0011213B9D001D00680D4200503021453AE688E051EED7003021453758220C01F
:1719360006121396D00680EB8F82121396021453855E82855F832275
:0B1AC3003C4E4F20464C4F41543E006B
:01194D003267
:18194E00AA82AB831219666003A380F8C3E5829AF582E5839BF5832240
:0D00590075817A121A5FE58260030200567D
:1C19660020F71430F6148883A88220F507E6A88375830022E280F7E49322E02290
:20198200AAF0FBE582856FF0A4FCADF0E583856FF0A42DFDE435F0FEE5828570F0A42DFDED
:2019A200E5F03EFEE433FFEA856FF0A42EFEE5F03FFFE5838570F0A42EFEE5F03FFFE582B6
:2019C2008571F0A42EFEE5F03FFFEB856FF0A42FFFEA8570F0A42FFFE5838571F0A42FFFDA
:0E19E200E5828572F0A42F8EF08D838C822218
:0119F00032C4
:0119F10032C3
:0119F20032C2
:0119F30032C1
:0119F40032C0
:0119F50032BF
:0119F60032BE
:0119F70032BD
:2019F800FB7A20E4FCFDFEFFE5822582F582E58333F583E5F033F5F0EB33FB4017DAE98028
:201A180042E5822582F582E58333F583E5F033F5F0EB33FBEC33FCED33FDEE33FEEF33FF56
:201A3800EC956FED9570EE9571EF95724013EC956FFCED9570FDEE9571FEEF9572FF4382E8
:051A580001DABEEB22E3
:011A5D003256
:011A5E003255
:041A5F00758200226A
:011A63003250
:011A6400324F
:011A6500324E
:00000001FF
