:04000000020059326F
:01000B0032C2
:0100130032BA
:03001B000203B528
:0100230032AA
:01002B0032A2
:01003300329A
:01003B003292
:03004300023D007B
:01004B003282
:03005300023D006B
:0300D200020056D3
:030056000200D5D0
:2000D500C201C200E4F510F51190E680E0440AF09005DC1210D590E680E054F7F01204E113
:2000F500120AC6120AB4D2AB90E100E4F5F0120FEAD2E890E668E04408F090E65CE04401CC
:20011500F090E65CE04402F090E65CE04420F090E65CE0FF4410F0D2AF300105120BA6C2BB
:200135000190E6A1E0FF20E103120593E58880E975820022AF82BFB15290E6BAE0F582C0DC
:2001550007120CC8AD82AE83E0FC7B00C006C005C004C0037449C0E07418C0E07480C0E0B7
:20017500121150E58124FBF581D005D006D007ED4E60188D828E83E090E740F090E68AE43C
:20019500F090E68B7401F0758201227E00C007C0067452C0E07418C0E07480C0E012115036
:2001B500E58124FBF58175820022AF82C007747AC0E07418C0E07480C0E0121150158115B2
:2001D500811581D007EF7014AD17AE18AF198D828E838FF0E4120FB87582012275820022C8
:2001F500AF82AD1A7E008F037C00C007C005C006C003C0047489C0E07418C0E07480C0E030
:20021500121150E58124F9F581D007EF7065E51A706190E6837402F07422F07416F07436E9
:20023500F090E6047480F00000000090E6047482F00000000090E604E4F00000000090E637
:20025500917480F00000000090E6917480F00000000090E6047480F00000000090E60474DD
:2002750086F00000000090E604E4F0000000007582012275820022C0E0C082C083C0D07548
:20029500D008900000E02401F0A3E03400F0900000E0FEA3E0FFBE401ABF1F17B203300360
:2002B500067592B8E280047592B0E2900000E4F0E4A3F0AF9174EF5FF59190E65D7402F0C9
:2002D500D0D0D083D082D0E03275820122AF82BF01047F0180027F008F8222C0E0C082C07D
:2002F50083C007C0D075D000D201AF9174EF5FF59190E65D7401F0D0D0D007D083D082D04B
:20031500E032C022C0E0C0F0C082C083C007C006C005C004C003C002C001C000C0D075D00E
:2003350000758200120EA2AF9174EF5FF59190E65D7410F0D0D0D000D001D002D003D00466
:20035500D005D006D007D083D082D0F0D0E0D02232C022C0E0C0F0C082C083C007C006C0C9
:2003750005C004C003C002C001C000C0D075D000758201120EA2AF9174EF5FF59190E65DAF
:200395007420F0D0D0D000D001D002D003D004D005D006D007D083D082D0F0D0E0D022324F
:2003B500C022C0E0C0F0C082C083C007C006C005C004C003C002C001C000C0D075D000126E
:1F03D5000593D0D0D000D001D002D003D004D005D006D007D083D082D0F0D0E0D02232FC
:20184900657020253032780A004E65656420746F20696D706C656D656E742076656E646FDB
:201869007220636F6D6D616E643A20253032780A0047657420496E746572666163650A00B0
:1D18890053657420696E7465726661636520256420746F20616C743A2025640A004B
:0218B100000035
:0B00B200E4F51BF51C751D40751E9C3D
:2003F400AF8874CF5FF58890E7C07431F090E7C17401F000000000AF1B90E68F74022FF0C6
:20041400E4F51BF51C22AF82E51B24C0FDE51C34E7FE74022DFDE43EFE90E6A2E0FC20E1C0
:20043400F88D828E83EFF0051BE4B51B02051CC3E51B943EE51C940040031203F4E51B45FF
:200454001C6019E58820E41474FFC3951DFE74FF951EFD8D8C7F008E8A438810222290E620
:20047400007410F00000000090E60174C0F00000000090E60B7403F00000000090E6107477
:20049400A0F00000000090E61174A0F00000000090E612E4F00000000090E613E4F0000074
:2004B400000090E614E4F00000000090E615E4F00000000090E68D74FFF090E6B57401F075
:2004D40075A88075E80190E65C7401F02290E680E04408F012047290E680E04402F0E054DA
:2004F400F7F0AF8E74F75FF58E438901AF8874CF5FF5882290E68DE0FE7F0074012480FCBD
:20051400E434E7FD1EBEFF011F7A007B00C3EA9EEB9F50608C828D83E0F9B961004027E9F5
:200534002485402274E029F582C007C006C005C004C003C00212041AD002D003D004D0058F
:20055400D006D00780228C828D83E0F582C007C006C005C004C003C00212041AD002D00353
:20057400D004D005D006D0070ABA00010B0CBC009C0D809990E68D74FFF0000000002275BA
:0D059400B20100000000B280000000002253
:2005A100AD82AE83AFF074022DFDE43EFE8D828E838FF0121749FD53050F7F007E007C008D
:2005C1008D828F838EF0EC22AD82AE83AFF074032DFDE43EFE8D828E838FF0121749FD534C
:2005E10005037F007E007C008D828F838EF0EC22AD82AE83AFF074022DFDE43EFE8D828E70
:20060100838FF0121749FD530580E4BD800104FD3395E08D82F58322AD82AE83AFF07402A7
:200621002DFDE43EFE8D828E838FF0121749FD530580E4BD000104FD3395E08D82F5832295
:20064100AD82AE83AFF074032DFDE43EFE8D828E838FF0121749FD530503E4BD020104FDCB
:200661003395E08D82F58322AD82AE83AFF074032DFDE43EFE8D828E838FF0121749FD5307
:200681000503E4BD000104FD3395E08D82F58322AD82AE83AFF074032DFDE43EFE8D828E00
:2006A100838FF0121749FD530503E4BD030104FD3395E08D82F58322AD82AE83AFF0740300
:2006C1002DFDE43EFE8D828E838FF0121749FD530503E4BD010104FD3395E08D82F5832271
:2006E100AD82AE83AFF0C007C006C005120641E5828583F0D005D006D00745F060128D82B8
:200701008E838FF01205F1E5828583F045F070047F0080027F01EF3395E08F82F58322ADC8
:2007210082AE83AFF0C007C006C005120641E5828583F0D005D006D00745F060128D828E96
:20074100838FF0120619E5828583F045F070047F0080027F01EF3395E08F82F58322AD826B
:20076100AE83AFF0C007C006C005120691E5828583F0D005D006D00745F060128D828E8305
:200781008FF01205F1E5828583F045F070047F0080027F01EF3395E08F82F58322AD82AE29
:2007A10083AFF0C007C006C005120691E5828583F0D005D006D00745F060128D828E838FE4
:2007C100F0120619E5828583F045F070047F0080027F01EF3395E08F82F58322AD82AE83CC
:2007E100AFF0C007C006C0051206B9E5828583F0D005D006D00745F060128D828E838FF00F
:200801001205F1E5828583F045F070047F0080027F01EF3395E08F82F58322AD82AE83AFF5
:20082100F0C007C006C0051206B9E5828583F0D005D006D00745F060128D828E838FF0126B
:200841000619E5828583F045F070047F0080027F01EF3395E08F82F58322AD82AE83AFF0AE
:2008610074042DFDE43EFE8D828E838FF0121749FDA31217498D82F58322AD82AE83AFF0EA
:2008810074032DFDE43EFE8D828E838FF0121749FD5305307F008D828F8322AD82AE83AF2F
:2008A100F0ED4E70049000002274032DFDE43EFE8D828E838FF0121749FD53051F7F00ED34
:1F08C1004F7004900000228DF005F07D017F008006ED2DFDEF33FFD5F0F78D828F832277
:203E000012010002FFFFFF40030472830100010200010A060002FFFFFF40010009022000D4
:203E200001010080320904000002FFFFFF03070501020002000705810200020009022000F2
:203E400001010080320904000002FFFFFF0307050202400000070586024000000403090467
:203E60000603480069000C03540068006500720065000E0369004600720061006D0065001C
:0300BD00751F00AC
:2008E000AC82AD83AEF0FFE4B5730280117401B573030209857402B57303020A0C22BC6037
:200900000CBD0909BE0006BF000302097DBCC00BBD1208BE0005BF0002805DBC800BBD2506
:2009200008BE0005BF0002804ABC000BBD4B08BE0005BF00028037BC800BBD7008BE000510
:20094000BF00028024BC000BBD9608BE0005BF00028011BC002CBDE129BE0026BF00237511
:200960001FFD8021751FFB801C751FF98017751FF68012751FEC800D751FD98008751FB207
:200980008003751F00BC600CBD0909BE0006BF0003020A04BCC00BBD1208BE0005BF0002D1
:2009A000805DBC800BBD2508BE0005BF0002804ABC000BBD4B08BE0005BF00028037BC808D
:2009C0000BBD7008BE0005BF00028024BC000BBD9608BE0005BF00028011BC002CBDE129C9
:2009E000BE0026BF0023751FF98021751FF6801C751FF38017751FEC8012751FD9800D753E
:200A00001FB28008751F648003751F00BC600CBD0909BE0006BF0003020A85BCC00BBD120A
:200A200008BE0005BF00028058BC800BBD2508BE0005BF00028046BC000BBD4B08BE00053D
:200A4000BF00028034BC800BBD7008BE0005BF00028022BC000BBD9608BE0005BF00028059
:200A600010BC0025BDE122BE001FBF001C751FF322751FEC22751FE622751FD922751FB251
:200A800022751F6422751F0022751F0022D310AF01C3C0D043892000000000C28E0000008C
:1B0AA00000851F8D00000000758B2300000000D0D092AF22D28E000000002262
:200ABB0043B202AFB274FB5FF5B22243892000000000C28E00000000758D77000000007502
:200ADB008B770000000022754700754600754500A280A280E433F5F005F07401800225E075
:200AFB00D5F0FB4280120ABB020AC6227545002275450122E543B54405120B0680F6E544ED
:200B1B002423F98707054474E0254450037544008F8222E544B5430474018001E4FFB401F4
:200B3B0000E433F58222754300754400227401B547047F0180027F008F8222AF827401B5D3
:200B5B00470280F975480375490AEF3395E0CF25E0CF33FE8F4A74024EF54B75470122AD5C
:200B7B0082AE83AFF08D828E838FF0121749FC60188C820DBD00010EC007C006C005120B2D
:0B0B9B0056D005D006D00780DC2222D7
:06008800E478FFF6D8FD4C
:1200C000754D00754E00754F3C75503E75511C75523EBF
:200BA60090E6B9E0FF24F45003020CABEF240A83F582EF241083F583E473D8EDAB02ABABA9
:200BC60017AB273F598D0B0B0C0C0C0C0C0C0C0C0C0C120D22E5826003020CC090E6A0E0A4
:200BE600FF4401F0020CC0120DABE5826003020CC090E6A0E0FF4401F0020CC0120E1AE574
:200C0600826003020CC090E6A0E0FF4401F0020CC0120145E5826003020CC0120ECD020C38
:200C2600C01202DEAF8290E740EFF090E68AE4F090E68B7401F0020CC090E6BAE0F5821294
:200C460002E2E5826003020CC090E6A0E0FF4401F0806790E6BCE0FF75174C7518007519FD
:200C6600408F821201BFE582700A90E6A0E0FF4401F0804690E740E54CF090E68AE4F0903E
:200C8600E68B7401F0803390E6BCE0FF90E6BAE0F51A8F821201F5E582701F90E6A0E0FF91
:200CA6004401F0801590E6B9E0F582120149E582700890E6A0E0FF4401F090E6A0E04480BF
:200CC600F022AF828F0653067FEE24F75003020D1EEE240A83F582EE240D83F583E473F757
:200CE600FB0E1E121E161E1A0C0C0D0D0D0D0D0D0D90E6A022EF30E7067EA27FE680047E0B
:200D0600A17FE68E828F832290E6A32290E6A42290E6A52290E6A6229000002290E6B8E0D1
:200D2600FFBF8002801FBF81028005BF826F803490E740E4F090E741F090E68AF090E68B7F
:200D46007402F0805CE54E25E0FFE54D420790E740EFF090E741E4F090E68AF090E68B7412
:200D660002F0803D90E6BCE0F582120CC8AE82AF83EE4F7003F582228E828F83E0FE30E094
:200D8600047F0180027F0090E740EFF090E741E4F090E68AF090E68B7402F08004758200D4
:200DA600227582012290E6B8E0FF6005BF0258801B90E6BAE0FFBF0105754E00805290E6EC
:200DC600BAE0FFBF060280487582002290E6BAE0703190E6BCE0F582120CC8AE82AF83E06A
:200DE600FD5305FE8E828F83EDF090E6BCE0FF30E70343071053071F90E683EFF074204FE2
:200E0600F0800D7582002290E6B9E0F5820201497582012290E6B8E0FF6008BF0202802969
:200E2600020E9590E6BAE0FFBF0203020E9E90E6BAE0FFBF0105754E01805D90E6BAE0FF02
:200E4600BF060280537582002290E6BAE0703C90E6BCE0F582120CC8AE82AF83EE4F70039C
:200E6600F582228E828F83E0FD4305018E828F83EDF090E6BCE0FF30E70343071053071F8E
:200E860090E683EFF074204FF0800D7582002290E6B9E0F58202014975820122D310AF017C
:200EA600C3C0D0E582FF600E754F1C75503E75513C75523E800C754F3C75503E75511C7535
:200EC600523ED0D092AF2290E6B57401F090E6BBE0FFBF01028019BF02028029BF030280CE
:200EE60033BF0603020F8CBF0703020FA1020FB07E007F3E8F0690E6B3EEF07E007F3E9076
:200F0600E6B4EEF022AF5090E6B3EFF0AE4F90E6B4EEF0227E5C7D3E7F8090E6BAE0F573F7
:200F26007B008B020BEAB5730280428E008D018F028E828D838FF012174928F8E439F98846
:200F46000689058A0774012EF9E43DFA8F0489828A838CF0121749F9B9030280067E007DDE
:200F6600007F00EE4D6006C3E5739B50B5EE4D600D8D0790E6B3EFF090E6B4EEF02290E6AC
:200F8600A0E04401F0227E127F3E8F0690E6B3EEF07E127F3E90E6B4EEF022AF5290E6B3EA
:120FA600EFF0AE5190E6B4EEF02290E6A0E04401F022E4
:200066007902E94400601B7A019018B17800759200E493F2A308B800020592D9F4DAF27591
:0200860092FFE7
:1B0FB80020F71130F6138883A88220F509F6A8837583002280FEF280F5F02238
:203D00000202F00002028C000217D7000218410002031700020366000217D400020FDE0071
:203D2000020FE000020FE100020FE200020FE5000218470002184800020FD300020FD5002A
:203D40000217D900020FDE000217D3000217D5000217D6000217D8000217DA00021840007B
:203D600002173000020FDE00020FDE00020FDE00020FDF00020FE300020FE600020FE80059
:203D8000020FE400020FE700020FE90002112B00020FD600020FD800020FDA00020FDC0056
:183DA000020FD700020FD900020FDB00020FDD00020FD400021846001A
:010FD30032EB
:010FD40032EA
:010FD50032E9
:010FD60032E8
:010FD70032E7
:20008E007800E84400600A7900759200E4F309D8FC7800E84400600C7900900000E4F0A380
:0400AE00D8FCD9FAA7
:010FD80032E6
:010FD90032E5
:010FDA0032E4
:010FDB0032E3
:010FDC0032E2
:010FDD0032E1
:010FDE0032E0
:010FDF0032DF
:010FE00032DE
:010FE10032DD
:010FE20032DC
:010FE30032DB
:010FE40032DA
:010FE50032D9
:010FE60032D8
:010FE70032D7
:010FE80032D6
:010FE90032D5
:200FEA00D310AF01C3C0D085825385835485F055F55690E600E05418C423541FFBB401006A
:20100A00E433FB60047B01801690E600E05418C423541FFABA01047A0280027A048A03D28E
:20102A00CDD2CC8B737574007575007576009071B075F00BE4C00312176585537385547491
:20104A008555758556761217DBA882A983AAF0FFD00308B8000909B900050ABA00010FEFCD
:20106A00C313EA13FAE913F9E813F874FFC398F874FF99FF8FCB7900EB60027401FFEF2835
:20108A00F5CAD2CAC29FD29EC29DD29C438780D299D0D092AF223098FD859982C29822AF05
:2010AA008210990280FB8F9922AF82BF0A0A75820DC0071210A9D0078F82C0071210A9D050
:0B10CA0007BF0D0675820A0210A92264
:2010D500AE82AF8390E600E05418C423541FFDB40100E433FD60067CB17D00801C90E60095
:2010F500E05418C423541FFBBB01067A617B0180047AC27B028A048B058C738D74157374CA
:16111500FFB573021574E573457470F11EBEFF011FEE4F70E422F2
:01112B003291
:20112C00C0728581721210B3D0722285826785836885F069E4F564F565F56685576A90112B
:20114C002C021222C072858172E57224FBFF8F6AE4F564F565F566E57224FBF8866708862E
:0D116C006808866990112C121222D07222A0
:20117900AF82C05AC05BC05C1211868007C058C0598F82221581158115810562E4B562021A
:20119900056322AF8274302FFF24C6500A74072FFF3004034307208F82021179E582FFC454
:2011B900540FF582C00712119CD007740F5FF58202119C858273855D74855E75855F7685D0
:2011D9006077AA61757820EA2AFAE577235401FF8A064EFAE5742574F574E57533F575E517
:2011F9007633F576E57733F577C3EA95734008EAC39573FA437401D578CD85745D85755E9B
:2012190085765F8577608A612285825885835985645A85655B85665CE4F562F563AD67AE0E
:2012390068AF698D828E838FF0121749FC74012DF567E43EF5688F69ECFF7003021729BF34
:2012590025028003021721C205C206C207C208C209C20AC20BC20C756B00756C007CFFAA57
:2012790067AB68AE698A828B838EF0121749FFA3AA82AB838A678B688E69BF25078F8212D5
:20129900117980998F6E74D0256E5026E56E24C64020BCFF12E56C75F00AA4FD2F24D0F565
:2012B9006C70C2D20680BEEC75F00AA42F24D0FC80B3BF2E07BCFFAD7C0080A98F05BD615D
:2012D90000400CED248540075307DFD2048002C204BF2002806DBF2B028063BF2D02805911
:2012F900BF42028063BF43028068BF44030214C8BF46030214DEBF480302127EBF4903027A
:2013190014C8BF4A0302127EBF4C028040BF4F030214CFBF500302145DBF5302805CBF54EF
:201339000302127EBF55030214D4BF58030214D9BF5A0302127E0214E2D20502127ED2070D
:2013590002127ED20802127ED20A02127ED20B02127E300A0CE56A14FE8E6A8E018707805D
:2013790011E56A24FEFE8E6A8E018705098706198D078F821211790214EBE56A24FDFE8ED4
:201399006A8E01870309870509870619198B5D8D5E8E5F8B828D838EF0C004121731AD82AC
:2013B900AE83D004BCFF028D0420052AC3ED956C5024E56CC39DF56CAE6C8E031EEB601413
:2013D900758220C006C005C004121179D004D005D00680E68E6C8C06855D82855E83855FD3
:2013F900F0121749FCFF60308E041EC3E464808CF063F08095F050208F82C006C0051211A9
:2014190079D005D006AA5DAB5EAC5F0ABA00010B8A5D8B5E8C5F80C02005030214EBC3EDD0
:20143900956C40030214EBE56CC39DF56CAE6C8E041EEC70030214E9758220C0061211799B
:20145900D00680EBE56A24FDFC8C6A8C01870209870309870419198A5D8B5E8C5FAC5FBCDF
:20147900800040047F438014BC600040047F50800BBC400040047F4980027F588F82C00746
:2014990012117975823A121179758230121179758278121179D007BF4902800BBF500280FF
:2014B90006855E821211B5855D821211B58023D209756B0A801C756B088017756B0A801295
:2014D900756B10800DD20C80098F8212117980028E6C300C5CE56A24FCFE8E6A8E018702D1
:2014F9000987030987040987061919198A5D8B5E8C5F8E60755DA6755E18755F80855D6F1A
:20151900855E70855F717401256FFAE43570FCAE718A5D8C5E8E5F856F828570838571F0D1
:20153900121749FEFF70030212368F8212117980CCE56B7003021236756D7E300A2DE56A4A
:2015590014FC8C6A8C01E7FA3395E0FBFCFE8A5D8B5E8C5F8E60200966AA5D7B007C007EAD
:20157900008A5D8B5E8C5F8E608054300B21E56A24FCFE8E6A8E01870209870309870409CC
:2015990087061919198A5D8B5E8C5F8E608030E56A24FEFE8E6A8E01870409870619EE33B0
:2015B90095E0FBFA8C5D8E5E8B5F8A60200910AA5DAB5E7C007E008A5D8B5E8C5F8E6030E3
:2015D9000925AA5DAB5EAC5FE560FE30E717C3E49AFAE49BFBE49CFCE49EFE8A5D8B5E8C2B
:2015F9005F8E608002C209D20DA96D7E00756100856B82C006C0011211CCD001D006200D33
:201619000BE561C4FCE7FB4CF7198002A7610EB20DE55D455E455F456070D2896D8E05E52D
:201639006C7003756C01200624200521ED04FEAC6CC3EE9C5015758220C006C005C004120F
:201659001179D004D005D0061C80E68C6C30090E75822DC005121179D005156C8023ED60DC
:201679002030070E75822BC005121179D005156C800F30080C758220C005121179D00515DE
:201699006C200522AE6C8E041EC3ED9C502B3006047C3080027C208C82C006C005121179B4
:2016B900D005D00680E0C3ED956C5008E56CC39DF56C8007756C0080028E6CA96D8D068ED0
:2016D900051EED6026B20D200D0A09E7C4540FFD8D6180078705740F5DF561856182C006EC
:2016F900C00112119CD001D00680D4200503021236AE6C8E051EED7003021236758220C098
:1717190006121179D00680EB8F8212117902123685628285638322E9
:0B18A6003C4E4F20464C4F41543E008A
:011730003286
:18173100AA82AB831217496003A380F8C3E5829AF582E5839BF583227E
:0D00590075817E121842E582600302005698
:1C17490020F71430F6148883A88220F507E6A88375830022E280F7E49322E022AF
:20176500AAF0FBE5828573F0A4FCADF0E5838573F0A42DFDE435F0FEE5828574F0A42DFD00
:20178500E5F03EFEE433FFEA8573F0A42EFEE5F03FFFE5838574F0A42EFEE5F03FFFE582CD
:2017A5008575F0A42EFEE5F03FFFEB8573F0A42FFFEA8574F0A42FFFE5838575F0A42FFFE9
:0E17C500E5828576F0A42F8EF08D838C822233
:0117D30032E3
:0117D40032E2
:0117D50032E1
:0117D60032E0
:0117D70032DF
:0117D80032DE
:0117D90032DD
:0117DA0032DC
:2017DB00FB7A20E4FCFDFEFFE5822582F582E58333F583E5F033F5F0EB33FB4017DAE98047
:2017FB0042E5822582F582E58333F583E5F033F5F0EB33FBEC33FCED33FDEE33FEEF33FF76
:20181B00EC9573ED9574EE9575EF95764013EC9573FCED9574FDEE9575FEEF9576FF4382E7
:05183B0001DABEEB2202
:011840003275
:011841003274
:041842007582002289
:01184600326F
:01184700326E
:01184800326D
:00000001FF
