:04000000020059326F
:01000B0032C2
:0100130032BA
:03001B000203C716
:0100230032AA
:01002B0032A2
:01003300329A
:01003B003292
:03004300023D007B
:01004B003282
:03005300023D006B
:0300B200752A00AC
:0300D500020056D0
:030056000200D8CD
:2000D800C201C200E4F523F52490E680E0440AF09005DC12129390E680E054F7F01205A763
:2000F800120BA8120B7AD2AB756F007582B0120C8990E100E4F5F01211A8D2E890E668E060
:200118004408F090E65CE04401F090E65CE04402F090E65CE04420F090E65CE0FF4410F0C1
:20013800D2AF300105120D64C20190E6A1E0FF20E1031205CEE58830E5E81204B280E375C1
:20015800820022AF82BFB15290E6BAE0F582C007120E86AD82AE83E0FC7B00C006C005C0FA
:2001780004C0037407C0E0741AC0E07480C0E012130EE58124FBF581D005D006D007ED4ED8
:2001980060188D828E83E090E740F090E68AE4F090E68B7401F0758201227E00C007C006C9
:2001B8007410C0E0741AC0E07480C0E012130EE58124FBF58175820022AF82C0077438C096
:2001D800E0741AC0E07480C0E012130E158115811581D007EF7014AD34AE35AF368D828EE0
:2001F800838FF0E41211767582012275820022AF82AD377E008F037C00C007C005C006C082
:2002180003C0047447C0E0741AC0E07480C0E012130EE58124F9F581D007EF7065E537708F
:200238006190E6837402F07422F07416F07436F090E6047480F00000000090E6047482F08E
:200258000000000090E604E4F00000000090E6917480F00000000090E6917480F000000062
:200278000090E6047480F00000000090E6047486F00000000090E604E4F00000000075825F
:20029800012275820022C0E0C082C083C0D075D008900000E02401F0A3E03400F09000004C
:2002B800E0FEA3E0FFBE401ABF1F17B2033003067592B8E280047592B0E2900000E4F0E4C5
:2002D800A3F0AF9174EF5FF59190E65D7402F0D0D0D083D082D0E03275820122AF82BF0180
:2002F800047F0180027F008F8222C0E0C082C083C007C0D075D000D201AF9174EF5FF59112
:2003180090E65D7401F0D0D0D007D083D082D0E032C022C0E0C0F0C082C083C007C006C08B
:2003380005C004C003C002C001C000C0D075D000758200121060AF9174EF5FF59190E65D2D
:200358007410F0D0D0D000D001D002D003D004D005D006D007D083D082D0F0D0E0D022329C
:20037800C022C0E0C0F0C082C083C007C006C005C004C003C002C001C000C0D075D0007548
:200398008201121060AF9174EF5FF59190E65D7420F0D0D0D000D001D002D003D004D005D2
:2003B800D006D007D083D082D0F0D0E0D02232C022C0E0C0F0C082C083C007C006C005C076
:2003D80004C003C002C001C000C0D075D000756F017582B0120D1C7401B54E29154FE54F26
:2003F8007023E55130E005120C788003120C7FE552C313C55113C551F552754F031550E5AD
:20041800507002F54EE54C7011E52C700B120C5C858231752C028002152CD0D0D000D00128
:20043800D002D003D004D005D006D007D083D082D0F0D0E0D022327402B53302800E74030B
:20045800B5330280147404B5334F803CE5317003753303E4F538F539228538F005F0AE3185
:200478007F008006EE2EFEEF33FFD5F0F7EE42310538E4B5380205397408B53806E4B53978
:1A04980002800122753304227401B5310C853132853282120C0C7533022259
:201A0700657020253032780A004E65656420746F20696D706C656D656E742076656E646F1B
:201A27007220636F6D6D616E643A20253032780A0047657420496E746572666163650A00F0
:1D1A470053657420696E7465726661636520256420746F20616C743A2025640A008B
:021A6F00000075
:0B00B500E4F510F51175124075139C66
:2004B200AF8874CF5FF58890E7C07431F090E7C17401F000000000AF1090E68F74022FF012
:2004D200E4F510F51122AF82E51024C0FDE51134E7FE74022DFDE43EFE90E6A2E0FC20E12E
:2004F200F88D828E83EFF00510E4B510020511C3E510943EE511940040031204B2E51045C4
:20051200116019E58820E41474FFC39512FE74FF9513FD8D8C7F008E8A438810222290E682
:20053200007410F00000000090E60174C0F00000000090E60B7403F00000000090E61074B8
:20055200A0F00000000090E61174A0F00000000090E612E4F00000000090E613E4F00000B5
:20057200000090E614E4F00000000090E615E4F00000000090E68D74FFF090E6B57401F0B6
:2005920075A88075E80190E65C7401F090E670E4F075B2012290E680E04408F0120530902A
:2005B200E680E04402F0E054F7F0AF8E74F75FF58E438901AF8874CF5FF5882290E68DE0E0
:2005D200FE7F0074012480FCE434E7FD1EBEFF011F7A007B00C3EA9EEB9F50608C828D83E8
:2005F200E0F9B961004027E92485402274E029F582C007C006C005C004C003C0021204D81E
:20061200D002D003D004D005D006D00780228C828D83E0F582C007C006C005C004C003C01D
:20063200021204D8D002D003D004D005D006D0070ABA00010B0CBC009C0D809990E68D74EC
:15065200FFF0000000002275B20100000000B280000000002206
:20066700AD82AE83AFF074022DFDE43EFE8D828E838FF0121907FD53050F7F007E007C0006
:200687008D828F838EF0EC22AD82AE83AFF074032DFDE43EFE8D828E838FF0121907FD53C5
:2006A70005037F007E007C008D828F838EF0EC22AD82AE83AFF074022DFDE43EFE8D828EA9
:2006C700838FF0121907FD530580E4BD800104FD3395E08D82F58322AD82AE83AFF0740221
:2006E7002DFDE43EFE8D828E838FF0121907FD530580E4BD000104FD3395E08D82F583220F
:20070700AD82AE83AFF074032DFDE43EFE8D828E838FF0121907FD530503E4BD020104FD44
:200727003395E08D82F58322AD82AE83AFF074032DFDE43EFE8D828E838FF0121907FD5380
:200747000503E4BD000104FD3395E08D82F58322AD82AE83AFF074032DFDE43EFE8D828E39
:20076700838FF0121907FD530503E4BD030104FD3395E08D82F58322AD82AE83AFF0740379
:200787002DFDE43EFE8D828E838FF0121907FD530503E4BD010104FD3395E08D82F58322EA
:2007A700AD82AE83AFF0C007C006C005120707E5828583F0D005D006D00745F060128D822A
:2007C7008E838FF01206B7E5828583F045F070047F0080027F01EF3395E08F82F58322AD3B
:2007E70082AE83AFF0C007C006C005120707E5828583F0D005D006D00745F060128D828E09
:20080700838FF01206DFE5828583F045F070047F0080027F01EF3395E08F82F58322AD82DE
:20082700AE83AFF0C007C006C005120757E5828583F0D005D006D00745F060128D828E8377
:200847008FF01206B7E5828583F045F070047F0080027F01EF3395E08F82F58322AD82AE9B
:2008670083AFF0C007C006C005120757E5828583F0D005D006D00745F060128D828E838F56
:20088700F01206DFE5828583F045F070047F0080027F01EF3395E08F82F58322AD82AE833F
:2008A700AFF0C007C006C00512077FE5828583F0D005D006D00745F060128D828E838FF081
:2008C7001206B7E5828583F045F070047F0080027F01EF3395E08F82F58322AD82AE83AF68
:2008E700F0C007C006C00512077FE5828583F0D005D006D00745F060128D828E838FF012DE
:2009070006DFE5828583F045F070047F0080027F01EF3395E08F82F58322AD82AE83AFF021
:2009270074042DFDE43EFE8D828E838FF0121907FDA31219078D82F58322AD82AE83AFF0A3
:2009470074032DFDE43EFE8D828E838FF0121907FD5305307F008D828F8322AD82AE83AFA8
:20096700F0ED4E70049000002274032DFDE43EFE8D828E838FF0121907FD53051F7F00EDAD
:1F0987004F7004900000228DF005F07D017F008006ED2DFDEF33FFD5F0F78D828F8322B0
:203E000012010002FFFFFF40030472830100010200010A060002FFFFFF40010009022000D4
:203E200001010080320904000002FFFFFF03070501020002000705810200020009022000F2
:203E400001010080320904000002FFFFFF0307050202400000070586024000000403090467
:203E60000603480069000C03540068006500720065000E0369004600720061006D0065001C
:0300C000751400B4
:2009A600AC82AD83AEF0FFE4B56F0280117401B56F03020A4B7402B56F03020AD222BC60EF
:2009C6000CBD0909BE0006BF0003020A43BCC00BBD1208BE0005BF0002805DBC800BBD2579
:2009E60008BE0005BF0002804ABC000BBD4B08BE0005BF00028037BC800BBD7008BE00054A
:200A0600BF00028024BC000BBD9608BE0005BF00028011BC002CBDE129BE0026BF0023754A
:200A260014FD80217514FB801C7514F980177514F680127514EC800D7514D980087514B28D
:200A46008003751400BC600CBD0909BE0006BF0003020ACABCC00BBD1208BE0005BF00024F
:200A6600805DBC800BBD2508BE0005BF0002804ABC000BBD4B08BE0005BF00028037BC80C6
:200A86000BBD7008BE0005BF00028024BC000BBD9608BE0005BF00028011BC002CBDE12902
:200AA600BE0026BF00237514F980217514F6801C7514F380177514EC80127514D9800D75AE
:200AC60014B280087514648003751400BC600CBD0909BE0006BF0003020B4BBCC00BBD129E
:200AE60008BE0005BF00028058BC800BBD2508BE0005BF00028046BC000BBD4B08BE000577
:200B0600BF00028034BC800BBD7008BE0005BF00028022BC000BBD9608BE0005BF00028092
:200B260010BC0025BDE122BE001FBF001C7514F3227514EC227514E6227514D9227514B2C1
:200B460022751464227514002275140022D310AF01C3C0D043892000000000C28E000000E6
:1B0B66000085148D00000000758B2300000000D0D092AF22D28E0000000022A6
:200B810043B202AFB274FB5FF5B22243892000000000C28E00000000758D7700000000753B
:200BA1008B770000000022754E00754D00754C00120C78120B81120B8C020BBE22754C003F
:200BC10022754C0122E54AB54B0475823022E54B243AF98707054B74F0254B5003754B0046
:200BE1008F8222E54BB54A0474018001E4FFB40100E433F58222754A00754B00227401B585
:200C01004E047F0180027F008F8222AF827401B54E0280F9754F0375500AEF3395E0CF2588
:200C2100E0CF33FE8F5174024EF552754E0122AD82AE83AFF08D828E838FF0121907FC60D6
:200C4100188C820DBD00010EC007C006C005120C0CD005D006D00780DC22220000000000F6
:200C6100000000AF800000000000000000EFC313FF5307018F8222D280000000002275B257
:080C810001C280000000002206
:200C8900AF82BF80028014BF90028018BFA002801CBFB0028020BFB1318027E56F42B200BE
:200CA90000000022E56F42B30000000022E56F42B40000000022E56F42B575B501000000BC
:200CC9000022E56F42B60000000022AF82BF80028014BF90028018BFA002801CBFB002809E
:200CE90020BFB12E8024E56F42800000000022E56F42900000000022E56F42A000000000D3
:200D090022E56F42B00000000022E56F42B10000000022AF82BF80028014BF90028018BF29
:200D2900A002801CBFB0028020BFB12E8024E56F62800000000022E56F6290000000002259
:1B0D4900E56F62A00000000022E56F62B00000000022E56F62B1000000002206
:06008800E478FFF6D8FD4C
:1200C30075160075170075183C75193E751A1C751B3E06
:200D640090E6B9E0FF24F45003020E69EF240A83F582EF241083F583E47396AB69C06969B5
:200D8400D569E5FD174B0D0D0E0D0E0E0D0E0D0D0E0E120EE0E5826003020E7E90E6A0E0DD
:200DA400FF4401F0020E7E120F69E5826003020E7E90E6A0E0FF4401F0020E7E120FD8E5F5
:200DC400826003020E7E90E6A0E0FF4401F0020E7E120157E5826003020E7E12108B020E65
:200DE4007E1202F0AF8290E740EFF090E68AE4F090E68B7401F0020E7E90E6BAE0F5821245
:200E040002F4E5826003020E7E90E6A0E0FF4401F0806790E6BCE0FF75341575350075364B
:200E2400408F821201D1E582700A90E6A0E0FF4401F0804690E740E515F090E68AE4F090A3
:200E4400E68B7401F0803390E6BCE0FF90E6BAE0F5378F82120207E582701F90E6A0E0FFA1
:200E64004401F0801590E6B9E0F58212015BE582700890E6A0E0FF4401F090E6A0E04480ED
:200E8400F022AF828F0653067FEE24F75003020EDCEE240A83F582EE240D83F583E473B51A
:200EA400B9CCDCD0DCD4DCD80E0E0E0E0E0E0E0E0E90E6A022EF30E7067EA27FE680047E50
:200EC400A17FE68E828F832290E6A32290E6A42290E6A52290E6A6229000002290E6B8E012
:200EE400FFBF8002801FBF81028005BF826F803490E740E4F090E741F090E68AF090E68BC0
:200F04007402F0805CE51725E0FFE516420790E740EFF090E741E4F090E68AF090E68B74C0
:200F240002F0803D90E6BCE0F582120E86AE82AF83EE4F7003F582228E828F83E0FE30E014
:200F4400047F0180027F0090E740EFF090E741E4F090E68AF090E68B7402F0800475820014
:200F6400227582012290E6B8E0FF6005BF0258801B90E6BAE0FFBF0105751700805290E663
:200F8400BAE0FFBF060280487582002290E6BAE0703190E6BCE0F582120E86AE82AF83E0EA
:200FA400FD5305FE8E828F83EDF090E6BCE0FF30E70343071053071F90E683EFF074204F22
:200FC400F0800D7582002290E6B9E0F58202015B7582012290E6B8E0FF6008BF0202802998
:200FE40002105390E6BAE0FFBF020302105C90E6BAE0FFBF0105751701805D90E6BAE0FFFA
:20100400BF060280537582002290E6BAE0703C90E6BCE0F582120E86AE82AF83EE4F70031C
:20102400F582228E828F83E0FD4305018E828F83EDF090E6BCE0FF30E70343071053071FCE
:2010440090E683EFF074204FF0800D7582002290E6B9E0F58202015B75820122D310AF01AA
:20106400C3C0D0E582FF600E75181C75193E751A3C751B3E800C75183C75193E751A1C75F6
:201084001B3ED0D092AF2290E6B57401F090E6BBE0FFBF01028019BF02028029BF03028045
:2010A40033BF060302114ABF070302115F02116E7E007F3E8F0690E6B3EEF07E007F3E9076
:2010C400E6B4EEF022AF1990E6B3EFF0AE1890E6B4EEF0227E5C7D3E7F8090E6BAE0F56FAA
:2010E4007B008B020BEAB56F0280428E008D018F028E828D838FF012190728F8E439F988CB
:201104000689058A0774012EF9E43DFA8F0489828A838CF0121907F9B9030280067E007D5E
:20112400007F00EE4D6006C3E56F9B50B5EE4D600D8D0790E6B3EFF090E6B4EEF02290E6F0
:20114400A0E04401F0227E127F3E8F0690E6B3EEF07E127F3E90E6B4EEF022AF1B90E6B361
:12116400EFF0AE1A90E6B4EEF02290E6A0E04401F0225B
:200066007902E94400601B7A01901A6F7800759200E493F2A308B800020592D9F4DAF275D1
:0200860092FFE7
:1B11760020F71130F6138883A88220F509F6A8837583002280FEF280F5F02278
:203D00000203020002029E00021995000219FF0002032900020378000219920002119C0029
:203D200002119E0002119F000211A0000211A300021A0500021A060002119100021193002A
:203D40000219970002119C0002199100021993000219940002199600021998000219FE007C
:203D60000218EE0002119C0002119C0002119C0002119D000211A1000211A4000211A6005A
:203D80000211A2000211A5000211A7000212E90002119400021196000211980002119A0057
:183DA00002119500021197000211990002119B0002119200021A04009A
:01119100322B
:01119200322A
:011193003229
:011194003228
:011195003227
:20008E007800E84400600A7900759200E4F309D8FC7800E84400600C7900900000E4F0A380
:0400AE00D8FCD9FAA7
:011196003226
:011197003225
:011198003224
:011199003223
:01119A003222
:01119B003221
:01119C003220
:01119D00321F
:01119E00321E
:01119F00321D
:0111A000321C
:0111A100321B
:0111A200321A
:0111A3003219
:0111A4003218
:0111A5003217
:0111A6003216
:0111A7003215
:2011A800D310AF01C3C0D085821C85831D85F01EF51F90E600E05418C423541FFBB4010086
:2011C800E433FB60047B01801690E600E05418C423541FFABA01047A0280027A048A03D2CF
:2011E800CDD2CC8B6F7570007571007572009071B075F00BE4C003121923851C6F851D7098
:20120800851E71851F72121999A882A983AAF0FFD00308B8000909B900050ABA00010FEFC3
:20122800C313EA13FAE913F9E813F874FFC398F874FF99FF8FCB7900EB60027401FFEF2875
:20124800F5CAD2CAC29FD29EC29DD29C438780D299D0D092AF223098FD859982C29822AF45
:201268008210990280FB8F9922AF82BF0A0A75820DC007121267D0078F82C007121267D010
:0B12880007BF0D0675820A02126722E4
:20129300AE82AF8390E600E05418C423541FFDB40100E433FD60067CB17D00801C90E600D5
:2012B300E05418C423541FFBBB01067A617B0180047AC27B028A048B058C6F8D70156F7416
:1612D300FFB56F021570E56F457070F11EBEFF011FEE4F70E42243
:0112E90032D2
:2012EA00C06E85816E121271D06E2285826385836485F065E4F560F561F5628553669012D7
:20130A00EA0213E0C06E85816EE56E24FBFF8F66E4F560F561F562E56E24FBF88663088615
:0D132A00640886659012EA1213E0D06E226E
:20133700AF82C056C057C0581213448007C054C0558F8222158115811581055EE4B55E02B6
:20135700055F22AF8274302FFF24C6500A74072FFF3004034307208F82021337E582FFC4D8
:20137700540FF582C00712135AD007740F5FF58202135A85826F855970855A71855B7285AC
:201397005C73AA5D757420EA2AFAE573235401FF8A064EFAE5702570F570E57133F571E57F
:2013B7007233F572E57333F573C3EA956F4008EAC3956FFA437001D574CD85705985715A0B
:2013D70085725B85735C8A5D22858254858355856056856157856258E4F55EF55FAD63AE8F
:2013F70064AF658D828E838FF0121907FC74012DF563E43EF5648F65ECFF70030218E7BF0A
:20141700250280030218DFC205C206C207C208C209C20AC20BC20C7567007568007CFFAAE0
:2014370063AB64AE658A828B838EF0121907FFA3AA82AB838A638B648E65BF25078F82126D
:20145700133780998F6A74D0256A5026E56A24C64020BCFF12E56875F00AA4FD2F24D0F5F5
:201477006870C2D20680BEEC75F00AA42F24D0FC80B3BF2E07BCFFAD7C0080A98F05BD61A1
:2014970000400CED248540075307DFD2048002C204BF2002806DBF2B028063BF2D02805951
:2014B700BF42028063BF43028068BF4403021686BF460302169CBF480302143CBF4903027A
:2014D7001686BF4A0302143CBF4C028040BF4F0302168DBF500302161BBF5302805CBF5430
:2014F7000302143CBF5503021692BF5803021697BF5A0302143C0216A0D20502143CD207CE
:2015170002143CD20802143CD20A02143CD20B02143C300A0CE56614FE8E668E01870780A5
:2015370011E56624FEFE8E668E018705098706198D078F821213370216A9E56624FDFE8EA0
:20155700668E01870309870509870619198B598D5A8E5B8B828D838EF0C0041218EFAD823D
:20157700AE83D004BCFF028D0420052AC3ED95685024E568C39DF568AE688E031EEB601463
:20159700758220C006C005C004121337D004D005D00680E68E688C06855982855A83855B63
:2015B700F0121907FCFF60308E041EC3E464808CF063F08095F050208F82C006C005121327
:2015D70037D005D006AA59AB5AAC5B0ABA00010B8A598B5A8C5B80C02005030216A9C3EDAB
:2015F700956840030216A9E568C39DF568AE688E041EEC70030216A7758220C006121337AC
:20161700D00680EBE56624FDFC8C668C01870209870309870419198A598B5A8C5BAC5BBC37
:20163700800040047F438014BC600040047F50800BBC400040047F4980027F588F82C00786
:2016570012133775823A121337758230121337758278121337D007BF4902800BBF5002803F
:2016770006855A821213738559821213738023D20975670A801C756708801775670A801269
:20169700756710800DD20C80098F8212133780028E68300C5CE56624FCFE8E668E01870261
:2016B7000987030987040987061919198A598B5A8C5B8E5C755964755A1A755B8085596BBE
:2016D700855A6C855B6D7401256BFAE4356CFCAE6D8A598C5A8E5B856B82856C83856DF046
:2016F700121907FEFF70030213F48F8212133780CCE56770030213F475697A300A2DE5669D
:2017170014FC8C668C01E7FA3395E0FBFCFE8A598B5A8C5B8E5C200966AA597B007C007E05
:20173700008A598B5A8C5B8E5C8054300B21E56624FCFE8E668E0187020987030987040924
:2017570087061919198A598B5A8C5B8E5C8030E56624FEFE8E668E01870409870619EE3308
:2017770095E0FBFA8C598E5A8B5B8A5C200910AA59AB5A7C007E008A598B5A8C5B8E5C304B
:201797000925AA59AB5AAC5BE55CFE30E717C3E49AFAE49BFBE49CFCE49EFE8A598B5A8C83
:2017B7005B8E5C8002C209D20DA9697E00755D00856782C006C00112138AD001D006200DC7
:2017D7000BE55DC4FCE7FB4CF7198002A75D0EB20DE559455A455B455C70D289698E05E58A
:2017F700687003756801200624200521ED04FEAC68C3EE9C5015758220C006C005C004125C
:201817001337D004D005D0061C80E68C6830090E75822DC005121337D00515688023ED60A4
:201837002030070E75822BC005121337D0051568800F30080C758220C005121337D00515A2
:2018570068200522AE688E041EC3ED9C502B3006047C3080027C208C82C006C0051213373C
:20187700D005D00680E0C3ED95685008E568C39DF568800775680080028E68A9698D068E28
:20189700051EED6026B20D200D0A09E7C4540FFD8D5D80078705740F5DF55D855D82C00638
:2018B700C00112135AD001D00680D42005030213F4AE688E051EED70030213F4758220C09E
:1718D70006121337D00680EB8F821213370213F4855E82855F8322F3
:0B1A64003C4E4F20464C4F41543E00CA
:0118EE0032C7
:1818EF00AA82AB831219076003A380F8C3E5829AF582E5839BF58322FF
:0D00590075817A121A00E5826003020056DC
:1C19070020F71430F6148883A88220F507E6A88375830022E280F7E49322E022EF
:20192300AAF0FBE582856FF0A4FCADF0E583856FF0A42DFDE435F0FEE5828570F0A42DFD4C
:20194300E5F03EFEE433FFEA856FF0A42EFEE5F03FFFE5838570F0A42EFEE5F03FFFE58215
:201963008571F0A42EFEE5F03FFFEB856FF0A42FFFEA8570F0A42FFFE5838571F0A42FFF39
:0E198300E5828572F0A42F8EF08D838C822277
:011991003223
:011992003222
:011993003221
:011994003220
:01199500321F
:01199600321E
:01199700321D
:01199800321C
:20199900FB7A20E4FCFDFEFFE5822582F582E58333F583E5F033F5F0EB33FB4017DAE98087
:2019B90042E5822582F582E58333F583E5F033F5F0EB33FBEC33FCED33FDEE33FEEF33FFB6
:2019D900EC956FED9570EE9571EF95724013EC956FFCED9570FDEE9571FEEF9572FF438248
:0519F90001DABEEB2243
:0119FE0032B6
:0119FF0032B5
:041A000075820022C9
:011A040032AF
:011A050032AE
:011A060032AD
:00000001FF
